:020000040800F2
:10000000B1AA010000000000000000000000000094
:10001000000000000000000000000000742900083B
:1000200000000000000000000000000000000000D0
:1000300000000000000000000000000000000000C0
:1000400000000000000000000000000000000000B0
:1000500000000000000000000000000000000000A0
:100060000000000000000000000000000000000090
:100070000000000000000000000000000000000080
:100080000000000000000000000000000000000070
:100090000000000000000000000000000000000060
:1000A0000000000000000000000000000000000050
:1000B0000000000000000000000000002A460008C8
:1000C0000000000000000000000000000000000030
:1000D0000000000000000000000000000000000020
:1000E000C829000800000000000000000000000017
:1000F00000000000A843000800000000000000000D
:1001000000000000000000000000000000000000EF
:10011000000000001E2A000800000000000000008F
:1001200000000000000000000000000000000000CF
:1001300000000000000000000000000000000000BF
:1001400000000000000000000000000000000000AF
:1001500000000000000000009843000873700430A5
:10016000170500001305C5FF8545F605637BB5003F
:1001700089816378B500170500001305C5002E9529
:1001800002859302002073A0027D970200009382F3
:1001900062E773907230976200009382E2F6739088
:1001A000C27E73E0C07E976200009382A2ED7390DE
:1001B0005230971100189381E1B417810018130190
:1001C00061E417B500001305A58597050018938510
:1001D00065E3170600181306664263FAC50083221A
:1001E000050023A0550011059105E3EAC5FE17059A
:1001F00000181305A540972500189385259C637763
:10020000B500232005001105E36DB5FE73F0023241
:10021000176500001305853A97600000E780E0F558
:1002200097600000E780C04397100000E780C0712E
:100230000145814597000000E780804B176300006F
:100240006700A3F401A073E00232828073F00232EF
:0402500082800000A8
:100280000000000000000000010203040607080946
:100290000A50726F6772616D2068617320657869BA
:1002A000746564207769746820636F64653A000040
:1002B000307800006E6D690A000000007472617091
:1002C0000A0000001603470069006700610044004F
:1002D0006500760069006300650000003803470090
:1002E000440033003200200055005300420020003B
:1002F0004300440043002000410043004D00200023
:1003000069006E0020004600530020004D006F0081
:1003100064006500000000002E0347004400330025
:1003200032005800580058002D0033002E003000D5
:100330002E0030002D0037007A0038007800390098
:100340007900650072000000120100020200004006
:10035000E9288A0100010102030100000CAA00083B
:10036000C4020008DC0200081803000800000000B6
:10037000000000000040AF40464154004641543365
:1003800032000000222A2B2C3A3B3C3D3E3F5B5D75
:100390007C7F000000000000000000004C4F474739
:1003A0002E435356000000004D696E757465722C23
:1003B00053656B756E6465722C417676696B656CFE
:1003C00073650A00256C752C256C752C25640A0054
:1003D000F8C1631ADCA54C40583A20256420205906
:1003E0003A20256420205A3A2025640A00000000A3
:1003F000417676696B656C73653A20256420204EE2
:100400006F6C6C76696E6B656C3A2025640A00002F
:100410000000C8410000A0410000000001000000F1
:100420000200000003000000DA5900080A5C00081E
:10043000045800088A5B000804580008265B00087E
:1004400038580008A25C0008945A00083259000885
:10045000D05A0008FC5A0008A65C00080000000002
:10046000000000000000000000000000000000008C
:10047000000000000000000000000000000000007C
:10048000000000000000000000000000000000006C
:10049000000000000000000000000000000000005C
:1004A000000000000000000000000000000000004C
:1004B000000000000000000000000000232D302B91
:1004C00020000000686C4C006566674546470000E8
:1004D000303132333435363738394142434445467A
:1004E000000000003031323334353637383961623C
:1004F00063646566000000004FBB610567ACDD3FCB
:10050000182D4454FB21E93F9BF681D20B73EF3F3A
:10051000182D4454FB21F93FE2652F227F2B7A3CB2
:10052000075C143326A6813CBDCBF07A8807703C6B
:10053000075C143326A6913CFA8900004A89000022
:10054000508900004A890000EC8900004A890000B7
:1005500050890000FA890000FA890000EC89000047
:100560005089000030890000308900003089000087
:1005700054890000A48E0000A48E0000BC8E0000F0
:100580009E8E00009E8E00004A8F0000BC8E0000F0
:100590009E8E00004A8F00009E8E0000BC8E0000E0
:1005A0009C8E00009C8E00009C8E00004A8F0000F4
:1005B000329D0000329D00004A9D00002E9D0000EB
:1005C0002E9D0000909D00004A9D00002E9D000081
:1005D000909D00002E9D00004A9D00002C9D000073
:1005E0002C9D00002C9D0000909D00000001020247
:1005F00003030303040404040404040405050505BB
:100600000505050505050505050505050606060696
:10061000060606060606060606060606060606067A
:100620000606060606060606060606060707070766
:10063000070707070707070707070707070707074A
:10064000070707070707070707070707070707073A
:10065000070707070707070707070707070707072A
:100660000707070707070707070707070808080816
:1006700008080808080808080808080808080808FA
:1006800008080808080808080808080808080808EA
:1006900008080808080808080808080808080808DA
:1006A00008080808080808080808080808080808CA
:1006B00008080808080808080808080808080808BA
:1006C00008080808080808080808080808080808AA
:1006D000080808080808080808080808080808089A
:1006E000080808080808080808080808597186D684
:1006F000A2D4A6D2CAD0CECED2CCD6CADAC8DEC652
:10070000E2C4E6C2EAC06EDE97500000E780C0C7D0
:1007100097500000E780C0CC6306052E1305803E8D
:1007200097500000E780E0B71305206097000000B5
:10073000E780806A37140140930600020D46914518
:100740001305048097000000E780604013053060C7
:1007500097000000E7804068130504C085460D46F9
:10076000C14597000000E780803E930600020D46D9
:10077000C145130504C097000000E780403D130504
:10078000507197000000E78020659306000C0D462D
:10079000F145130504C097000000E780403B375542
:1007A00000401305054097400000E780A0A6974051
:1007B0000000E78000C5481097400000E780A000D7
:1007C00037040008B71B002097000000E7800028CE
:1007D000014997400000E78040D78144814A130BCC
:1007E000000013048439B70C0020370D0020B70D2A
:1007F0000020938B0BD9280897400000E780A0FCCD
:1008000082552E8597A00000E7802094E245AA89B2
:100810002E8597A00000E7804093AA854E8597908B
:100820000000E780605297A00000E780A0F8977072
:100830000000E780803797A00000E780800197A044
:100840000000E78020F72AC072452EC2B719014088
:1008500097A00000E78000F60246924697700000DD
:10086000E7802034105C545CB7070080AD8FBE85F4
:1008700097900000E780208297A00000E78060FD4D
:10088000930500022A8A1385098097000000E780FB
:10089000C0368545631F0516138509C09700000003
:1008A000E78020351305200397100000E780602DB6
:1008B000528B854ADA85528597A00000E78060ABAD
:1008C000AA89025597A00000E780C0DC2AC67245BD
:1008D00097A00000E78000DC2AC0624597A00000D6
:1008E000E78040DBB2460246B7070008AA851385B9
:1008F000873D97600000E78040FB5A8597A0000085
:10090000E78040D92AC04E8597A00000E78080D8B4
:100910000246AA851305840597600000E780E0F889
:10092000014597600000E780A0A513054006975099
:100930000000E7800097E3800AEC2C5C4E85138C66
:10094000CC6197900000E7804071130A4D626359B3
:10095000A00C3715014093050002130505C0970050
:100960000000E7800029ADE493848D619C4013066C
:10097000B0126348F60497000000E780800D032959
:100980000C0097000000E780600CBD67938707A606
:10099000B355F902944031471306B012B377F90208
:1009A0003387E6025E970CC39305803EB3D7B70248
:1009B000232437015CC3938716009CC08544635988
:1009C000F60097400000E780E0A8D68423202A01A3
:1009D00097000000E780E00783290C0097000000E3
:1009E000E780C00603270A0095679387F7E13387FE
:1009F000E940E3F2E7E097400000E780A0A523206C
:100A00003A01D5BB1305400697500000E780608986
:100A100001B3138509C097000000E780C01D59BDD0
:100A20006C5C4E8597900000E780A06AE35205FA5F
:100A30003715014093050002130505C0970000001B
:100A4000E780601B814469B7F36704308280F377E5
:100A50000430828017130000670043DB011106CECB
:100A600022CC32C42A842EC697100000E780E0D83A
:100A7000B245228597100000E780A0DB2246228540
:100A80006244F240B2850561171300006700E3DF9E
:100A9000B707014083A607401347F5FFF98E23A04F
:100AA000D74083A64740F98E23A2D74083A687402C
:100AB000F98E23A4D74083A6C740F98E23A6D7403A
:100AC00081CD85466380D50285476300F6040DC25B
:100AD00089476309F604828083A60740C98E23A054
:100AE000D740DDB783A64740C98E23A2D740E9BFD0
:100AF000B707014083A68740558D23A4A74083A64E
:100B0000C740758F23A6E7408280B707014083A6C0
:100B10008740758F23A4E74003A7C740598D23A6BC
:100B2000A7408280B707014003A78740498FDDB700
:100B300037070140832707405D8D2320A74082802F
:100B4000B707014023AAA740828093F7050193F8D5
:100B5000F50099C3B3E8C8008147054EBD4E130F99
:100B60008002930F800421433316FE00758E1DC250
:100B700013972700832205003398EE001348F8FFEF
:100B8000337858003397E800336707016399E50528
:100B900050C918C18507E39967FC054EBD4E130F78
:100BA0008002930F800441433316FE00758E05C604
:100BB000139727000117832245003398EE0013484E
:100BC000F8FF337858003397E80033670701639CD8
:100BD000E50150C958C18507E39867FC8280E39A14
:100BE000F5FB10C97DB7E397F5FF10C9E5B70CC950
:100BF00082804CC9828008456D8D3335A00082808B
:100C0000011122CC2A84094526CA32C606CEAE84FA
:100C100097000000E7804022B7470F00B70638036F
:100C2000938707249386F6973357F5023246930746
:100C3000600363E3A600BA87544093F606FCDD8E9A
:100C400054C0E1669386066A63E196049307170031
:100C5000130750036376F700930760031CD029A0A5
:100C60000947E36DF7FE18D08604335595025C4CB6
:100C700011476373E5001145520551815D8D48CCE4
:100C8000F2406244D2440561828037270600130790
:100C900007A8636C97041307C012B387E702130712
:100CA000803EB3D7E70285071CD01DE68D47B3848D
:100CB000F4025C4C71777D17F98F335595025CCC4B
:100CC0009317450199E3136515005C4C2167D98F93
:100CD0005CCC444C458D65B7E547B384F4025C4C6D
:100CE0001167D98F33559502D9BF13078007B38792
:100CF000E7021307803EB3D7E70285071CD00DEA51
:100D00008D45B384B4025C4C71777D17F98F3355F0
:100D100095025CCC5C4C2167D98F5CCC444C458DF2
:100D200048CC8327040993E717002328F40889BFD8
:100D3000E545B384B4025C4C1167D98F33559502F5
:100D4000C9BF85476397F5001C4193E707401CC165
:100D500082801C4193F7F7BFDDBF795793E71500F9
:100D60006314E60093F7E5FF1CC982801C4193E7FA
:100D700017001CC182801C4193E707101CC18280B0
:100D80001C4193E707201CC182800CC9828008495E
:100D90001375F50F828093D7650093F7F73F3E9563
:100DA00008413355B500058982809307105063953B
:100DB000F5005C491C4D828013D765001377F73F1F
:100DC0003A9518418547B397B70093C7F7FFF98F56
:100DD0001CC18280B7170240135765003E97144329
:100DE0008547B397A700D58F1CC38280B7170240F1
:100DF000135765003E9714438547B397A700D58FD7
:100E00001CC38280B7170240135765003E971443F6
:100E10008547B397A70093C7F7FFF58F1CC3828060
:100E2000B7160240DC42370740FF7D17F98F5D8D12
:100E3000C8C282807971B705000822D441462A844D
:100E400093850528080806D697600000E780E087AC
:100E5000B70703049387172002C03EC202C43EC6F0
:100E6000371702405C43894689838D8B6397D70E81
:100E70005C439396F70063D606065C579396F7009B
:100E800063DC06045C57585791832183BD8B3D8BEF
:100E9000938617000907C5476313F7005147B71733
:100EA0007A0093870720B3D7D702B387E7023717B3
:100EB000024058573D8B050733D7E702B71602406B
:100EC000DC42D442C98313962600BD8B63500602D0
:100ED00093E7070185070DA0B7177A0093870720CE
:100EE000F9B7B7173D0013870790C9BFBD46E38325
:100EF000D7FE8907638DD704B387E702B716024090
:100F0000D842101011833D8B3297034507FFD8421A
:100F100033D5A70021831D8B3297034607FED842A5
:100F200014102D831D8B36978546034787FE630C6F
:100F3000D40005CC89476307F4028D473355E5009B
:100F40006303F4000145B250225445618280994701
:100F5000B307F7020583BA9755B7B7177A00938797
:100F6000072069BF3355C500F9BF3E85E9BF1C4165
:100F70000D6713070704D4417D8F9C41D58F94459D
:100F8000D58FD445D58F9449D58FD449D58F944DDD
:100F9000D58FD98F1CC15C4D7D771307F77FF98FF3
:100FA0005CCD82801C4193E707041CC182804CC544
:100FB000828048454205418182801C410967D98F62
:100FC0001CC10CC9828008456D8D3335A00082801C
:100FD0004111B717004006C6138707C0630EE50826
:100FE0006367A70237070040930607406304D506EE
:100FF000938707806309F5066312E50A130500402D
:1010000097000000E780C0DE1305004035A8138775
:101010000740630CE50637370140130707C0630D2F
:10102000E500631DF5061305404097000000E780CA
:1010300020DC1305404009A81305B03097000000DC
:10104000E78000DB1305B030B24041011703000018
:10105000670083DB1305104097000000E78040D94C
:1010600013051040D5B71305204097000000E78016
:1010700020D813052040C9BF130530409700000059
:10108000E78000D713053040C1B7130550409700E3
:101090000000E780E0D5130550407DB7B240410124
:1010A0008280C167FD1723200500231205001CC59F
:1010B0002316050023070500828083D7050003D788
:1010C00045009376F5BF1CD5B7370140938707C01D
:1010D000418B630AF500FD779387F73FE98F370669
:1010E00000406390C7061C4193F7F7F81CC183D7F3
:1010F0002500104193F70706D18F1CC11C415D8F5D
:1011000018C19C455CD5B71700406387F6021C41A7
:1011100093F7F7CF1CC183D7C500184193F7073069
:10112000D98F1CC1B7370140138707C06316E5008C
:1011300003C7E50023A8E7C25C4993E717005CC931
:1011400082801C41BD9B55BF1C4193E717001CC109
:1011500082802310050023110500231205002313AC
:101160000500231405002315050082808547638E42
:10117000F50881C989476389F5128D476387F51C96
:1011800082801C51F99B1CD1185183570600D98FBE
:101190001CD11C51F59B1CD1185183574600D98F87
:1011A0001CD1B7370140138707C0631CE5041851F1
:1011B0006D9B18D1145103572600558F18D1185123
:1011C0005D9B18D1145103576600558F18D103A7A2
:1011D00047C01377F7EF23A2E7C083A647C00357A2
:1011E0008600558F23A2E7C003A747C01377F7DF18
:1011F00023A2E7C083A647C00357A600558F23A2AA
:10120000E7C01C4DF19B1CCD82801C51BD9B1CD1A5
:101210008357060018519207D98F1CD11C5193F7A0
:10122000F7FD1CD18357460018519207D98F1CD166
:10123000B7370140138707C06314E50618511377C9
:10124000F7FB18D10357260014511207558F18D1F8
:1012500018511377F7F718D1035766001451120786
:10126000558F18D103A747C01377F7BF23A2E7C054
:101270000357860083A647C00A07558F23A2E7C0FD
:1012800003A747C0FD769386F67F758F23A2E7C03C
:101290000357A60083A647C00A07558F23A2E7C0BD
:1012A0001C4D93F7F7CF85B71C5193F7F7EF1CD17F
:1012B000835706001851A207D98F1CD11C5193F7F0
:1012C000F7DF1CD1835746001851A207D98F1CD1D4
:1012D000B7370140138707C06315E5061851137728
:1012E000F7BF18D10357260014512207558F18D184
:1012F0001851FD769385F67F6D8F18D103576600E0
:101300000C51FD1622074D8F18D103A747C0F98E47
:1013100023A2D7C00357860083A647C01207558F64
:1013200023A2E7C003A747C0F976FD16758F23A255
:10133000E7C00357A60083A647C01207558F23A214
:10134000E7C05C4DF19B5CCD82801C517D777D17A1
:10135000F98F1CD1835706001851B207D98F1CD1C1
:101360001C5179777D17F98F1CD18357460018518E
:10137000B207D98F1CD1B7370140138707C063115B
:10138000E50203A747C0F176FD16758F23A2E7C0DB
:101390000357860083A647C01A07558F23A2E7C0CC
:1013A0005C4D93F7F7CF45B785476382F50281C956
:1013B00089476386F5028D47638BF50282801C4D59
:1013C00093F7F7F81CCD1C4D5D8E10CD82801C4D1F
:1013D00065777D17F98F1CCD1C4D2206F5B75C4D46
:1013E00093F7F7F85CCD5C4D5D8E50CD82805C4DFF
:1013F00065777D17F98F5CCD5C4D2206F5B7854783
:10140000638CF50081C98947638AF5008D4763893C
:10141000F500828050D9828010DD828050DD82808C
:1014200030C1828085476381F50281C9894763861F
:10143000F5028D47638AF50282801C4DDD9B1CCD31
:101440001C4D5D8E10CD82801C4D7D771307F77F7C
:10145000F98F1CCD1C4D2206EDB75C4DDD9B5CCD9C
:101460005C4D5D8E50CD82805C4D7D771307F77F9C
:10147000F98F5CCD5C4D2206EDB75C45DD8D4CC52A
:1014800082805C4508496D8D09C533F5B700333559
:10149000A000828093C5F5FF0CC98280B717024077
:1014A0009843B706FFE0B1061367170098C3D84307
:1014B000758FD8C39843B706F7FEFD16758F98C38E
:1014C0009843B706FCFFFD16758F98C3D843B7063F
:1014D00001DFFD16758FD8C323A607029843B70610
:1014E000F7EAFD16758F98C33707FF0098C7944336
:1014F0004167D98E94C39307F7FF3717024014430F
:101500001396E60063440600FD17F5FBB71702408B
:1015100098439316E70063C3060001A0D843B706BB
:10152000C4DFFD16D8C3D843D8C3D84313670740D8
:10153000D8C3D843758FD8C3D843B7062920558F51
:10154000D8C3D857BD76758FD8D7D857C16693867C
:1015500016F1558FD8D79843B7060004558F98C316
:10156000B7170240984393164700E3DD06FE984301
:10157000B7060010558F98C3B717024098439316CB
:101580002700E3DD06FE9843B7060001558F98C398
:10159000B7170240984393166700E3DD06FED84371
:1015A000719BD8C3D84313672700D8C337170240AD
:1015B0005C43A18BF5DF8280371702405C4337061E
:1015C0000020854689838D8B130606506386D700DD
:1015D00081C789466388D700B7177A0093870720A9
:1015E0001CC282805C439396F70063DB06065C575F
:1015F0009396F70063D106065C5758579183BD8BCD
:101600002183938617009377F70013872700C54738
:101610006313F7005147B7177A0093870720B3D7B2
:10162000D702B387E7023717024058573D8B0507AB
:10163000B3D7E702B7160240D842D4424983939504
:1016400026003D8B63D305021367070105073307A7
:10165000F70218C28280B7177A0093870720E1B794
:10166000B7173D0093870790F1B7BD46E300D7FE5B
:101670000907E31ED7FC19473387E7028583BA972A
:1016800085B77971B705000822D47D462A849385F1
:1016900005290A8506D697500000E78000037946A1
:1016A0008A85094597500000E780003EA2850945DC
:1016B00097000000E7808009B7050008054693857C
:1016C000052C094597500000E780003C01A07D559E
:1016D0008280011106CE2EC697500000E780403A66
:1016E00001C9B24589670145DCC1F24005618280CC
:1016F0007D55E5BF7D15133525008280411106C655
:1017000097500000E780C037B2401335150033050D
:10171000A040410182807D55828037070020130759
:1017200047501C43B7260020938686BB3E95636BCB
:10173000D500B77600209386060063E5A60008C3AF
:101740003E858280FD57EDBF79714ECEAE89B705DB
:10175000000809469385052B22D426D24AD052CCC4
:1017600056CA06D62A89714497500000E780C031D6
:101770003D4AA54AF154B3178A00B3F73701B3D7EE
:10178000870093F7F70F63ECFA029387070393F749
:10179000F70F05469305F1004A857114A307F10080
:1017A00097500000E780402EE31794FCB25022547B
:1017B00092540259F249624AD24A45618280938723
:1017C0007703F1B7B70700D1D8438843CC43E39DF3
:1017D000E5FE8280B70700D223800700A3850700BB
:1017E0001205B71700D23E9563E3A700828023A0BD
:1017F0000700C107D5BFB71700D285070A053E9578
:1018000085472300F5008280370700D28347070011
:101810000605798993F7170E5D8D2300A700828056
:10182000B70700D203C5070005813D8982804111B9
:1018300022C426C206C62A84AE8497000000E78030
:1018400060FE9147114763E3A7002A87371500D24E
:101850000A040D052295834705009376F70FA145ED
:10186000B397E70093F7F70F958DB394B400B3D710
:10187000E740C58F93F7F70F2300F500B2402244ED
:10188000924441018280011122CC2EC606CE2A84C8
:1018900097000000E78000F98D47814563E9A702C2
:1018A000371700D20A040D07229783470700B24575
:1018B000A1463385A6409205B3D7A74093F5F50F0F
:1018C000B397A700CD8F93F7F70F2300F700F240EF
:1018D00062442E8505618280F327503093F707FC20
:1018E00093E73700739057308280B70500084111A5
:1018F00015469385452B054506C697500000E780A1
:10190000A018054597000000E780E0D741119347F4
:10191000F5FF22C406C6139747012A8409E79700FA
:101920000000E780C0FCB705000815469385C52B6D
:10193000054597500000E78020152285970000009C
:10194000E78060D4411106C697000000E78040B5EB
:101950001305700597000000E78000E8970000007D
:10196000E780C0F7B240410117F3FFFF6700E38D46
:101970008280411122C4370400201304040093051F
:10198000C40306C626C2AA8497400000E78060C050
:1019900093055403268597400000E78080BF930598
:1019A0005402268597400000E780A0BEB240224442
:1019B000924401454101828041119305100806C6F9
:1019C00022C42A8497400000E78040C68D452285C6
:1019D00097400000E78080C5228593052008974046
:1019E0000000E780A0C4B24022440145410182804A
:1019F000411106C691E997000000E780A0128947CF
:101A0000B2403E85410182808D468947E39AD5FEEA
:101A1000B70700200547238AE75097400000E7807A
:101A2000E0D4B707002023ACA75EB707002003A7C8
:101A3000C75F814771D702978147D9B70547639D33
:101A4000E5020327050F8357850EB377F70291EF61
:101A500009CF41118146014606C697400000E78044
:101A600080C4B240014541018280B707002005478C
:101A7000A38AE750014582800945828083C715000B
:101A8000130710026386E70213072002638FE7063D
:101A900013070002639CE700370700202324F75058
:101AA000B717002093874792232AF52601458280A5
:101AB000370700201307C7501443B7170020938738
:101AC000479213D686002380D700A380C70013D681
:101AD0000601E182A381D700834647002381C70026
:101AE0002328F50C2382D70083465700034767005D
:101AF000A382D7002383E70083C7750003C765006F
:101B0000A207D98F232EF50C55B783C7350003C71D
:101B10002500A207D98F370700202320F76079B767
:101B2000B7050020938585509C411305F00F63860F
:101B3000A704B717002003C6579283C647923707FA
:101B400000202206558E83C667921307C75088C1AE
:101B5000C206558E83C6779293874792E206D18E4E
:101B600014C383C647002302D70083C6570083C728
:101B70006700A302D7002303F70001458280797133
:101B80004AD04ECE5AC806D622D426D252CC56CAF5
:101B90005EC662C466C22A8B97000000E780C0C29E
:101BA000AA892E8997000000E78000C2AA842E84AB
:101BB0006394A900E308B9FEB707000803A9073733
:101BC00083A94737B70B002097000000E780C0BF0C
:101BD000AA87058DB3B7A700818D9D8D97800000E2
:101BE000E78020002A8A03A50B50AE8A9780000068
:101BF000E780C0F94A86CE8697700000E780C0E093
:101C00002A8C5A85AE8C97800000E78020F82A86BF
:101C1000AE866285E68597700000E780C0472A8619
:101C2000AE865285D68597700000E780803CE34DF4
:101C300005F8B250225492540259F249624AD24AEB
:101C4000424BB24B224C924C45618280411106C6F8
:101C500022C426C2894723020500A300F500230001
:101C6000C50011CA0547630BE6080545B24022448A
:101C700092444101828031472301E5001947A301C5
:101C8000E500A302F500B7040440AE87054723032F
:101C9000E500A303E5002A841306C00B81453E85B9
:101CA00097500000E780C0A3056793060780A696BB
:101CB00054C19386044014C59386044434DD9306CE
:101CC00007E0A696232CD50A04C1834534001307E8
:101CD0000790AA8726979306C5000146636BB60254
:101CE000034624000567938604509387C703BA947C
:101CF000856501476368C70201458DBF2147230100
:101D0000E5001147A301E500A302F500B704005068
:101D1000ADBF1305072098C288CE0506130707023A
:101D200091066DBF94C3A4C305079386060291076D
:101D3000AE94C9B71C4201112EC6985F98478346DE
:101D4000D10022CC799B06CE26CA98C72AC4054763
:101D500032846395E6063707100098DFD847B70648
:101D6000E0FF9386F6FB758FD8C7D847B706F0FF1C
:101D7000FD16758FD8C7984B1367170098CB984BF3
:101D8000058B75FF0D4597200000E7802060034715
:101D9000C1008547631EF7001C4098471367070280
:101DA00098C79847059B98C798471367A70098C797
:101DB000F2406244D244014505618280D84793D401
:101DC000050193F4F40F13670704D8C7984B136702
:101DD000170098CB984B058B75FF0D459720000099
:101DE000E780C05AB7072D0099C0B7073D001840DB
:101DF00051451CDF97200000E780C05949BF71069C
:101E00000A062A968D06898250468A06AE96639403
:101E1000B6000145828003C7150083C70500910500
:101E200022075D8F83C7E5FFC2075D8F83C7F5FF7C
:101E3000E207D98F1CC2E1BF0D060982785D0A0650
:101E40002E966394C5002E8582801C43910593D6FF
:101E50008700238EF5FEA38ED5FE93D60701E1837E
:101E6000238FD5FEA38FF5FEE9BF184141119A05D6
:101E700006C693E505020CCB1C4B93F70702EDFF5A
:101E80000D4597200000E7806050B24001454101B8
:101E900082801841411106C6C1471CCB1C4BC18B27
:101EA000F5FF0D4597200000E780404EB240014508
:101EB000410182801C457D57D8C3370700C07D177C
:101EC000D8CB371700801307078098CF034745000A
:101ED00009E7984F1367070198CF984FB7360C0062
:101EE000A906558F98CF984701451367170098C7E3
:101EF00082801C45B70600A04111D847FD1622C4B8
:101F000006C626C2758FD8C7D847B706004079766F
:101F1000558FD8C70327050C1306F67F2A84232084
:101F2000070058451443F18E14C3144314C31443DB
:101F3000F19A14C3034605008546631AD60214437A
:101F400093E6360014C313070008D8D337074000C0
:101F50001307070898D7370780001307070C23A239
:101F6000E7101307001423A4E71023A6E710930437
:101F70008400C145268597000000E78040EF268554
:101F800097000000E78020F15C447D57814623A83C
:101F9000070023AA070098CF23AE070003483400A8
:101FA00013074401B70500481305F00F63ED060160
:101FB000228597000000E78020F0B240224492443E
:101FC0000145410182801C439043635506029043C2
:101FD0004D8E90C323A8070088C71C4F9043635EB3
:101FE000060090434D8E90C323A8070088C785063E
:101FF00011076DBF23A00700F1BF23A00700EDB7B5
:1020000058455C4393E727005CC3828058455C4396
:10201000F59B5CC382805C45920598431377F780FB
:1020200098C39843D98D8CC38280984183870500DB
:10203000411102C63D8B63D9070693172700AA9763
:10204000DC4B8546B396E60036C69443504513955F
:102050000601634405049443370534FC13050580E9
:10206000E98E94C329EF144603A8070013F5660010
:10207000B7B60008938606A1AA9683C60600B3E603
:10208000060194C383C6150088435A07CA06558FB4
:10209000498FB7860010558F98C332475C4E014573
:1020A000D98F5CCE41018280930787008A07AA9767
:1020B000130607018546DC47B396C60071B788430F
:1020C00083D64500C98E75BF9C4103870500BD8B33
:1020D0006355070205473317F7008A07AA97D04BC5
:1020E0001C42E176FD16F58F1CC25C451347F7FFD5
:1020F0000145D44F758FD8CF828093860701A10701
:102100008A070547AA973317D700D047D1BF904118
:102110000111B70600E03D8A93172600AA97D84B15
:1021200006CE1C433EC41C4B3EC6B247F58F3EC68E
:10213000DC45A5E7B247B7060800D58F3EC6B247D3
:102140001CCB8346450085476394F6009C4D5CCBD1
:1021500003C815008547631CF8005C459C4793F74E
:102160000710B5CFA247B7060020D58F3EC4A247BF
:10217000B7060084D58F3EC4A247D4451CC385470B
:102180006303F80699C658453396C700545B558ECD
:1021900050DBF24001450561828083D645001DE693
:1021A00063F3F600B687DCC5B247B7060800D58FE3
:1021B0003EC6B247D445D58F83C615003EC6854777
:1021C000E39FF6F6B247B706006085BFFD17B697E6
:1021D000B3D7D7023248CE07B3E70701D1BFA24732
:1021E000B706001059B78C45C206C1822105970079
:1021F0000000E78000C171BF9841D4453D8B930733
:1022000087008A07AA9783A8C700B70700E003A63C
:10221000080003A808013378F80083D7450091C26D
:1022200039E33368F800B7070800B3E7070123A8CC
:10223000F8000347450085476315F7009C4D23AA26
:10224000F80003C7150085476318F70083C73500FA
:102250009DC7B70700205D8EB70700845D8E23A061
:10226000C800014582801387F6FF3E973357F70277
:102270009316370133E80601B307F7027DB7B707B6
:102280000010D1BF9C4103870500BD8B635407023A
:102290008A07AA97DC4B9843635707009843B70611
:1022A0000040558F98C39843B70620000145558FCD
:1022B00098C38280A1078A07AA97DC47EDB79C41A3
:1022C00003870500BD8B635A07028A07AA97DC4B78
:1022D0009843B706E0FFFD16758F98C303C7150036
:1022E000854679171377F70F63E7E6009843B7063B
:1022F0000010558F98C301458280A1078A07AA97CD
:10230000DC47F9B75C45884FDC4F7D8D4181137503
:10231000F5038280A1058A05AA95DC4598475C45AE
:10232000C84B798D82805C45884FDC4F7D8D13755D
:10233000F50382805845144B5C5B139725003A9552
:102340005849B3D7B7009E07084793F7F70FD58FC3
:102350007D8D82805C5537070860610798CB834686
:1023600045000547639AE60013054542C8CB9843EC
:10237000B7860080558F98C382808347750091CBC4
:102380005C459C47858B91C70327050C1C43F19B3B
:102390001CC382801C45D84B058B631C071241115E
:1023A00026C2C44B9C4F06C622C44AC0FD8C638C17
:1023B00004109397C4002A8463D607009700000096
:1023C000E78080119397D40063D707002285970098
:1023D0000000E780402085679387078033F7F4008B
:1023E00019C318445CCB63DC04008347740C3707C3
:1023F000008093F7F70F2303F40C1C44D8CB93F71A
:10240000240081C71C440947D8CB93F78400B1C787
:10241000832704439C4F99C3228582973709002064
:10242000130949608347090093F7F70F85C783476E
:1024300009000947850793F7F70F2300F900834741
:1024400009006379F700228597400000E780A09A91
:10245000230009001C442147D8CB93F7040191C7FE
:10246000228597000000E780C0229397340163D74C
:102470000700228597000000E780002E9397240133
:1024800063D70700228597000000E780003A939702
:10249000B40063DC070083270443DC4F99C3228523
:1024A00082971C4437071000D8CB9397A40063DCB5
:1024B0000700832704439C5399C3228582971C44B9
:1024C00037072000D8CBB240224492440249410150
:1024D00082808280397122DC26DA4AD84ED652D4E4
:1024E00056D25AD05ECE62CC06DE66CA2A84370A3D
:1024F000080097000000E78020E12A898144B70A9C
:102500000020214B8549994B614C7D1A63100902CB
:10251000F2506254D2544259B259225A925A025B32
:10252000F24B624CD24C05452161828093771900B1
:10253000C9CF93FCF40FE685228597000000E78061
:10254000A0DD2AC4A247858BA1CF93972400A29730
:10255000D8572324370183464400639F3601184B24
:102560003AC633878403B246B3F64601BA9703D717
:102570000727158F23AEE726E685228597400000C2
:10258000E780A09083474400639C370191E883472C
:10259000C44263977701228597000000E780C0DB83
:1025A000A247A18B9DC395E0938C4A6083C70C0022
:1025B00093F7F70F99CB228597400000E780A0831F
:1025C0005C5423800C0023A467011359190085046F
:1025D00035BF797122D426D24AD04ECE52CC56CABB
:1025E00006D65AC82A8497000000E78000D42A89BA
:1025F0008144130A00088549954A631D0900B250B9
:10260000225492540259F249624AD24A424B054539
:102610004561828093771900BDC713FBF40FDA85FB
:10262000228597000000E78020D12AC6B247858B1B
:102630009DCB93972400A297DC4BDA85228523A4B7
:10264000370197400000E780A09283474400639CD5
:10265000370191E88347C442639757012285970069
:102660000000E78060CFB24793F7070889CFA685BF
:10267000228597000000E780C02193972400A2974D
:10268000DC4B23A44701135919008504BDB71C4531
:10269000011102C6984F22CC26CA4AC83D9B06CEDD
:1026A00098CF9C5389462A893EC63244B244324769
:1026B000B24791803D88C583BD8B93F4F47F6382DC
:1026C000D70299466387D70403278900F240624402
:1026D0001C4FD244424993E707011CCF05450561D1
:1026E0008280FDD0F1473304F40226862A948325A4
:1026F0004427210597F0FFFFE78040748327442794
:10270000A697232AF4268327C427BE94232E942633
:1027100065BFF1473304F4023D830D8B2A94834750
:10272000C426BD8BD98FCDF3A147E39FF4F8930561
:1027300045422146210597F0FFFFE780207083275F
:10274000C4270547A107232EF426B70700202382BC
:10275000E7609DBF5845411122C45C4306C626C2AE
:10276000F99B4AC02A845CC38145210597F0FFFF8D
:10277000E780E06F03463400930744010147930666
:10278000F00F636BC7085C447D57854498CF416761
:102790000507D8CF2547D8CB84CB9843228513098A
:1027A00000041377F78098C3A302040C970000007D
:1027B000E78080BA1C4405677146D8CB9307C426CE
:1027C0003E85814597400000E78080F1AA85231867
:1027D0002427228597000000E78060859307840CFA
:1027E000714681453E8597400000E78060EF130702
:1027F00000F82316240D2304E40CAA8522859700F3
:102800000000E780C082B2402303940C224492442B
:1028100002490545410182808C430507910794C513
:10282000CC4B94C5B9BF5C4571761306F63F98470B
:10283000D443058393F6F6EFD4C3D44393E606104E
:10284000D4C31C45D447F18ED4C79376370037B72D
:102850000008130747A13697034707008D46631EFC
:10286000D700A300E500D847896693860640558FB8
:10287000D8C70967D8CB054582800947A300E50082
:10288000D847856693860640558FD8C7DDB7F14790
:10289000B387F50279714ECE06D622D426D24AD01D
:1028A00052CC56CA5AC8AA9703A7470D83A6870DCC
:1028B00083D7C70C5EC662C4158FAA896373F700FD
:1028C000BA87714433848502854A8D07B39ABA006A
:1028D000139B2500C16B13DA270093CAFAFF4E9BA6
:1028E000FD1B4E9413F9F50F138C890083274B01C0
:1028F000984F337777016378EA000327840D8327A5
:10290000440D636FF700B250225492540259F249B9
:10291000624AD24A424BB24B224C05454561828005
:102920008354C40C998F63F39700BE848325040DF0
:102930009396040193873400C1824A86628513DA34
:10294000270097F0FFFFE780C04B8327840D032704
:10295000040D2697BE948327440D2328E40C232CD2
:10296000940CE395F4F883A7C900D85B337757013B
:10297000D8DBADBF39713ECCB707002083A7876095
:1029800006DE16DCDC4F1ADA1ED82AD62ED432D256
:1029900036D03ACE42CA46C872C676C47AC27EC023
:1029A0008297F250E2525253C2533255A2551256F8
:1029B00082567247E2475248C248324EA24E124FE8
:1029C000824F21617300203039713ECCB70700205F
:1029D00083A7876006DE16DC83A7070E1ADA1ED8E7
:1029E0002AD62ED432D236D03ACE42CA46C872C681
:1029F00076C47AC27EC08297F250E2525253C253DA
:102A00003255A255125682567247E2475248C24882
:102A1000324EA24E124F824F216173002030397125
:102A20003ECCB707002083A7876006DE16DC83A7AD
:102A300047111ADA1ED82AD62ED432D236D03ACE40
:102A400042CA46C872C676C47AC27EC08297F25025
:102A5000E2525253C2533255A25512568256724711
:102A6000E2475248C248324EA24E124F824F216175
:102A7000730020308347350003472500A207D98F14
:102A800003471500A20703450500D98FA2075D8DF6
:102A9000828093D785002300B500A300F50093D76B
:102AA0000501E1812301F500A301B5008280AA8719
:102AB0002A968507850503C5F7FF03C7F5FF198D1E
:102AC0006383C7007DD582805849F915791763F96A
:102AD000E5008357A5000855B387B7023E9582806D
:102AE000014582801C418DC33E8793050002130679
:102AF000A00305078346F7FF63F2D502E39BC6FEFA
:102B0000938627006304D700FD5711A803C607006A
:102B100093060003FD576314D60018C181473E8514
:102B2000828001ED814725459CC1828025458147F2
:102B3000F24062449CC1056182801C41011122CC9B
:102B400006CE2A84E5D703C707006DD38356450018
:102B500003D76700E39CE6FC03C517002EC6972049
:102B60000000E780C02C0589B24569F11C40C9B757
:102B700081473387F500834607003307F500850753
:102B80002300D700E317F6FE828083C7B50103C791
:102B9000A501A207D98F0D47631AE50003C75501A8
:102BA00083C645012207558F4207D98F3E85828013
:102BB000411122C426C24AC006C613090503505556
:102BC0002A84034515008546CA8597200000E780C2
:102BD000603185440DE950541C50184CA301040089
:102BE000B307F640AA8463F0E702834624008947CE
:102BF000639BF6000345140085463A96CA859720E4
:102C00000000E780202EB2402244268502499244EB
:102C1000410182805C556384B704411122C426C2FD
:102C200006C6834735002A84AE8485E30345140035
:102C3000854626869305040397200000E7806020E0
:102C400019C10545FD5444D431A097000000E78028
:102C500060F669DDB2402244924441018280014520
:102C60008280411122C406C6FD575CD5A301050030
:102C70002A8497000000E78020FA91473DE503474A
:102C8000F4228347E422ED7622075D8F42074187D5
:102C9000938656A58D47631AD70483470403130709
:102CA000B00E6389E700E10713F7F70F8546894700
:102CB00063EDE602B70500080D46938585371305D9
:102CC000640697000000E780C0DE814719CDB70594
:102CD000000815469385C5371305240897000000A2
:102CE000E78020DDB337A0008607B24022443E854E
:102CF0004101828039714AD806DE22DC26DA4ED6BE
:102D000052D456D25AD023A0050032892EC697003D
:102D10000000E78060DDAD4763420504370700200F
:102D2000931725001307C760BA978043AA84B14759
:102D300015C4B2451379E90F80C18347040095CBD0
:102D40000345140097200000E780600E937715007C
:102D50008DE363050900118911C1A947F25062543E
:102D6000D2544259B259225A925A025B3E8521618D
:102D7000828013F5F40F23000400A300A400972021
:102D80000000E78000E3137715008D4761FB6304C3
:102D90000900118979F18145228597000000E780BB
:102DA00080EC8947631FF50404081309641F130AA4
:102DB0006423A6898347C9FF014591C74A859700C7
:102DC0000000E78060CB23A0A90041099109E3132B
:102DD0002AFF13890401854903AA04000D45630AEB
:102DE0000A00D285228597000000E780C0E763F3E0
:102DF000A9029104E31299FE11478547631AE50081
:102E0000B1BF11478547E30BE5F4014A63F4A7001E
:102E1000B547A9B78347C4030347B403A207D98FB3
:102E2000C207C18713070020E394E7FE83497404B7
:102E300083476404A209B3E9F90063990900130503
:102E4000440597000000E78020C3AA898344040456
:102E5000232C340105479387F4FF2301940093F753
:102E6000F70FE367F7FA0349D40393170901C18306
:102E70002315F400D1DF9307F9FFB3F72701C9FB4E
:102E800083472404834A1404A207B3E75701939AA3
:102E9000070193DA0A41139B0A01135B0B01231408
:102EA00064019377FB00ADF7034544048347340482
:102EB00022055D8D19E51305040597000000E780E4
:102EC000A0BB8347F4030347E403A207D98FA9D328
:102ED000B386340313574B003E973697E36AE5F207
:102EE000198DB3542503E36525F3370600105516F5
:102EF000E36096F241665516637996120D49529732
:102F00008904D29718D444C8232E44011CD00D47FD
:102F1000631EE90E8347B4050347A405A207D98FB2
:102F2000B3E7FA00C207C187E39407EE1305C405AF
:102F300097000000E78040B448D08A049384F41FCF
:102F4000A580E3E799ECFD571CC85CC4930700F823
:102F50002302F4008D47631AF908834714060347D8
:102F60000406A207D98FC207C1870547639FE706FA
:102F700093051A00228597000000E780E0C935E537
:102F80008347F4220347E42223020400A207D98FD7
:102F9000C2076D77C187130757A56398E704130528
:102FA000040397000000E78020ADB7576141938785
:102FB0002725631CF5021305442197000000E780D4
:102FC000A0ABB7774161938727276310F5021305FC
:102FD000842197000000E78020AA08C81305C421B7
:102FE00097000000E78040A948C437070020130776
:102FF000076183570700230024018507C207C183A7
:103000002310F7002313F400814789BBE3020BE090
:10301000B6975CD089476314F900860405B73387F7
:10302000E40285880583BA9411BF056955193339BF
:1030300099000509E9B501114EC652C406CE22CC4D
:1030400026CA4AC856C25AC0054A89496374BA0A90
:103050005C492A89894963FFF508834705000947C8
:10306000B2842E84638AE70A0D476380E70E639378
:10307000470913DA15001C512E9A93559A00BE95F4
:1030800097000000E78040B9AA892DE5930A09035B
:10309000130B1A000588137AFA1F569A93F7F40F48
:1030A00009CC83470A008566C11613F7F70093978A
:1030B0004400F58FD98F93F7F70F2300FA00854767
:1030C000A301F9008327090293559B004A85BE9509
:1030D00097000000E78040B4AA8909ED137BFB1F2D
:1030E000DA9A05C4918093F4F40F23809A008547FF
:1030F000A301F900F24062444E85D2444249B249EC
:10310000224A924A024B0561828083C70A00A1804D
:10311000BD88C19BDD8CD1BF1C51A181BE9597009C
:103120000000E78060AFAA8971F5060493070903E0
:103130001374E41F3E9423009400C204C180A18054
:10314000A3009400A301490175B71C519D81BE9550
:1031500097000000E78040ACAA8949FD0A04930764
:1031600009031374C41F3E94228597000000E78072
:10317000A0909204B70500F09180E98DC58D22855D
:1031800097000000E780209175BF854763F7B70E71
:103190005849011122CC06CE26CA4AC84EC62A84F6
:1031A00063FAE502034705008946AE84630CD7063F
:1031B0008D46630ED708631FF70013D915001C5105
:1031C0002E9993559900BE9597000000E780C0A402
:1031D00011C9FD57F2406244D2444249B2493E858A
:1031E000056182801C509309190093D599001379C9
:1031F000F91F2299BE952285034909039700000013
:10320000E78080A179F593F9F91F4E948347040371
:103210008588A207B3E7270199C0918365BFD207CC
:10322000D1834DBF1C51A181BE9597000000E7805E
:10323000A09E45F186041304040393F4E41F26942E
:103240008347140003470400A207D98F61B71C51BC
:103250009D81BE9597000000E780009C3DF9139585
:103260002400130404031375C51F22959700000062
:10327000E7808080931745004DB785473E85828063
:10328000011126CA4EC652C406CE22CC4AC856C226
:103290005AC02A8AAE89044191E903A9C400630592
:1032A0000900DC486360F90405492DA826859700CC
:1032B0000000E780C0ED85472A8463EEA70005443F
:1032C0002285F2406244D2444249B249224A924A9B
:1032D000024B05618280FD576303F50CDC484E8983
:1032E000E360F5FE9C4899E30144D9BF631D3903AF
:1032F000DC48130419006363F400094403250A0041
:10330000A28597000000E78080E80547E309E5FA19
:10331000FD576306F50829C1DC446376F700D848F9
:1033200063F3E7003E894A84854A7D5BDC480504F7
:103330006365F400E3FA2AFB094403250A00A28529
:1033400097000000E780A0E409C9E30A55F7630885
:103350006505E31D24FD49BF79D47D56A2852685E8
:1033600097000000E78060CD05E9639F0900D84819
:103370009C48C0C479176376F70283C7440093E77B
:1033800017002382F4002DBF2286CE852685970064
:103390000000E78080CA61DD8547E312F5F27D54C5
:1033A00005B7FD179CC8D1BF797152CC032A05011E
:1033B00022D406D626D24AD04ECE56CA5AC85EC6A7
:1033C000130A0A02B707200000416364FA00232CA5
:1033D0000500184D914705C7137BFA1FAE8AAA84D2
:1033E000631D0B0C4C49050718CD95E50357840068
:1033F00093575A0063E3E70C23AC04009147B250A3
:10340000225492540259F249624AD24A424BB24B78
:103410003E85456182808359A40093579A00FD1927
:10342000B3F9F900639B0908228597000000E78043
:1034300000D6854B2A8963E4AB008947C9B7FD579D
:103440006314F500854765BF5C48636FF504E38549
:103450000AFACC48268597000000E780A0E22A8976
:103460009D4751DDE30B75FDFD57E30DF5FC8347EB
:103470003400A1EFCA85228597F0FFFFE780006541
:10348000930A0403AA8B48D413070423D68785071D
:10349000A38F07FEE39DE7FE8357A40063EEF902C6
:1034A0008357A400E390F9FA23AA2401CA85228550
:1034B00097F0FFFFE780806188CC130404035A94DF
:1034C00023A84401C0CC81471DBF228597F0FFFF90
:1034D000E780406E25F979BF0345140085463386A1
:1034E0003B01D68597200000E780C09F55F98509EC
:1034F00065B701114AC80329850022CC26CA06CE29
:103500004EC652C423280500AA8400416311090451
:1035100003470400894763F4E7005C5085EB835759
:10352000840091EB0945F2406244D2444249B249D9
:10353000224A056182805C509CCC9C4C23AA2401C9
:10354000F5D313040403C0CC0145F1BF3E89835772
:10355000A400FD59054A85E38840CA85970000000C
:10356000E780E0C22A8963003503E37DAAFA5C485C
:10357000E364F5FE45BFCA85228597F0FFFFE7802B
:10358000E05488CC5DBF054579BF79712AC66808CB
:1035900006D62EC432C22ECE97F0FFFFE780C0546D
:1035A00063410504B70700201387C7600A052A97FF
:1035B00018439387C760124619C323000700324798
:1035C00019C323000700AA9798C3014501CA014601
:1035D0006C00280097F0FFFFE7800072B250456151
:1035E00082802D45E5BF1971D2D486DEA2DCA6DA31
:1035F000CAD8CED6D6D2DAD0DECEE2CCE6CAEAC877
:10360000EEC62EC6254A630A054A9379F603328927
:10361000AA844E860C08680097F0FFFFE780C06D13
:103620002A8A2A84631B0530C24A324D9306F0026F
:1036300056CA1307C00583470D00638DD70E638BF1
:10364000E70E02CE03470D00FD4763F7E70E130CAC
:10365000F101130B0002930BF002B70C00085C0899
:10366000238067038507E31DFCFE01470146A14552
:103670001305C0051308E002AD481303D007654EDB
:10368000930EF003130FE007B307CD0083C70700C5
:10369000930616006370FB02638477016397A71A91
:1036A0009305C0053306DD0003460600630D761959
:1036B000630BB618369D630E071883464103130744
:1036C000500E6395E6001547230AE1021147637324
:1036D000FB0001474808A30FE102D24D970000000C
:1036E000E78060E12A846316051EB2556E8597F067
:1036F000FFFFE78060522A84631D051C4255834703
:1037000005006387071C8347B50013F7F703230DF4
:10371000E100A18B89EB2D464C1897F0FFFFE78065
:1037200040396308051A8145480897000000E78082
:10373000E0C74DBF050D01B7930700F84808A30F78
:10374000F10297000000E78000DB2A846302051C79
:103750009377C901638507286305041E9147631E9B
:10376000F41C4808524997000000E780C0D82A841A
:103770006311051C930A500EB2554A8597F0FFFF5E
:10378000E78080492A846316051AC25783C7070059
:1037900063965719B2554A8597F0FFFFE780C047F7
:1037A0002A84631C0518C257138707028507A38F55
:1037B00007FEE31DF7FE42552D464C1897F0FFFF1C
:1037C000E780403B8547A301F90093E98900C247A0
:1037D000425403C50700A28597F0FFFFE780203B16
:1037E0002A8997100000E78000A9AA851305E40044
:1037F00097F0FFFFE780202AC257130700028D468B
:10380000A385E700C2574247238D0700A38D070019
:10381000034607006316D600238A0700A38A070021
:10382000C257238E0700A38E0700238F0700A38FA4
:1038300007008547A301F7006300091CD24A63EF24
:1038400027110944DDA88506B1BD638C072B63648D
:10385000B7001944F5BD938FF70793FFFF0F636718
:10386000F305EA9683CF06000906E3F4FEFF93F61C
:10387000FF07E360DFFE9386F5FFE37CD7FC800063
:1038800093061700B302E400238AF2FEB687A297DC
:103890000907238AF7FFB2863686FDB30506834FF4
:1038A000060063880F00E39BF7FF65B713864C386B
:1038B000FDB71386F7F91376F60F6365CE0081170F
:1038C00093F7F70F90003A96230AF6FE0507E9B73B
:1038D00011448347F10309C81147E31BE4E6918BC8
:1038E000E39807E61544ADB5918B9DE38347A101AD
:1038F000C18BEDDB925703C50A0093850A0393F74A
:10390000F71FBE9597F0FFFFE78060282ACE81BBA6
:103910008307F1030144E3DD07E225BFE38C07E6FB
:103920008545480897000000E78040A82A84E30501
:1039300005E491476313F4001D4423A00400228A88
:10394000ADAA8347A101C58BE5FB93774900639638
:10395000071A137989006301090A95BD83A74A01F3
:10396000E371F9EE832BC7024A84054CFD5C524596
:10397000A28597000000E78080812A8B21C5E302A1
:1039800085ED6314950105444DBFA285014656851A
:1039900097F0FFFFE780606A2A8445F103A74A0198
:1039A00083A70A019306E7FF63FBD700850723A8D7
:1039B000FA0083C74A0093E717002382FA005A846B
:1039C000E367EBFA4245DE857D1997F0FFFFE7805C
:1039D000A024C2472A8423A6270119CDB9BF31FCF0
:1039E0008347A10113F70701631B0710137929000F
:1039F00063040900858BA9F393F7890099C393E9C0
:103A0000090442444259938A84025C5423A2240349
:103A1000CA859CD00345040097F0FFFFE78020177C
:103A200088C41305C90197F0FFFFE780E0048357BE
:103A30006400C8C480C02392F40023883401A388A2
:103A4000040023AE040023AA040013878422D6872F
:103A50008507A38F07FEE39DE7FE93F90902638EB6
:103A6000090403A9C400630A09040354A4008C4494
:103A700023AA2401260485497D5B63602407014451
:103A80008CCCE31C04EA9377F91F85CB4244228552
:103A900097F0FFFFE7808003E30505DA13599900EB
:103AA0003306A900D0CC034514008546D68597106F
:103AB0000000E7800039E31805ECF65066545285A3
:103AC000D6544659B659265A965A065BF64B664C5A
:103AD000D64C464DB64D09618280884033098940F5
:103AE00097F0FFFFE780A06AAA8563F6A900E316B6
:103AF00065F9054471B7094461B721443DBD1144DE
:103B00002DBDE38815D52147AD4579B31D71A2CCF4
:103B1000CAC8CEC6D2C4DAC086CEA6CAD6C25EDEB7
:103B200062DC66DA6AD86ED62E8A23A006006C089C
:103B30002A843289368B97F0FFFFE780C0FEAA897E
:103B400039E5834914016394090483470401898B8F
:103B50006380071C5C48338727016374F70013C92F
:103B6000F7FF930B0020930A8402130CF01FFD5CF7
:103B700039A20C4C228597F0FFFFE780A0706316F6
:103B800005128347040193E707042308F400F64075
:103B900066444E85D6444649B649264A964A064B5F
:103BA000F25B625CD25C425DB25D2561828063172C
:103BB00095018547A308F4008549D1BF1C4408CC72
:103BC00091E308C48307040163D30702F247504C12
:103BD000854603C51700D68597100000E780803022
:103BE00069F98347040193F7F7072308F400F247C4
:103BF0000C4C3E853EC697F0FFFFE78020ED4DC997
:103C0000338DAD00B247637A2C0B03D7A7009354D2
:103C10009900B3869D006374D700B304B74103C510
:103C20001700A6866A86D28597100000E780802B51
:103C300049F14C4C338DA54163729D02260D13064C
:103C40000020B305AA01568597F0FFFFE78080F2B8
:103C50008347040193F7F7072308F400A60483279A
:103C60000B0033099940269AA6972320FB005C4855
:103C7000BE945C4444C863F39700A6875CC4E30227
:103C800009F05C4813F7F71F29EF7247835DA7001F
:103C900013D79700FD1DB3FDED00E3950DF2E39AF8
:103CA00007EC08448145E30705EC8547E311F5F08F
:103CB0008947A308F4008949D9BD584C6301A7037B
:103CC00054445848637DD70003C5170085466A866B
:103CD000D68597100000E780C016E31C05EC232E64
:103CE000A4014848CA841375F51FB387AB4063F33A
:103CF0002701BE842686D285569597F0FFFFE78080
:103D000060E78347040193E707F82308F40081BFC5
:103D10009D49B5BD01116C0026CA06CE22CC4AC809
:103D2000AA8497F0FFFFE78000E0AA8763150518D3
:103D300003C7040193760704638F06166207618741
:103D400063560702B247D04C854603C517009385DA
:103D5000840297100000E780E0188547631D051472
:103D600083C7040193F7F7072388F4009700000046
:103D7000E78060502A898C50324597F0FFFFE7803A
:103D8000A0E9AA8763190512C0508347B40093E7DE
:103D90000702A305F4009C44944013970701418354
:103DA0002183A30DE400230DF40083C606000D4714
:103DB0006398E600C183230AF400A183A30AF400F8
:103DC000CC441305C40197F0FFFFE780C0CCCA853F
:103DD0001305640197F0FFFFE780E0CB230904009F
:103DE000A309040032440549A3012401228597F068
:103DF000FFFFE78020DCAA874DE9034704008D47D9
:103E0000631BF708834744006397270913090403DA
:103E100013070423CA878507A38F07FEE39DE7FEE8
:103E2000930750052307F4229307A0FAA307F4226F
:103E30000C48930720051307100493062007230856
:103E4000F402A308F402930710062309F402A3095D
:103E5000E402230AD420A30AD420230BE420A30BDA
:103E6000F4201305842197F0FFFFE780C0C24C4483
:103E70001305C42197F0FFFFE780E0C1504C0345D4
:103E800014008546050650D4CA8597100000E780C7
:103E90006005230204000345140001468145971084
:103EA0000000E780A014B337A00003C70401137714
:103EB000F7FB2388E400F2406244D24442493E8545
:103EC00005618280011122CC06CE2A849700000071
:103ED000E78080E411E96C00228597F0FFFFE7801E
:103EE00080C419E123200400F2406244056182800D
:103EF00079714AD04ECE5AC806D622D426D252CC98
:103F000056CA5EC662C466C22A8B97E0FFFFE7808E
:103F1000A08BAA892E8997E0FFFFE780E08AAA8418
:103F20002E846394A900E308B9FEB707000803A92B
:103F3000073783A94737B70B002097E0FFFFE780DB
:103F4000A088AA87058DB3B7A700818D9D8D976046
:103F50000000E78000C92A8A03A50B50AE8A97604B
:103F60000000E780A0C24A86CE8697500000E78016
:103F7000A0A92A8C5A85AE8C97600000E78000BA11
:103F80002A86AE866285E68597500000E780A010FD
:103F90002A86AE865285D68597500000E780600558
:103FA000E34D05F8B250225492540259F249624A44
:103FB000D24A424BB24B224C924C45618280011155
:103FC00022CC004126CA4AC822854EC652C406CE1B
:103FD000AE84328A3689BA8997D0FFFFE780E0D96C
:103FE00093050050228597D0FFFFE78000DB6DD955
:103FF00086047956A685228597D0FFFFE78020D6D4
:1040000093051050228597D0FFFFE78000D96DD926
:1040100093051050228597D0FFFFE78040D9930584
:104020007050228597D0FFFFE78020D76DD9D285C9
:10403000228597D0FFFFE78080D5930570502285B9
:1040400097D0FFFFE78060D56DD9228597D0FFFF1D
:10405000E780A0D293050050228597D0FFFFE7802C
:10406000C0D36DD90546A685228597D0FFFFE7808E
:1040700000CF93051050228597D0FFFFE780E0D155
:104080006DD993051050228597D0FFFFE78020D28D
:104090008545228597D0FFFFE780E0CA8144130A57
:1040A000F9FF63C32403228597D0FFFFE78080CD0B
:1040B0001C4093F70720EDFFF2406244D24442498E
:1040C000B249224A0561828063189A00814522859F
:1040D00097D0FFFFE78020C793056050228597D0D7
:1040E000FFFFE78080CB6DD9228597D0FFFFE78067
:1040F00040CAB38799002380A70085045DB70111EA
:1041000022CC004126CA4AC84EC652C406CE2E8AC8
:10411000B2843689BA8993051060228597D0FFFF53
:10412000E780A0C76DF9228597D0FFFFE780E0C444
:1041300093050050228597D0FFFFE78000C66DD918
:10414000795693151A00228597D0FFFFE78020C18A
:1041500093051050228597D0FFFFE78000C46DD9EA
:1041600093051050228597D0FFFFE78040C4930548
:104170007050228597D0FFFFE78020C26DD9A685B9
:10418000228597D0FFFFE78080C09305705022857D
:1041900097D0FFFFE78060C06DD9814463C32403DB
:1041A000228597D0FFFFE780E0BD1C4093F70720F2
:1041B000EDFFF2406244D2444249B249224A0561CD
:1041C0008280B387990083C50700228597D0FFFFBF
:1041D000E780E0BB93057050228597D0FFFFE78012
:1041E000C0BB6DD985045DBFE16541110146938572
:1041F000056A22C406C62A8497D0FFFFE78080A004
:1042000022852244B240410117D3FFFF670043B625
:10421000411122C43714002006C62326A492970019
:104220000000E780A0FC9306C4922244B2403746C7
:104230000008B745000837450008130606EF9385C8
:10424000E50F1305E5FB4101170300006700434537
:1042500037080020130888512310A8002301B80054
:10426000A301C8002302D800A302E8002303F8003A
:1042700082803707002013078751834727000345B3
:104280003700D6074205C98F03456700C98F03452C
:1042900047002E05C98F034557001605C98F0345F2
:1042A00007001305450466055D8D828041110145B7
:1042B00006C697D0FFFFE78020B83777DC02B70744
:1042C0000020130707C0938747616317E50237078C
:1042D000400098C38D46371700202328D792884383
:1042E00097D0FFFFE78000B4B2401305C0504101F2
:1042F00017D3FFFF670043AE37A74A041307072011
:104300006318E50023A00700371700209546F1B792
:1043100037E7B80513070780E313E5FC3707C0004C
:1043200098C39D46371700204DBF41110146854572
:104330001305600506C697C0FFFFE780607213058E
:10434000C07197D0FFFFE78020A93705040097C010
:10435000FFFFE780207F014681453705040097C0B5
:10436000FFFFE78020733705040097C0FFFFE78059
:10437000607CB24001468D451305D003410117C34F
:10438000FFFF6700E36D828017130000670083F86A
:10439000171300006700E3F03705002013058506BA
:1043A00017E3FFFF670043FF411122C437040020D9
:1043B00006C69307840683C777008DCB971000004D
:1043C000E780400EB707002003A5476197D0FFFFA5
:1043D000E78040A51305C05097D0FFFFE780C09F3E
:1043E0001305840697E0FFFFE78060F92244B2409E
:1043F00037050400410117C3FFFF6700A374411193
:10440000054685458147014781461305C07B06C6A1
:1044100097000000E78000E41305400697D0FFFFF7
:10442000E7802076B70500083715002005469385FC
:1044300085391305459397F0FFFFE780401511E597
:10444000B7070020054723A0E762B2404101828000
:10445000B707002083A70762F5C71D71CEC6B7094D
:10446000002083A7896186CEA2CCA6CACAC8D2C4BE
:10447000D6C293898961BDCF370900089305893970
:1044800037140020130620039105130584B697F016
:10449000FFFFE78080151309893929ED930784B65A
:1044A000DC4791EFB7160020938646B66D4693051C
:1044B0000901130584B697F0FFFFE7806065B71424
:1044C0000020938404D9014A1309C902B71A0020B5
:1044D00083A709006349FA02130584B69700000018
:1044E000E7808083130584B697000000E780C09DB5
:1044F00023A00900F6406644D6444649B649264AF8
:10450000964A256182808844050AB10497600000BC
:10451000E780401803A784FF83A644FFAA874A8642
:10452000930500040A8597200000E78040402A8612
:1045300093864AB68A85130584B697F0FFFFE78015
:10454000205D79B782807971014685451305F002B7
:1045500006D622D497C0FFFFE78080501305007075
:1045600097D0FFFFE78040873705004097D0FFFFD7
:10457000E78040A6080897D0FFFFE780C0B2B56784
:104580009387072F0C080544370500403ECC22C80E
:10459000231A0100231E010097D0FFFFE78020B2FD
:1045A000480097D0FFFFE78000BB500081453705EA
:1045B000004023128100231401002316010097D02C
:1045C000FFFFE780E0BA1D66130686978145370531
:1045D000004097D0FFFFE780C0E2014681453705E4
:1045E000004097D0FFFFE78060DC0146814537053A
:1045F000004097D0FFFFE78020E389453705004062
:1046000097D0FFFFE780A0E789453705004097D0A6
:10461000FFFFE78060E83705004097D0FFFFE780A5
:10462000E0B2B2502254456182804111894537057C
:10463000004006C697D0FFFFE780E0E4854763129D
:10464000F502B70700209387C7619843B2408945B8
:10465000050798C337050040410117D3FFFF6700E6
:10466000A3E3B24041018280B7270020938707BAB5
:10467000328703A307002A86C847AE8693059006B3
:104680000283B7270020938707BA328703A3470026
:104690002A86C847AE86930590060283011122CC74
:1046A00037240020930704BA06CE88C3CCC390C732
:1046B0001305500730008545D4C797000000E780F8
:1046C000E0FA03478100C5477D55631FF70C930748
:1046D00000F81305B006700085452306F1001304A9
:1046E00004BA97000000E78000FA1C441305400656
:1046F00082978307810063CD070A1C441305400697
:1047000009448297A547700085451305B006230626
:10471000F10097000000E78000F7700085456545CF
:104720002306010097000000E780E0F57000854552
:1047300069452306810097000000E780C0F4E14747
:10474000700085456D452306F10097000000E78065
:1047500080F3C1477000854571452306F10097003D
:104760000000E78040F27000854575452306810012
:1047700097000000E78020F1930720037000854533
:10478000130570032306F10097000000E780A0EFF7
:10479000854713058003700085452306F1009700C7
:1047A0000000E78040EE0545F240624405618280EA
:1047B000300085451305B00697000000E78000EB48
:1047C0000DBF011122CC30002A8499451305B00396
:1047D00006CE97000000E78060E983178100A303FD
:1047E000F100A1832303F10003156100976000002D
:1047F000E78040F08317A10008C0A303F100A18364
:104800002303F1000315610097600000E78080EE4C
:104810008317C10048C0A303F100A1832303F10063
:104820000315610097600000E780C0EC08C4F24007
:104830006244054505618280411122C4374400402D
:1048400026C24AC006C6AA841309048089454A853F
:1048500097C0FFFFE780607775D9A68513050480B0
:104860003744004097C0FFFFE780A07493040480A2
:104870008545268597C0FFFFE780207575D913050C
:10488000048097C0FFFFE7800073B2402244924447
:1048900002491375F50F410182804111371501401E
:1048A000916506C697C0FFFFE780A034B2401305AC
:1048B000F00F410117030000670043F8397126DA51
:1048C0005AD05ECE62CC66CA6AC806DE22DC4AD8FE
:1048D0004ED652D456D2AA8497D0FFFFE780C0EEBE
:1048E000B707000803AB073783AB4737AA8C2E8D79
:1048F000370C002097D0FFFFE78000ED330995418A
:1049000033352501B385A541898D1305F00F2EC6DA
:1049100097000000E78080F29307F00F2A84630F6E
:10492000F504B2454A8597500000E780802B2A891C
:1049300003250C50AE8997500000E78020255A8649
:10494000DE8697400000E780200C2A8A2685AE8A02
:1049500097500000E78080232A86AE865285D68550
:1049600097400000E78020732A86AE864A85CE8570
:1049700097400000E780E067E34E05F6130514F06A
:10498000F2506254D2544259B259225A925A025B9E
:10499000F24B624CD24C424D13351500216182809E
:1049A000011191653715014006CE97C0FFFFE780E2
:1049B00080241305F00F97000000E78020E813051E
:1049C000401F97000000E780A0EF2AC609E9970082
:1049D0000000E780C0EC3245F24005618280054569
:1049E000E5BF41119317850122C426C206C6E1879F
:1049F0002A84AE8463DF07008145130570039700A6
:104A00000000E78040FE0547AA87636CA70A13747D
:104A1000F407B147631CF408136504049700000011
:104A2000E780C0E113D5840197000000E78000E132
:104A300013D504011375F50F97000000E78000E01F
:104A400013D584001375F50F97000000E78000DF91
:104A500013F5F40F97000000E78040DE13055009BE
:104A600019C4A14705456314F400130570089700A5
:104A70000000E780A0DCB1476318F4001305F00FD5
:104A800097000000E78080DB29441305F00F9700B2
:104A90000000E780A0DA131785016187AA876352B7
:104AA00007027D141374F40F6DF021A89700000025
:104AB000E780E0DE97000000E780C0EE9307F00F8C
:104AC00021FDB240224492443E8541018280411141
:104AD00022C42A841305800C26C206C6AE84970021
:104AE0000000E78080721305F00F97000000E78058
:104AF000E0D49307F00F631DF50097000000E780F6
:104B0000607675F10145B2402244924441018280B1
:104B10009307E00FE318F5FE8504A2941305F00F48
:104B200097000000E78080D12300A4000504E397EC
:104B300084FE1305F00F97000000E78020D01305D6
:104B4000F00F97000000E78060CF05456DBF411171
:104B500022C426C24AC006C62A8901449304002002
:104B6000B307890003C50700050497000000E7802C
:104B7000E0CCE31794FE1305F00F97000000E780E8
:104B8000E0CB1305F00F97000000E78020CB130562
:104B9000F00F97000000E78060CAB24022447D8990
:104BA0006D15924402491335150041018280631C42
:104BB000052679711305306006D622D426D24AD054
:104BC00097C0FFFFE78040211305406097C0FFFFBB
:104BD000E78080201305E07097C0FFFFE780C01FCB
:104BE00037140140130504C0A9660D46E14597C07E
:104BF000FFFFE780C0F5130504C091660D4691459F
:104C000097C0FFFFE780A0F491660D46C1453715B8
:104C1000014097C0FFFFE78080F3916537150140A1
:104C200097C0FFFFE780E0FC930740103EC28D472E
:104C3000B74400403ECC930700203EC84C00930789
:104C40000002138504803ECE02C402C602CA97C089
:104C5000FFFFE78000329D451385048097C0FFFF6A
:104C6000E780E0351385048097C0FFFFE780C033FD
:104C7000294597D0FFFFE780C0F0370400201307D5
:104C800004528347070013040452898B99CB0345D0
:104C90000700B2502254925402591375F50F456122
:104CA000828083A7048091653715014093F777FCD4
:104CB00093E7870223A0F48097C0FFFFE780A0F36B
:104CC000A944FD141305F00F93F4F40F97000000AE
:104CD000E780C0B6FDF48145014597000000E780FC
:104CE00080D085472A89631EF5121305803E970000
:104CF0000000E78080519305A01A2145970000002D
:104D0000E78060CE6319250D11491305F00F970058
:104D10000000E780A0B25C00A6972380A70085046E
:104D2000E39524FF034761008547631CF70E0347A3
:104D300071009307A00A6316F70E97000000E78042
:104D4000605211C9B70500401305900A9700000092
:104D5000E78060C97DF197000000E780A05071C135
:104D600081451305A00397000000E780C0C755E9FF
:104D7000814411491305F00F97000000E78000AC53
:104D80005C00A6972380A7008504E39524FF834752
:104D90004100B14493F7070491E39144B707002021
:104DA0002384976297000000E78060AF854799CC25
:104DB000374700408327078093F777FC93E7070185
:104DC0002320F7808347040093F7E70F2300F400C4
:104DD000034504007DBD81451305900A970000003E
:104DE000E78060C085446365A90089441309900A7F
:104DF00097000000E780004701C981454A85970078
:104E00000000E78040BE6DF597000000E780804518
:104E100009C993050020414597000000E780A0BC28
:104E200035DD8144A5BF0545828001E9B707002033
:104E300003C507521375F50F82800545828059ED31
:104E4000411122C406C626C236841145B1CAB7072D
:104E5000002083C707520D45858BB9E3B7070020B3
:104E600083C78762AE84B285A18B99E393159600C0
:104E70008547631CF402454597000000E780A0B613
:104E800011E993050020268597000000E78060C4A3
:104E90001334150097000000E78060A033358000D0
:104EA000B24022449244410182804945970000006B
:104EB000E78060B365F19305002026859700000028
:104EC000E78020C109C57D14938404206DF48145D9
:104ED000314597000000E78000B16DBF1145828029
:104EE00063120510011122CC06CE26CA3684114564
:104EF000A9CAB70700209387075203C707000D45CB
:104F0000058B21E383C707000945918B9DEBB7070C
:104F1000002083C78762AE8413F7870011E326065B
:104F20000547631AE404B285614597000000E780F5
:104F300080AB09CD054497000000E78040963335EB
:104F40008000F2406244D244056182801305401F14
:104F500097000000E780C09671DD1305E00F970011
:104F60000000E780A08D268597000000E78060BEE6
:104F700013341500C9B7998B91CBA285130570091D
:104F800032C697000000E78000A63246B28565452C
:104F900097000000E78020A559FD1305401F9700EA
:104FA0000000E780E0910DC11305C00F97000000DD
:104FB000E780C088268597000000E78080B909C592
:104FC0007D149384042071F81305401F970000009E
:104FD000E780008F25D11305D00F97000000E780F0
:104FE000E08591BF11458280011126CA06CE22CCF0
:104FF00091440DE9B707002083C707528D44858B84
:1050000095E385473284AE84638BF50295C18D4765
:105010006388F50A91476383F51691449700000071
:10502000E780E087F24062442685D24405618280B1
:1050300097000000E780009793341500C5B78145BD
:10504000254597000000E780009A19C18544F9B70B
:10505000C1450A8597000000E780A0A765D90346EF
:105060000100834781008346910019820347710044
:10507000631E9600A207B6974207B7063F00758FDA
:105080000507BA97AA071CC0814449BF0A0799833C
:10509000BA97034761000566130606C02A07718F99
:1050A000BA970346A1000347510086061D823D8B37
:1050B0003297998A369785076517B397E700E1B766
:1050C000B70400209384846283C704008145918BD8
:1050D000B1CB1305D00897000000E780C0903DF5E4
:1050E0001305F00F97F0FFFFE7804075C1450A8573
:1050F00097000000E780E09D31D993040003FD1480
:105100001305F00F93F4F40F97F0FFFFE78000739F
:10511000FDF48347A10013D74700C147B397E700C9
:105120001CC0EDBD254597000000E780C08B19FD30
:10513000C1450A8597000000E780A09901D903C7FF
:1051400004008347A1008346B100098B01CF0347C8
:10515000D100860793F7E7079D82B69719838507E5
:105160007D17A1BF13973600618B9582898736978B
:10517000FD8B05078507B307F70231B7B704002099
:105180009384846283C70400998BE38107EC0A86C9
:10519000AD4597000000E78060E5E31905EA834725
:1051A00001000347A100998313770704D98FE38F88
:1051B00007E883C704000C404040A18B99E3A60593
:1051C00026041305000297000000E780C081E31F5A
:1051D00005E6A2851305100297000000E780A08075
:1051E000E31605E681451305600297F0FFFFE780AF
:1051F000807FE31D05E41D651305055397F0FFFF50
:10520000E780006C15BD411122C406C62A8497C0F0
:10521000FFFFE780605BB70700209387076388C3C1
:10522000CCC303A8070083A84700B707002003A545
:1052300007508567938707FA3355F502B7060020B4
:10524000B240330585022244330605013335A600FA
:1052500023ACC662B307150123AEF662410182801A
:10526000411106C697C0FFFFE7800056B707002030
:105270009387076388C3CCC3B70600209843DC43F9
:1052800003A6866383A6C66363E7F60005456395B8
:10529000D7006373E6000145B240410182800111ED
:1052A00022CC4EC652C406CE26CA4AC8AA8997C086
:1052B000FFFFE78060512A8A2E8497C0FFFFE780B6
:1052C000A050AA842E896314AA00E308B4FE0564E2
:1052D000370A0020130404FA97C0FFFFE780C04E8E
:1052E00083270A50330795403335E500B3D787024B
:1052F000B3852541B38737036394A500E36EF7FCBC
:10530000F2406244D2444249B249224A0561828055
:10531000011122CC4EC652C406CE26CA4AC8AA895A
:1053200097C0FFFFE780404A2A8A2E8497C0FFFF7C
:10533000E7808049AA842E896314AA00E308B4FE9A
:1053400037143D00370A00201304049097C0FFFF74
:10535000E780804783270A50330795403335E500BF
:10536000B3D78702B3852541B38737036394A5007C
:10537000E36EF7FCF2406244D2444249B249224A09
:1053800005618280411106C697000000E780801108
:105390007350003297B0FFFFE780406B094597B02C
:1053A000FFFFE780606B97F0FFFFE78060F097F00A
:1053B000FFFFE78080FD97F0FFFFE78040F7B240F6
:1053C00037060020370500201306460485451305DF
:1053D00085064101170300006700633DB707002001
:1053E0009387870603C5670C7515133515008280F2
:1053F00001114AC84EC606CE22CC26CA52C456C295
:10540000AE89328997C0FFFFE780003C93070020F8
:1054100063F4270113090020E1649384046AAA94C9
:10542000370A002033B5A400D28A3304B50083477D
:105430005A5199EB97C0FFFFE7800039E3E985FEF9
:105440006314B400E36595FE37060020A38A0A5072
:10545000014493078665631B2403931604013705F3
:105460000020C18213068665930510081305850682
:1054700097000000E78020232285F2406244D24456
:105480004249B249224A924A0561828033878900A3
:10549000834607003387870005042300D70065BFD4
:1054A000B71702409843B706FFE0B106136717002D
:1054B00098C3D843758FD8C39843B706F7FEFD1637
:1054C000758F98C39843B706FCFFFD16758F98C378
:1054D000D843B70601DFFD16758FD8C323A6070290
:1054E0009843B706F7EAFD16758F98C33707FF0094
:1054F00098C794434167D98E94C39307F7FF371732
:10550000024014431396E60063440600FD17F5FBC2
:10551000B717024098439316E70063C3060001A043
:10552000D843B706C4DFFD16D8C3D843D8C3D84381
:1055300013670740D8C3D843758FD8C3D843B7067D
:105540001D20558FD8C3D857BD76758FD8D7D8575B
:10555000B706000113671700D8D79843558F98C333
:10556000B7170240984393166700E3DD06FED84361
:10557000719BD8C3D84313672700D8C3371702409D
:105580005C43A18BF5DF17C3FFFF670023034111C5
:1055900006C603C7550083C7450003C6250022077A
:1055A0005D8F93178601E18763D20706F1479376F3
:1055B000F607B386F6029387860CAA9603C8860C74
:1055C000AA97136808F82384060D83C607003D8A4E
:1055D0001377F70FC19A558E2380C7002392E700F7
:1055E00003C73500BE850D8B9316270037070008CB
:1055F0001307874136971843A380E70097D0FFFF32
:10560000E780E0A2B240014541018280F146B30645
:10561000D6029387C626AA9603C8C626AA971378E9
:10562000F8072386062755B741119397850106C6CB
:10563000E18763D2070293F5F507F147B385F502D9
:105640009385850CAA9597D0FFFFE78020A8B240EC
:10565000014541018280F147B385F5029385C52656
:10566000D5B793F7F507F145B387B702411106C6E1
:1056700005479385C726AA9723AAC72623ACD72612
:1056800023AE072683464500AA956394E60023A22D
:10569000C72897D0FFFFE78060B6B24001454101BF
:1056A000828093F7F507F145B387B702411106C62B
:1056B00005479385870CAA9723A8C70C23AAD70C64
:1056C00023AC070C83464500AA956394E60023A00B
:1056D000C70E97D0FFFFE780C0A3B240014541014C
:1056E000828041119397850106C6E18763D5070241
:1056F00093F5F507F147B385F5029385850CAA95D7
:1057000085472381F50097D0FFFFE780E0B7B240DF
:10571000014541018280F147B385F5029385C52695
:10572000F9BF41119397850106C6E18763D407024B
:1057300093F5F507F147B385F5029385850CAA9596
:105740002381050097D0FFFFE780A0B7B240014555
:1057500041018280F147B385F5029385C526C5B71F
:1057600017D3FFFF6700638BF147B385F502AA9556
:1057700003D5C5278280411106C697D0FFFFE78079
:105780002089B2400D45410117F3FFFF670083C038
:10579000411106C697D0FFFFE780C086B2400D4595
:1057A000410117F3FFFF6700E3BE411106C622C4A3
:1057B00026C2930485002328C5422E86A6852A8406
:1057C00097C0FFFFE780C0484C400840268697C03E
:1057D000FFFFE7806056228597000000E78080FB8E
:1057E000228597C0FFFFE7800071228597000000A7
:1057F000E780A0F885472303F40CB240224492448A
:10580000410182800545828003254541834705008B
:105810002310F6008280032585418347250023104D
:10582000F6008280832705428A05AE978843834726
:1058300005002310F6008280411122C426C206C64C
:1058400083C705002A84AE848D8B8DCF0547638581
:10585000E70C0327C40D054561C783C7740083C6E1
:105860006400A207D58FCDCF6371F70C8357C40CAA
:1058700001456367F70A3375F70255E98547A306C3
:10588000F44279A883C7250083C535000947A205DE
:10589000DD8D93D7850093F5F50F638CE704636B7B
:1058A000F7020547E397E7FA1306C50D97000000D6
:1058B000E780C0F52328A40C83C7740003C76400E5
:1058C000A207D98F13070004E395E7F8A147232E19
:1058D000F40C41B70D476387E7023D47E39BE7F6CA
:1058E0008327C54103C727002328F50C231EE50C99
:1058F0008DB71306C50D97000000E78000F223283E
:10590000A40C81BF9547E3E6B7F41306C50D9700D5
:105910000000E78060F1E5B783270543DC47829705
:10592000B2402244924441018280232EF40C01456E
:10593000C5BF41114AC006C622C426C283C725007E
:1059400037090020130909642300F900854663ED37
:10595000F6000347650C89442A841377F70F630721
:1059600097000D466309C702854439A8814489CF51
:10597000832705438545DC4382978347090023023B
:10598000F40C8D472303F40CB240224426850249CF
:1059900092444101828091EF8327054381459C47D2
:1059A0008297834709002303940C81442302F40C5B
:1059B000E1BF8347450C8144E388D7FC8327054337
:1059C00085459C47829783450900832704432285A8
:1059D0002302B40CDC43829745BF83C6550003C73E
:1059E000450003C60500A206D98E0D8A8545AA8703
:1059F00013F7F60F6303B60411C689456302B606B2
:105A0000054582800347650C89466388E6000347A5
:105A1000650C8D4605456394E60483C6274103C79C
:105A2000074189C6B336E00093E626003707002019
:105A3000130747642300D70029A88346650C0D4649
:105A40000545631ED600636CE50037070020130789
:105A5000476423A8E70C094723AEE70C0145828081
:105A60000346650C8D450545E39BC5FEE206E186D0
:105A700063DB0600F1461377F7073307D7023E973B
:105A80008346A70C65B7F1463307D7023E97834696
:105A9000E72669BF0347650C8946AA871377F70F86
:105AA0006307D7008D466301D7020545828003470F
:105AB000450C054565FF1387470C23A8E70C0547F0
:105AC00023AEE70C014582800347450C79DFE5B73B
:105AD0008347650C0D476311F70203C745008547EF
:105AE00063EAE70003270543232EF50C81470507EA
:105AF0002328E50C3E8582808547EDBF8347650CF2
