:020000040800F2
:10000000B1AA010000000000000000000000000094
:10001000000000000000000000000000222A00088C
:1000200000000000000000000000000000000000D0
:1000300000000000000000000000000000000000C0
:1000400000000000000000000000000000000000B0
:1000500000000000000000000000000000000000A0
:100060000000000000000000000000000000000090
:100070000000000000000000000000000000000080
:100080000000000000000000000000000000000070
:100090000000000000000000000000000000000060
:1000A0000000000000000000000000000000000050
:1000B000000000000000000000000000243B0008D9
:1000C0000000000000000000000000000000000030
:1000D0000000000000000000000000000000000020
:1000E000762A000800000000000000000000000068
:1000F000000000007E2F000800000000000000004B
:1001000000000000000000000000000000000000EF
:1001100000000000CC2A00080000000000000000E1
:1001200000000000000000000000000000000000CF
:1001300000000000000000000000000000000000BF
:1001400000000000000000000000000000000000AF
:1001500000000000000000006E2F000873700430E3
:10016000170500001305C5FF8545F605637BB5003F
:1001700089816378B500170500001305C5002E9529
:1001800002859302002073A0027D970200009382F3
:1001900062E773907230975200009382E2A27390EC
:1001A000C27E73E0C07E975200009382A299739042
:1001B0005230971100189381E1B417810018130190
:1001C00061E4179500001305E5C1970500189385B4
:1001D00065E3170600181306E64163FAC50083229B
:1001E000050023A0550011059105E3EAC5FE17059A
:1001F000001813052540972500189385A59363776C
:10020000B500232005001105E36DB5FE73F0023241
:1002100017550000130585E697500000E780E0A120
:1002200097500000E780C0EF97100000E780A07CA7
:100230000145814597000000E78000481753000002
:100240006700A3A001A073E00232828073F0023243
:0402500082800000A8
:100280000000000000000000010203040607080946
:100290000A50726F6772616D2068617320657869BA
:1002A000746564207769746820636F64653A000040
:1002B000307800006E6D690A000000007472617091
:1002C0000A0000001603470069006700610044004F
:1002D0006500760069006300650000003803470090
:1002E000440033003200200055005300420020003B
:1002F0004300440043002000410043004D00200023
:1003000069006E0020004600530020004D006F0081
:1003100064006500000000002E0347004400330025
:1003200032005800580058002D0033002E003000D5
:100330002E0030002D0037007A0038007800390098
:100340007900650072000000120100020200004006
:10035000E9288A010001010203010000D08D000894
:10036000C4020008DC0200081803000800000000B6
:10037000000000000040AF400000A040000000006E
:10038000F8C1631ADCA54C40583A20256420205956
:100390003A20256420205A3A2025640A00000000F3
:1003A000417676696B656C73653A20256420204E32
:1003B0006F6C6C76696E6B656C3A20256420204BFF
:1003C0006E6170703A2025640A0000000000C84188
:1003D00000001243000020420000A0420000000084
:1003E0000100000002000000030000006E4400084D
:1003F0009E460008984200081E46000898420008E1
:10040000BA450008CC4200083647000828450008D5
:10041000C643000864450008904500083A470008B4
:1004200000000000000000000000000000000000CC
:1004300000000000000000000000000000000000BC
:1004400000000000000000000000000000000000AC
:10045000000000000000000000000000000000009C
:10046000000000000000000000000000000000008C
:10047000000000000000000000000000000000007C
:10048000232D302B20000000686C4C00656667450A
:10049000464700003031323334353637383941423F
:1004A000434445460000000030313233343536379E
:1004B0003839616263646566000000000000000076
:1004C0004FBB610567ACDD3F182D4454FB21E93F6C
:1004D0009BF681D20B73EF3F182D4454FB21F93F5B
:1004E000E2652F227F2B7A3C075C143326A6813CE1
:1004F000BDCBF07A8807703C075C143326A6913C8C
:10050000B86D0000086D00000E6D0000086D000061
:10051000AA6D0000086D00000E6D0000B86D0000AF
:10052000B86D0000AA6D00000E6D0000EE6C0000BA
:10053000EE6C0000EE6C0000126D000062720000B4
:10054000627200007A7200005C7200005C7200004F
:10055000087300007A7200005C72000008730000EB
:100560005C7200007A7200005A7200005A72000039
:100570005A72000008730000D87F0000028000005B
:100580002A800000028000007680000002800000C7
:100590002A800000D87F0000D87F0000768000000D
:1005A0002A800000EA7F0000EA7F0000EA7F000066
:1005B0002E8000000001020203030303040404046C
:1005C00004040404050505050505050505050505DF
:1005D00005050505060606060606060606060606BF
:1005E00006060606060606060606060606060606AB
:1005F000060606060707070707070707070707078F
:10060000070707070707070707070707070707077A
:10061000070707070707070707070707070707076A
:10062000070707070707070707070707070707075A
:10063000070707070808080808080808080808083E
:10064000080808080808080808080808080808082A
:10065000080808080808080808080808080808081A
:10066000080808080808080808080808080808080A
:1006700008080808080808080808080808080808FA
:1006800008080808080808080808080808080808EA
:1006900008080808080808080808080808080808DA
:1006A00008080808080808080808080808080808CA
:1006B00008080808597186D6A2D4A6D2CAD0CECED0
:1006C000D2CCD6CADAC8DEC6E2C4E6C2EAC09730E7
:1006D0000000E780A07497300000E780A0796305F0
:1006E000053A1305803E97300000E780C06413058B
:1006F000206097000000E780E077371401408946CA
:100700000D4691451305048097000000E780E04DF9
:100710001305306097000000E780C075130504C022
:1007200085460D46C14597000000E780004C9306C2
:1007300000020D46C145130504C097000000E78084
:10074000C04A1305507197000000E780A07293061D
:10075000000C0D46F145130504C097000000E7802A
:10076000C048375500401305054097200000E7803A
:10077000806D054597300000E78020B99730000074
:10078000E78000BB014597300000E780A0004810DB
:100790003704000897300000E78080521304843744
:1007A000B7140140B71A002097000000E7802034FA
:1007B000014D97300000E780E028014993090000CF
:1007C000938B0480370A0020930C0401938ACAD0CB
:1007D000280897300000E780A04E0255978000005F
:1007E000E780403A2AC062452EC297800000E78029
:1007F00060390246924697600000E780609A104494
:100800005444B7070080AD8FBE8597700000E78025
:10081000E0C097800000E780C0402A8C89455E8553
:1008200097000000E78020476317052693078A6139
:100830009C438545138504C03EDA62D802DC02DEA3
:1008400097000000E780A0441305200397100000E4
:10085000E780003EE2890549CE85628597800000E9
:10086000E780E0E82A8B025597800000E780401A75
:100870002AC6724597800000E78080192AC0624529
:1008800097800000E780C018B2460246AA856685B8
:1008900097500000E78060AD89455E8597000000B5
:1008A000E780603F2AC64E8597800000E7804016AB
:1008B0002AC05A8597800000E7808015B24602461C
:1008C000AA851305840297500000E78000AA01451D
:1008D00097400000E780C05613054006973000009F
:1008E000E7806045630A090A93078A619043E285BD
:1008F000081897300000E780E009130C8A61631440
:10090000251B93050002138504C097000000E780B3
:1009100000381305401F97100000E78060319305F1
:100920000002138504C097000000E78080366C4801
:100930005A8597800000E78080CC93050002635EB3
:10094000A018138504C097000000E78040346315A9
:100950000D04370600201306466118429307B012B3
:100960004A8D63CBE70203250C00BD66938506A67E
:10097000B356B502B147B307F702050718C2D697B9
:1009800094C383260C0023A46701B3F6B602930533
:10099000803EB3D6B602D4C3025593050000130BB4
:1009A000007E97800000E78000CD63550500416B15
:1009B000130B0B80FD46714693058002130500055D
:1009C00097300000E780E0ED2C4C12559780000036
:1009D000E780809D6C4C97700000E780C06B97802B
:1009E0000000E780E0082C4C2AC0225597800000C8
:1009F000E780809B2C5097700000E780C06997804B
:100A00000000E780E00682462A86014793058002BF
:100A10001305000597300000E78060DE2C4C62452E
:100A200097800000E78040986C4C97700000E7804A
:100A3000806697800000E780A0032C4C2AC0724596
:100A400097800000E78040962C5097700000E78068
:100A5000806497800000E780A00182465A872A863A
:100A6000930580021305000597300000E78020D928
:100A700031462C08481097400000E780007197200D
:100A80000000E780606EA9B31305400697300000B0
:100A9000E780602A89B18545138504C0970000006E
:100AA000E780201F55BB8947E313F5E89305000253
:100AB000138504C097000000E780601D1305803E89
:100AC00097100000E780C01693050002138504C04C
:100AD00097000000E780E01B99BD138504C09700D4
:100AE0000000E780001B014D45BDF36704308280A4
:100AF00017130000670063DC011106CE22CC32C45C
:100B00002A842EC697100000E78000DAB2452285BD
:100B100097100000E780C0DC224622856244F24044
:100B2000B285056117130000670003E1B7070140B4
:100B300083A607401347F5FFF98E23A0D74083A66D
:100B40004740F98E23A2D74083A68740F98E23A47D
:100B5000D74083A6C740F98E23A6D74081CD8546CE
:100B60006380D50285476300F6040DC28947630997
:100B7000F604828083A60740C98E23A0D740DDB744
:100B800083A64740C98E23A2D740E9BFB7070140DB
:100B900083A68740558D23A4A74083A6C740758FA1
:100BA00023A6E7408280B707014083A68740758F60
:100BB00023A4E74003A7C740598D23A6A7408280FE
:100BC000B707014003A78740498FDDB737070140CA
:100BD000832707405D8D2320A7408280B70701400F
:100BE00023AAA740828093F7050193F8F50099C3E3
:100BF000B3E8C8008147054EBD4E130F8002930F26
:100C0000800421433316FE00758E1DC21397270002
:100C1000832205003398EE001348F8FF337858001C
:100C20003397E800336707016399E50550C918C198
:100C30008507E39967FC054EBD4E130F8002930FA5
:100C4000800441433316FE00758E05C613972700B6
:100C50000117832245003398EE001348F8FF3378DC
:100C600058003397E80033670701639CE50150C9DA
:100C700058C18507E39867FC8280E39AF5FB10C9A9
:100C80007DB7E397F5FF10C9E5B70CC982804CC961
:100C9000828008456D8D3335A0008280011122CC01
:100CA0002A84094526CA32C606CEAE8497000000C3
:100CB000E7804022B7470F00B70638039387072421
:100CC0009386F6973357F50232469307600363E342
:100CD000A600BA87544093F606FCDD8E54C0E16648
:100CE0009386066A63E1960493071700130750037F
:100CF0006376F700930760031CD029A00947E36DD2
:100D0000F7FE18D08604335595025C4C1147637387
:100D1000E5001145520551815D8D48CCF240624499
:100D2000D2440561828037270600130707A8636C49
:100D300097041307C012B387E7021307803EB3D7A7
:100D4000E70285071CD01DE68D47B384F4025C4C96
:100D500071777D17F98F335595025CCC9317450158
:100D600099E3136515005C4C2167D98F5CCC444C2A
:100D7000458D65B7E547B384F4025C4C1167D98FA4
:100D800033559502D9BF13078007B387E7021307CE
:100D9000803EB3D7E70285071CD00DEA8D45B384AA
:100DA000B4025C4C71777D17F98F335595025CCC9A
:100DB0005C4C2167D98F5CCC444C458D48CC832753
:100DC000040993E717002328F40889BFE545B38495
:100DD000B4025C4C1167D98F33559502C9BF854762
:100DE0006397F5001C4193E707401CC182801C41BA
:100DF00093F7F7BFDDBF795793E715006314E6005B
:100E000093F7E5FF1CC982801C4193E717001CC1C2
:100E100082801C4193E707101CC182801C4193E72C
:100E200007201CC182800CC9828008491375F50F08
:100E3000828093D7650093F7F73F3E95084133557D
:100E4000B50005898280930710506395F5005C49D1
:100E50001C4D828013D765001377F73F3A951841F0
:100E60008547B397B70093C7F7FFF98F1CC18280FE
:100E7000B7170240135765003E9714438547B39751
:100E8000A700D58F1CC38280B71702401357650097
:100E90003E9714438547B397A700D58F1CC3828024
:100EA000B7170240135765003E9714438547B39721
:100EB000A70093C7F7FFF58F1CC38280B7160240C7
:100EC000DC42370740FF7D17F98F5D8DC8C28280F5
:100ED0007971B705000822D441462A8493850528F4
:100EE000080806D697400000E780202AB7070304C9
:100EF0009387172002C03EC202C43EC63717024085
:100F00005C43894689838D8B6397D70E5C439396A8
:100F1000F70063D606065C579396F70063DC060479
:100F20005C57585791832183BD8B3D8B9386170067
:100F30000907C5476313F7005147B7177A0093872E
:100F40000720B3D7D702B387E702371702405857B5
:100F50003D8B050733D7E702B7160240DC42D44287
:100F6000C98313962600BD8B6350060293E70701E1
:100F700085070DA0B7177A0093870720F9B7B71731
:100F80003D0013870790C9BFBD46E383D7FE89079D
:100F9000638DD704B387E702B7160240D84210101A
:100FA00011833D8B3297034507FFD84233D5A70005
:100FB00021831D8B3297034607FED84214102D83E0
:100FC0001D8B36978546034787FE630CD40005CCFE
:100FD00089476307F4028D473355E5006303F40046
:100FE0000145B2502254456182809947B307F70208
:100FF0000583BA9755B7B7177A009387072069BF5B
:101000003355C500F9BF3E85E9BF232005002322E3
:1010100005002324050023260500232A0500232C90
:10102000050082801C410D6713070704D4417D8FA2
:101030009C41D58F9445D58FD445D58F9449D58F74
:10104000D449D58F944DD58FD98F1CC15C4D7D77F8
:101050001307F77FF98F5CCD82801C4193E707046B
:101060001CC182804CC582801C410967D98F1CC17C
:101070000CC9828008456D8D3335A00082804111F6
:10108000B717004006C6138707C0630EE5086367FD
:10109000A70237070040930607406304D5069387ED
:1010A00007806309F5066312E50A130500409700FF
:1010B0000000E780A0DD1305004035A81387074036
:1010C000630CE50637370140130707C0630DE500E1
:1010D000631DF5061305404097000000E78000DB24
:1010E0001305404009A81305B03097000000E780C1
:1010F000E0D91305B030B24041011703000067008A
:1011000063DA1305104097000000E78020D813052C
:101110001040D5B71305204097000000E78000D7A6
:1011200013052040C9BF1305304097000000E78039
:10113000E0D513053040C1B71305504097000000BB
:10114000E780C0D4130550407DB7B2404101828092
:10115000C167FD1723200500231205001CC52316B7
:10116000050023070500828083D7050003D74500CB
:101170009376F5BF1CD5B7370140938707C0418BE5
:10118000630AF500FD779387F73FE98F3706004044
:101190006390C7061C4193F7F7F81CC183D725005D
:1011A000104193F70706D18F1CC11C415D8F18C1F8
:1011B0009C455CD5B71700406387F6021C4193F746
:1011C000F7CF1CC183D7C500184193F70730D98FDB
:1011D0001CC1B7370140138707C06316E50003C77A
:1011E000E50023A8E7C25C4993E717005CC9828049
:1011F0001C41BD9B55BF1C4193E717001CC1828059
:1012000023100500231105002312050023130500F8
:10121000231405002315050082808547638EF50899
:1012200081C989476389F5128D476387F51C8280E0
:101230001C51F99B1CD1185183570600D98F1CD122
:101240001C51F59B1CD1185183574600D98F1CD1D6
:10125000B7370140138707C0631CE50418516D9B25
:1012600018D1145103572600558F18D118515D9B82
:1012700018D1145103576600558F18D103A747C0E2
:101280001377F7EF23A2E7C083A647C00357860072
:10129000558F23A2E7C003A747C01377F7DF23A228
:1012A000E7C083A647C00357A600558F23A2E7C017
:1012B0001C4DF19B1CCD82801C51BD9B1CD18357C2
:1012C000060018519207D98F1CD11C5193F7F7FDD6
:1012D0001CD18357460018519207D98F1CD1B737BC
:1012E0000140138707C06314E50618511377F7FB15
:1012F00018D10357260014511207558F18D11851D1
:101300001377F7F718D10357660014511207558F5A
:1013100018D103A747C01377F7BF23A2E7C003572D
:10132000860083A647C00A07558F23A2E7C003A7FC
:1013300047C0FD769386F67F758F23A2E7C00357DB
:10134000A60083A647C00A07558F23A2E7C01C4DFD
:1013500093F7F7CF85B71C5193F7F7EF1CD183575D
:1013600006001851A207D98F1CD11C5193F7F7DF43
:101370001CD1835746001851A207D98F1CD1B7370B
:101380000140138707C06315E50618511377F7BFAF
:1013900018D10357260014512207558F18D1185120
:1013A000FD769385F67F6D8F18D1035766000C513B
:1013B000FD1622074D8F18D103A747C0F98E23A22F
:1013C000D7C00357860083A647C01207558F23A2B4
:1013D000E7C003A747C0F976FD16758F23A2E7C0C3
:1013E0000357A60083A647C01207558F23A2E7C064
:1013F0005C4DF19B5CCD82801C517D777D17F98F10
:101400001CD1835706001851B207D98F1CD11C512B
:1014100079777D17F98F1CD1835746001851B20791
:10142000D98F1CD1B7370140138707C06311E5027C
:1014300003A747C0F176FD16758F23A2E7C00357B7
:10144000860083A647C01A07558F23A2E7C05C4DCC
:1014500093F7F7CF45B785476382F50281C989477E
:101460006386F5028D47638BF50282801C4D93F7EE
:10147000F7F81CCD1C4D5D8E10CD82801C4D65771C
:101480007D17F98F1CCD1C4D2206F5B75C4D93F7E7
:10149000F7F85CCD5C4D5D8E50CD82805C4D6577FC
:1014A0007D17F98F5CCD5C4D2206F5B78547638CBF
:1014B000F50081C98947638AF5008D476389F50086
:1014C000828050D9828010DD828050DD828030C1E0
:1014D000828085476381F50281C989476386F50269
:1014E0008D47638AF50282801C4DDD9B1CCD1C4D0F
:1014F0005D8E10CD82801C4D7D771307F77FF98FAD
:101500001CCD1C4D2206EDB75C4DDD9B5CCD5C4DCA
:101510005D8E50CD82805C4D7D771307F77FF98F0C
:101520005CCD5C4D2206EDB75C45DD8D4CC58280FF
:101530005C4508496D8D09C533F5B7003335A0000A
:10154000828093C5F5FF0CC98280B717024098438B
:10155000B706FFE0B1061367170098C3D843758F2D
:10156000D8C39843B706F7FEFD16758F98C3984306
:10157000B706FCFFFD16758F98C3D843B70601DF89
:10158000FD16758FD8C323A607029843B706F7EA5E
:10159000FD16758F98C33707FF0098C794434167BE
:1015A000D98E94C39307F7FF37170240144313965D
:1015B000E60063440600FD17F5FBB71702409843A9
:1015C0009316E70063C3060001A0D843B706C4DF43
:1015D000FD16D8C3D843D8C3D84313670740D8C330
:1015E000D843758FD8C3D843B7062920558FD8C3A1
:1015F000D857BD76758FD8D7D857C166938616F160
:10160000558FD8D79843B7060004558F98C3B7179E
:101610000240984393164700E3DD06FE9843B70661
:101620000010558F98C3B7170240984393162700B0
:10163000E3DD06FE9843B7060001558F98C3B71740
:101640000240984393166700E3DD06FED843719B82
:10165000D8C3D84313672700D8C3371702405C4369
:10166000A18BF5DF8280371702405C4337060020EC
:10167000854689838D8B130606506386D70081C704
:1016800089466388D700B7177A00938707201CC262
:1016900082805C439396F70063DB06065C57939663
:1016A000F70063D106065C5758579183BD8B2183A1
:1016B000938617009377F70013872700C5476313B6
:1016C000F7005147B7177A0093870720B3D7D7029F
:1016D000B387E7023717024058573D8B0507B3D74A
:1016E000E702B7160240D842D442498393952600B8
:1016F0003D8B63D305021367070105073307F70224
:1017000018C28280B7177A0093870720E1B7B7170E
:101710003D0093870790F1B7BD46E300D7FE090768
:10172000E31ED7FC19473387E7028583BA9785B74D
:101730007971B705000822D47D462A84938505294E
:101740000A8506D697400000E78020A479468A855E
:10175000094597400000E78080D7A285094597009A
:101760000000E7808009B705000805469385052C31
:10177000094597400000E78080D501A07D55828013
:10178000011106CE2EC697400000E780C0D301C9E4
:10179000B24589670145DCC1F240056182807D5513
:1017A000E5BF7D15133525008280411106C697409F
:1017B0000000E78040D1B240133515003305A0404A
:1017C000410182807D5582803707002013074750F2
:1017D0001C43B7260020938606B33E95636BD50065
:1017E000B77600209386060063E5A60008C33E8511
:1017F0008280FD57EDBF79714ECEAE89B7050008E6
:1018000009469385052B22D426D24AD052CC56CAFB
:1018100006D62A89714497400000E78040CB3D4AB4
:10182000A54AF154B3178A00B3F73701B3D787003D
:1018300093F7F70F63ECFA029387070393F7F70F19
:1018400005469305F1004A857114A307F1009740FE
:101850000000E780C0C7E31794FCB25022549254B2
:101860000259F249624AD24A4561828093877703DE
:10187000F1B7B70700D1D8438843CC43E39DE5FED9
:101880008280B70700D223800700A38507001205D6
:10189000B71700D23E9563E3A700828023A007001C
:1018A000C107D5BFB71700D285070A053E95854702
:1018B0002300F5008280370700D283470700060522
:1018C000798993F7170E5D8D2300A7008280B707F3
:1018D00000D203C5070005813D898280411122C4E1
:1018E00026C206C62A84AE8497000000E78060FE08
:1018F0009147114763E3A7002A87371500D20A04EE
:101900000D052295834705009376F70FA145B39700
:10191000E70093F7F70F958DB394B400B3D7E74082
:10192000C58F93F7F70F2300F500B240224492448D
:1019300041018280011122CC2EC606CE2A84970056
:101940000000E78000F98D47814563E9A70237175A
:1019500000D20A040D07229783470700B245A1462B
:101960003385A6409205B3D7A74093F5F50FB397FB
:10197000A700CD8F93F7F70F2300F700F2406244E2
:101980002E8505618280F327503093F707FC93E79B
:101990003700739057308280B70500084111154613
:1019A0009385452B054506C697400000E78020B289
:1019B000054597000000E780E0D741119347F5FF08
:1019C00022C406C6139747012A8409E7970000003E
:1019D000E780C0FCB705000815469385C52B054573
:1019E00097400000E780A0AE228597000000E780C6
:1019F00060D4411106C697000000E78040B513058A
:101A0000700597000000E78000E897000000E7807D
:101A1000C0F7B240410117F3FFFF670003838280E4
:101A2000411122C437040020130404009305C403A9
:101A300006C626C2AA8497200000E780C05E9305F0
:101A40005403268597200000E780E05D930554024B
:101A5000268597200000E780005DB2402244924432
:101A600001454101828041119305100806C622C438
:101A70002A8497200000E780A0648D452285972066
:101A80000000E780E063228593052008972000008E
:101A9000E7800063B2402244014541018280411148
:101AA00006C691E997000000E780A0128947B2407E
:101AB0003E85410182808D468947E39AD5FEB7076E
:101AC00000200547238AE75097200000E7804073F5
:101AD000B707002023A8A75EB707002003A7475F2A
:101AE000814771D702978147D9B70547639DE502C2
:101AF0000327050F8357850EB377F70291EF09CFC0
:101B000041118146014606C697200000E780E06249
:101B1000B240014541018280B70700200547A38AF2
:101B2000E750014582800945828083C7150013076D
:101B300010026386E70213072002638FE70613078C
:101B40000002639CE700370700202324F750B717F3
:101B500000209387C7CF232AF526014582803707C7
:101B600000201307C7501443B71700209387C7CF2F
:101B700013D686002380D700A380C70013D60601A2
:101B8000E182A381D700834647002381C700232831
:101B9000F50C2382D7008346570003476700A382D2
:101BA000D7002383E70083C7750003C76500A2073A
:101BB000D98F232EF50C55B783C7350003C72500F1
:101BC000A207D98F37070020232CF75E79B7B70516
:101BD0000020938585509C411305F00F6386A70470
:101BE000B717002003C6D7CF83C6C7CF370700205B
:101BF0002206558E83C6E7CF1307C75088C1C20699
:101C0000558E83C6F7CF9387C7CFE206D18E14C314
:101C100083C647002302D70083C6570083C76700E7
:101C2000A302D7002303F7000145828079714AD0CF
:101C30004ECE5AC806D622D426D252CC56CA5EC63A
:101C400062C466C22A8B97000000E780C0C2AA89DE
:101C50002E8997000000E78000C2AA842E84639436
:101C6000A900E308B9FEB707000803A9073783A94D
:101C70004737B70B002097000000E780C0BFAA8756
:101C8000058DB3B7A700818D9D8D97600000E7801B
:101C9000202A2A8A03A50B50AE8A97600000E780AD
:101CA000C0234A86CE8697500000E780400E2A8CDB
:101CB0005A85AE8C97600000E78020222A86AE8687
:101CC0006285E68597500000E78040752A86AE86DB
:101CD0005285D68597500000E780006AE34D05F8ED
:101CE000B250225492540259F249624AD24A424BAB
:101CF000B24B224C924C45618280411106C622C4EF
:101D000026C2894723020500A300F5002300C50071
:101D100011CA0547630BE6080545B24022449244C8
:101D20004101828031472301E5001947A301E50005
:101D3000A302F500B7040440AE8705472303E5007E
:101D4000A303E5002A841306C00B81453E85973026
:101D50000000E780E044056793060780A69654C11B
:101D60009386044014C59386044434DD930607E04B
:101D7000A696232CD50A04C1834534001307079087
:101D8000AA8726979306C5000146636BB6020346F1
:101D900024000567938604509387C703BA9485652A
:101DA00001476368C70201458DBF21472301E50054
:101DB0001147A301E500A302F500B7040050ADBF31
:101DC0001305072098C288CE05061307070291065F
:101DD0006DBF94C3A4C30507938606029107AE9412
:101DE000C9B71C4201112EC6985F98478346D1009F
:101DF00022CC799B06CE26CA98C72AC405473284CE
:101E00006395E6063707100098DFD847B706E0FF6E
:101E10009386F6FB758FD8C7D847B706F0FFFD1637
:101E2000758FD8C7984B1367170098CB984B058BC5
:101E300075FF0D4597100000E780A0120347C10011
:101E40008547631EF7001C4098471367070298C731
:101E50009847059B98C798471367A70098C7F24013
:101E60006244D244014505618280D84793D405017C
:101E700093F4F40F13670704D8C7984B1367170040
:101E800098CB984B058B75FF0D4597100000E780A8
:101E9000400DB7072D0099C0B7073D0018405145C8
:101EA0001CDF97100000E780400C49BF71060A064E
:101EB0002A968D06898250468A06AE966394B600AD
:101EC0000145828003C7150083C7050091052207DD
:101ED0005D8F83C7E5FFC2075D8F83C7F5FFE2070C
:101EE000D98F1CC2E1BF0D060982785D0A062E96C5
:101EF0006394C5002E8582801C43910593D687008C
:101F0000238EF5FEA38ED5FE93D60701E183238FA2
:101F1000D5FEA38FF5FEE9BF184141119A0506C60B
:101F200093E505020CCB1C4B93F70702EDFF0D4523
:101F300097100000E780E002B24001454101828035
:101F40001841411106C6C1471CCB1C4BC18BF5FF84
:101F50000D4597100000E780C000B24001454101E7
:101F600082801C457D57D8C3370700C07D17D8CB6A
:101F7000371700801307078098CF0347450009E70C
:101F8000984F1367070198CF984FB7360C00A906F2
:101F9000558F98CF984701451367170098C78280DF
:101FA0001C45B70600A04111D847FD1622C406C63D
:101FB00026C2758FD8C7D847B70600407976558FA7
:101FC000D8C70327050C1306F67F2A8423200700B1
:101FD00058451443F18E14C3144314C31443F19AA7
:101FE00014C3034605008546631AD602144393E6DC
:101FF000360014C313070008D8D33707400013076F
:10200000070898D7370780001307070C23A2E710AB
:102010001307001423A4E71023A6E71093048400F9
:10202000C145268597000000E78040EF2685970090
:102030000000E78020F15C447D57814623A807001B
:1020400023AA070098CF23AE0700034834001307E4
:102050004401B70500481305F00F63ED0601228522
:1020600097000000E78020F0B240224492440145EE
:10207000410182801C4390436355060290434D8E7C
:1020800090C323A8070088C71C4F9043635E0600D7
:1020900090434D8E90C323A8070088C7850611077B
:1020A0006DBF23A00700F1BF23A00700EDB758457F
:1020B0005C4393E727005CC3828058455C43F59BF3
:1020C0005CC382805C45920598431377F78098C380
:1020D0009843D98D8CC38280984183870500411134
:1020E00002C63D8B63D9070693172700AA97DC4BDE
:1020F0008546B396E60036C69443504513950601CF
:10210000634405049443370534FC13050580E98EC8
:1021100094C329EF144603A8070013F56600B79689
:102120000008938646DDAA9683C60600B3E606013C
:1021300094C383C6150088435A07CA06558F498F32
:10214000B7860010558F98C332475C4E0145D98F32
:102150005CCE41018280930787008A07AA97130605
:1021600007018546DC47B396C60071B7884383D61E
:102170004500C98E75BF9C4103870500BD8B635523
:10218000070205473317F7008A07AA97D04B1C426E
:10219000E176FD16F58F1CC25C451347F7FF01453C
:1021A000D44F758FD8CF828093860701A1078A0705
:1021B0000547AA973317D700D047D1BF90410111E7
:1021C000B70600E03D8A93172600AA97D84B06CEA3
:1021D0001C433EC41C4B3EC6B247F58F3EC6DC4591
:1021E000A5E7B247B7060800D58F3EC6B2471CCB5D
:1021F0008346450085476394F6009C4D5CCB03C83D
:1022000015008547631CF8005C459C4793F7071051
:10221000B5CFA247B7060020D58F3EC4A247B70668
:102220000084D58F3EC4A247D4451CC385476303B1
:10223000F80699C658453396C700545B558E50DB57
:10224000F24001450561828083D645001DE663F3B7
:10225000F600B687DCC5B247B7060800D58F3EC684
:10226000B247D445D58F83C615003EC68547E39F48
:10227000F6F6B247B706006085BFFD17B697B3D72D
:10228000D7023248CE07B3E70701D1BFA247B7064E
:10229000001059B78C45C206C18221059700000085
:1022A000E78000C171BF9841D4453D8B93078700FB
:1022B0008A07AA9783A8C700B70700E003A608000B
:1022C00003A808013378F80083D7450091C239E3A9
:1022D0003368F800B7070800B3E7070123A8F80040
:1022E0000347450085476315F7009C4D23AAF80076
:1022F00003C7150085476318F70083C735009DC7DE
:10230000B70700205D8EB70700845D8E23A0C8004C
:10231000014582801387F6FF3E973357F7029316E5
:10232000370133E80601B307F7027DB7B70700109E
:10233000D1BF9C4103870500BD8B635407028A0708
:10234000AA97DC4B9843635707009843B7060040B1
:10235000558F98C39843B70620000145558F98C301
:102360008280A1078A07AA97DC47EDB79C410387C3
:102370000500BD8B635A07028A07AA97DC4B984376
:10238000B706E0FFFD16758F98C303C71500854695
:1023900079171377F70F63E7E6009843B706001045
:1023A000558F98C301458280A1078A07AA97DC4709
:1023B000F9B75C45884FDC4F7D8D41811375F5037E
:1023C0008280A1058A05AA95DC4598475C45C84BE3
:1023D000798D82805C45884FDC4F7D8D1375F503C8
:1023E00082805845144B5C5B139725003A955849F9
:1023F000B3D7B7009E07084793F7F70FD58F7D8DAA
:1024000082805C5537070860610798CB834645009A
:102410000547639AE60013054542C8CB9843B78643
:102420000080558F98C382808347750091CB5C45AF
:102430009C47858B91C70327050C1C43F19B1CC34C
:1024400082801C45D84B058B631C0712411126C2A4
:10245000C44B9C4F06C622C44AC0FD8C638C04103A
:102460009397C4002A8463D6070097000000E78092
:1024700080119397D40063D707002285970000004E
:10248000E780402085679387078033F7F40019C3FE
:1024900018445CCB63DC04008347740C370700806E
:1024A00093F7F70F2303F40C1C44D8CB93F72400C5
:1024B00081C71C440947D8CB93F78400B1C7832751
:1024C00004439C4F99C32285829737090020130942
:1024D000C95F8347090093F7F70F85C78347090052
:1024E0000947850793F7F70F2300F9008347090091
:1024F0006379F700228597200000E78000392300E8
:1025000009001C442147D8CB93F7040191C72285C9
:1025100097000000E780C0229397340163D707003B
:10252000228597000000E780002E9397240163D74F
:102530000700228597000000E780003A9397B400D7
:1025400063DC070083270443DC4F99C3228582970D
:102550001C4437071000D8CB9397A40063DC070016
:10256000832704439C5399C3228582971C443707D1
:102570002000D8CBB24022449244024941018280DB
:102580008280397122DC26DA4AD84ED652D456D20D
:102590005AD05ECE62CC06DE66CA2A84370A0800AC
:1025A00097000000E78020E12A898144B70A0020D3
:1025B000214B8549994B614C7D1A63100902F250F9
:1025C0006254D2544259B259225A925A025BF24B87
:1025D000624CD24C05452161828093771900C9CFA6
:1025E00093FCF40FE685228597000000E780A0DDCC
:1025F0002AC4A247858BA1CF93972400A297D857CE
:102600002324370183464400639F3601184B3AC6A2
:1026100033878403B246B3F64601BA9703D7072738
:10262000158F23AEE726E685228597200000E780F8
:10263000002F83474400639C370191E88347C442DD
:1026400063977701228597000000E780C0DBA247EF
:10265000A18B9DC395E0938CCA5F83C70C0093F751
:10266000F70F99CB228597200000E78000225C5469
:1026700023800C0023A4670113591900850435BF7A
:10268000797122D426D24AD04ECE52CC56CA06D622
:102690005AC82A8497000000E78000D42A89814420
:1026A000130A00088549954A631D0900B250225457
:1026B00092540259F249624AD24A424B0545456159
:1026C000828093771900BDC713FBF40FDA8522854A
:1026D00097000000E78020D12AC6B247858B9DCBAA
:1026E00093972400A297DC4BDA85228523A4370137
:1026F00097200000E780003183474400639C370146
:1027000091E88347C44263975701228597000000F0
:10271000E78060CFB24793F7070889CFA685228567
:1027200097000000E780C02193972400A297DC4B1C
:1027300023A44701135919008504BDB71C45011195
:1027400002C6984F22CC26CA4AC83D9B06CE98CFD7
:102750009C5389462A893EC63244B2443247B24726
:1027600091803D88C583BD8B93F4F47F6382D7024B
:1027700099466387D70403278900F24062441C4FBF
:10278000D244424993E707011CCF05450561828089
:10279000FDD0F1473304F40226862A94832544278A
:1027A000210597F0FFFFE780407483274427A69711
:1027B000232AF4268327C427BE94232E942665BF9C
:1027C000F1473304F4023D830D8B2A948347C426DA
:1027D000BD8BD98FCDF3A147E39FF4F89305454214
:1027E0002146210597F0FFFFE78020708327C4274B
:1027F0000547A107232EF426B7070020238EE75EA6
:102800009DBF5845411122C45C4306C626C2F99BB0
:102810004AC02A845CC38145210597F0FFFFE78009
:10282000E06F034634009307440101479306F00F1D
:10283000636BC7085C447D57854498CF41670507A3
:10284000D8CF2547D8CB84CB9843228513090004E1
:102850001377F78098C3A302040C97000000E78069
:1028600080BA1C4405677146D8CB9307C4263E85C1
:10287000814597300000E780A092AA85231824277D
:10288000228597000000E78060859307840C7146DD
:1028900081453E8597300000E7808090130700F85F
:1028A0002316240D2304E40CAA852285970000003A
:1028B000E780C082B2402303940C22449244024930
:1028C0000545410182808C430507910794C5CC4B97
:1028D00094C5B9BF5C4571761306F63F9847D4435B
:1028E000058393F6F6EFD4C3D44393E60610D4C31E
:1028F0001C45D447F18ED4C793763700379700082C
:10290000130787DD3697034707008D46631ED70000
:10291000A300E500D847896693860640558FD8C73F
:102920000967D8CB054582800947A300E500D84751
:10293000856693860640558FD8C7DDB7F147B387C4
:10294000F50279714ECE06D622D426D24AD052CC88
:1029500056CA5AC8AA9703A7470D83A6870D83D7DF
:10296000C70C5EC662C4158FAA896373F700BA8765
:10297000714433848502854A8D07B39ABA00139B4C
:102980002500C16B13DA270093CAFAFF4E9BFD1B8B
:102990004E9413F9F50F138C890083274B01984F40
:1029A000337777016378EA000327840D8327440D8A
:1029B000636FF700B250225492540259F249624AAE
:1029C000D24A424BB24B224C05454561828083542A
:1029D000C40C998F63F39700BE848325040D9396EE
:1029E000040193873400C1824A86628513DA270086
:1029F00097F0FFFFE780C04B8327840D0327040D6A
:102A00002697BE948327440D2328E40C232C940C92
:102A1000E395F4F883A7C900D85B33775701D8DB77
:102A2000ADBF39713ECCB707002083A7076006DE33
:102A300016DCDC4F1ADA1ED82AD62ED432D236D083
:102A40003ACE42CA46C872C676C47AC27EC082975F
:102A5000F250E2525253C2533255A2551256825688
:102A60007247E2475248C248324EA24E124F824F3E
:102A700021617300203039713ECCB707002083A755
:102A8000076006DE16DC83A7070E1ADA1ED82AD6E0
:102A90002ED432D236D03ACE42CA46C872C676C496
:102AA0007AC27EC08297F250E2525253C2533255DC
:102AB000A255125682567247E2475248C248324ED9
:102AC000A24E124F824F21617300203039713ECCEB
:102AD000B707002083A7076006DE16DC83A747112F
:102AE0001ADA1ED82AD62ED432D236D03ACE42CADC
:102AF00046C872C676C47AC27EC08297F250E2524D
:102B00005253C2533255A255125682567247E2476B
:102B10005248C248324EA24E124F824F216173007A
:102B2000203079714AD04ECE5AC806D622D426D249
:102B300052CC56CA5EC662C466C22A8B97F0FFFFAB
:102B4000E78060D3AA892E8997F0FFFFE780A0D2A3
:102B5000AA842E846394A900E308B9FEB70700088D
:102B600003A9073783A94737B70B002097F0FFFF6A
:102B7000E78060D0AA87058DB3B7A700818D9D8DB2
:102B800097500000E780C03A2A8A03A50B50AE8A0E
:102B900097500000E78060344A86CE869740000058
:102BA000E780E01E2A8C5A85AE8C97500000E780A3
:102BB000C02B2A86AE866285E68597500000E780A6
:102BC000E0852A86AE865285D68597400000E7804C
:102BD000A07AE34D05F8B250225492540259F249BA
:102BE000624AD24A424BB24B224C924C456182809F
:102BF000011122CC004126CA4AC822854EC652C4C1
:102C000006CEAE84328A3689BA8997E0FFFFE78024
:102C1000802093050050228597E0FFFFE780A021E8
:102C20006DD986047956A685228597E0FFFFE78057
:102C3000C01C93051050228597E0FFFFE780A01F7E
:102C40006DD993051050228597E0FFFFE780E01FC4
:102C500093057050228597E0FFFFE780C01D6DD976
:102C6000D285228597E0FFFFE780201C93057050F6
:102C7000228597E0FFFFE780001C6DD9228597E051
:102C8000FFFFE780401993050050228597E0FFFF82
:102C9000E780601A6DD90546A685228597E0FFFF7B
:102CA000E780A01593051050228597E0FFFFE7808D
:102CB00080186DD993051050228597E0FFFFE780BB
:102CC000C0188545228597E0FFFFE7808011814489
:102CD000130AF9FF63C32403228597E0FFFFE7800F
:102CE00020141C4093F70720EDFFF2406244D244C9
:102CF0004249B249224A0561828063189A0081459F
:102D0000228597E0FFFFE780C00D93056050228584
:102D100097E0FFFFE78020126DD9228597E0FFFF43
:102D2000E780E010B38799002380A70085045DB792
:102D3000011122CC004126CA4AC84EC652C406CE52
:102D40002E8AB2843689BA8993051060228597E06D
:102D5000FFFFE780400E6DF9228597E0FFFFE780D7
:102D6000800B93050050228597E0FFFFE780A00CC1
:102D70006DD9795693151A00228597E0FFFFE780F9
:102D8000C00793051050228597E0FFFFE780A00A57
:102D90006DD993051050228597E0FFFFE780E00A88
:102DA00093057050228597E0FFFFE780C0086DD93A
:102DB000A685228597E0FFFFE780200793057050E6
:102DC000228597E0FFFFE78000076DD9814463C348
:102DD0002403228597E0FFFFE78080041C4093F7DF
:102DE0000720EDFFF2406244D2444249B249224AF0
:102DF00005618280B387990083C50700228597E02B
:102E0000FFFFE780800293057050228597E0FFFF67
:102E1000E78060026DD985045DBFE165411101461F
:102E20009385056A22C406C62A8497E0FFFFE780DF
:102E300020E722852244B240410117E3FFFF6700EB
:102E4000E3FC411122C43714002006C62322A4D07B
:102E500097000000E780A0FC930644D02244B240D3
:102E600037360008B735000837350008130626B294
:102E7000938505D3130505BF4101171300006700B3
:102E8000C3D14111014506C697E0FFFFE7808004EA
:102E90003777DC02B7070020130707C09387476026
:102EA0006317E5023707400098C38D4637170020A7
:102EB0002324D7D0884397E0FFFFE7806000B2402B
:102EC0001305C050410117E3FFFF6700A3FA37A7BE
:102ED0004A04130707206318E50023A007003717EB
:102EE00000209546F1B737E7B80513070780E313CD
:102EF000E5FC3707C00098C39D46371700204DBF3B
:102F00004111014685451305600506C697E0FFFFA0
:102F1000E780C0BE1305C07197E0FFFFE78080F532
:102F20003705040097E0FFFFE78080CB014681452D
:102F30003705040097E0FFFFE78080BF37050400F6
:102F400097E0FFFFE780C0C8B24001468D451305FA
:102F5000D003410117E3FFFF670043BA82801713D4
:102F60000000670063E4171300006700C3DC370547
:102F700000201305850617F3FFFF6700C34C4111BE
:102F800022C43704002006C69307840683C777004F
:102F90008DCB97100000E78020FAB707002003A52B
:102FA000476097E0FFFFE780A0F11305C05097E06E
:102FB000FFFFE78020EC1305840697F0FFFFE78012
:102FC000E0462244B24037050400410117E3FFFF09
:102FD000670003C179714AD04ECE5AC806D622D4B2
:102FE00026D252CC56CA5EC662C466C22A8B97F0FD
:102FF000FFFFE7804088AA892E8997F0FFFFE780CE
:103000008087AA842E846394A900E308B9FEB707D9
:10301000000803A9073783A94737B70B002097F0AB
:10302000FFFFE7804085AA87058DB3B7A700818D94
:103030009D8D97500000E780A0EF2A8A03A50B50D2
:10304000AE8A97500000E78040E94A86CE869740D6
:103050000000E780C0D32A8C5A85AE8C97500000C0
:10306000E780A0E72A86AE866285E6859740000065
:10307000E780C03A2A86AE865285D6859740000002
:10308000E780802FE34D05F8B25022549254025944
:10309000F249624AD24A424BB24B224C924C4561B1
:1030A0008280411122C4B707002037040020032783
:1030B000C46083A7076106C626C2630AF7083745BE
:1030C000004089451305058097E0FFFFE780C0FABF
:1030D0002DC589653715014097E0FFFFE78060BB8C
:1030E0001304C4601440B7070020138707638A06DF
:1030F000369714431307F00F93840763A1653715C0
:1031000001406351D70497E0FFFFE78040B81C40BF
:103110003745004013050580138717008A07A697D7
:1031200083C5070018C097E0FFFFE780E0F31C406D
:1031300013070010B3E7E7021CC0B24022449244D8
:103140004101828097E0FFFFE780A0B4C9B7224425
:10315000B2409244896537150140410117E3FFFFF2
:103160006700E3B2411122C426C206C6B70400209C
:103170003704002003A7C460832704616317F700A6
:10318000B240224492444101828097000000E780CF
:1031900080F1CDB7011122CC26CA4AC806CE370924
:1031A00000209304001037040020130609611C421C
:1031B0008326C46013871700336797026301D70221
:1031C00093962700B7070020F24062449387076375
:1031D000B69788C318C2D2444249056182802AC684
:1031E00097000000E78020EC3245C1B7411122C4AE
:1031F0002A8421851305051006C697000000E78084
:10320000A0F91375F40F2244B240130505104101D3
:1032100017030000670043F8011122CC26CA3704C7
:103220000020AA841305A00206CE36C22EC61304BF
:10323000846032C497000000E78000F60345240054
:10324000269597000000E780A0FA22460345240057
:10325000329597000000E780A0F91305B0029700AF
:103260000000E78060F3B245034534002E959700D7
:103270000000E780E0F7034534009246369597005A
:103280000000E780E0F66244F240D2441305C00239
:10329000056117030000670023F079718965371510
:1032A000014006D622D497E0FFFFE780409E480009
:1032B00097E0FFFFE780A0D5930740103EC28D47FF
:1032C000374400403ECC930700203EC84C00A14745
:1032D000130504803ECE02C402C602CA97E0FFFF77
:1032E000E78080D4130504809D4597E0FFFFE780C9
:1032F000E0D71305048097E0FFFFE78040D6B25087
:1033000022544561828009E9B707011A3707002076
:1033100085072324F76082808547E31EF5FEB70703
:1033200000183707002093871710E5B7B70700206C
:1033300003C78760411122C406C61384876011E762
:10334000014597000000E78040FC1305306097E0DE
:10335000FFFFE78020B21305406097E0FFFFE780A2
:1033600060B11305006097E0FFFFE780A0B0130590
:10337000E07097E0FFFFE780E0AF37150140B966E6
:103380000D46E145130505C097E0FFFFE780E085A6
:10339000A9660D46C1453715014097E0FFFFE7805C
:1033A000C08497000000E78080EFA96537150140D1
:1033B00097E0FFFFE780E08D97000000E780C0DA2C
:1033C0001305400697000000E78000C105459700FF
:1033D0000000E78060DC97000000E780E0D813057C
:1033E000800797000000E78020BF45459700000058
:1033F000E78080DA97000000E78000D713054006D9
:1034000097000000E78040BD8347140013052002A9
:1034100099E31305100297000000E780E0D7130539
:10342000100B97000000E78020D71305501097007D
:103430000000E78060D61305A01397000000E78026
:10344000A0D51305A01397000000E780E0D4130572
:10345000200B97000000E78020D413055010970040
:103460000000E78060D31305A01397000000E780F9
:10347000A0D21305A01397000000E780E0D1130548
:10348000300B97000000E78020D113055010970003
:103490000000E78060D01305A01397000000E780CC
:1034A000A0CF1305A01397000000E780E0CE13051E
:1034B000501097000000E78020CE1305A01397005E
:1034C0000000E78060CD1305A01397000000E7809F
:1034D000A0CC1305400B97000000E780E0CB13055C
:1034E000301097000000E78020CB1305000C9700F8
:1034F0000000E78060CA1305201697000000E780EF
:10350000A0C91305201097000000E780E0C813054C
:10351000401097000000E78020C81305100C9700AA
:103520000000E78060C71305001C97000000E780DB
:10353000A0C61305200C97000000E780E0C5130526
:10354000D01097000000E78020C5130500109700F9
:103550000000E78060C41305300C97000000E7808E
:10356000A0C31305D01897000000E780E0C2130540
:10357000A01697000000E78020C21305400C9700BA
:103580000000E78060C11305D01897000000E780B5
:10359000A0C01305E01E97000000E780E0BF130500
:1035A000500C97000000E78020BF1305E010970043
:1035B0000000E78060BE1305000E97000000E78062
:1035C000A0BD1305001197000000E780E0BC1305C3
:1035D000E01097000000E78020BC13052010970042
:1035E0000000E78060BB1305301097000000E78003
:1035F000A0BA1305E01097000000E780E0B91305BA
:10360000701097000000E78020B913052010970084
:103610000000E78060B81305701097000000E78095
:10362000A0B71305A01097000000E780E0B61305CF
:10363000201197000000E78020B613057012970054
:103640000000E78060B51305701397000000E78065
:10365000A0B41305001097000000E780E0B3130545
:10366000D01097000000E78020B31305E01097000A
:103670000000E78060B21305001197000000E780AA
:10368000A0B11305100E97000000E780E0B013050D
:10369000001197000000E78020B01305E0109700AC
:1036A0000000E78060AF1305301097000000E7804E
:1036B000A0AE1305301097000000E780E0AD1305C1
:1036C000F01097000000E78020AD13056010970010
:1036D0000000E78060AC1305201097000000E78031
:1036E000A0AB1305801097000000E780E0AA130547
:1036F000A01097000000E78020AA13053011970062
:103700000000E78060A91305601297000000E780C1
:10371000A0A81305601397000000E780E0A7130539
:10372000001097000000E78020A71305D010970035
:103730000000E78060A61305E01097000000E78016
:10374000A0A51305001197000000E780E0A4130571
:10375000A00397000000E78020A4130550109700F5
:103760000000E78060A31305600397000000E78076
:10377000A0A21305801797000000E780E0A1224473
:10378000B240130590024101170300006700C3A077
:1037900041114AC09306F0042A891306F0098145B5
:1037A000014526C206C622C49304000A9700000001
:1037B000E780C0A6130400054A857D149700000029
:1037C000E78000A375F8FD14F5F4B240224492445A
:1037D000024941018280411122C4AE8632842A8688
:1037E00006C697000000E78060A322852244B2400D
:1037F0004101170300006700A39F397122DC26DA1C
:103800004AD84ED662CC06DE52D456D25AD05ECEBC
:1038100066CA6AC83304A640B384B6402A89AE8912
:10382000054C63478000014C01C4330480407D5C3B
:10383000854C63479000814C81C4B3049040FD5C8B
:10384000228A63539400268A014B814A814B130DCF
:103850001A003A86CE854A853AC6A29A9700000099
:10386000E780A0F7269B324763555A01B38A4A4145
:10387000629963556A01330B4B41E699850BE3EA84
:10388000ABFDF2506254D2544259B259225A925A64
:10389000025BF24B624CD24C424D21618280330775
:1038A000C6025D71A2C4A6C2CAC05ED662D486C674
:1038B0004EDE52DC56DA5AD866D26AD06ECEAA8B69
:1038C0002E8C368932848144B3099C40B38A8B4064
:1038D000CE854A8656853AC6330D7401970000009E
:1038E000E780A0EFCE854A866A8597000000E780D2
:1038F000C0EE338A9B40330B840152854A86DA85B9
:1039000097000000E78060EDB30C8C405285939DDA
:1039100014004A86E68597000000E78000ECEE99E7
:103920004A86CE856A8597000000E78000EB6E9A94
:103930004A86E685528597000000E78000EA4A86BD
:10394000DA85528597000000E78020E94A86CE8517
:10395000568597000000E78040E88504B38794020D
:103960003247B3068402B6976353F7007D14E35DD4
:1039700094F4B640264496440649F259625AD25A03
:10398000425BB25B225C925C025DF24D61618280BF
:1039900001114EC6AE890C4122CC2A844E8526CA1E
:1039A0004AC806CEB28497500000E78040D4930501
:1039B00000002A8997500000E780E0CB635605009D
:1039C000B707008033C92701B707000883A58737E9
:1039D0004A8597500000E78000CA634BA0041C444E
:1039E00091E785471CC444C0232604005040B757C4
:1039F00012009387F7F7918C014563F797005844BD
:103A000019EB85475CC40545F2406244D244424903
:103A1000B24905618280B7A724009387F7EFE3F5E9
:103A200097FE8547E312F7FE89475CC40945E9BF65
:103A30002320340123240400232604000145E9B790
:103A40007971014685451305F00206D622D497D038
:103A5000FFFFE780A00A1305007097D0FFFFE78003
:103A600060413705004097D0FFFFE780806108087C
:103A700097D0FFFFE780006EB5679387072F0C088C
:103A80000544370500403ECC22C8231A0100231EFE
:103A9000010097D0FFFFE780606D480097D0FFFFDF
:103AA000E7804076500081453705004023128100B1
:103AB000231401002316010097D0FFFFE780207632
:103AC0001D661306869781453705004097E0FFFF86
:103AD000E780009E014681453705004097E0FFFFE3
:103AE000E780A097014681453705004097E0FFFF3A
:103AF000E780609E89453705004097E0FFFFE7803B
:103B0000E0A289453705004097E0FFFFE780A0A3CA
:103B10003705004097D0FFFFE780206EB250225457
:103B200045618280411189453705004006C697E00E
:103B3000FFFFE78020A085476312F502B70700204A
:103B4000938787619843B2408945050798C3370535
:103B50000040410117E3FFFF6700E39EB2404101CF
:103B60008280B72700209387C7B1328703A307005D
:103B70002A86C847AE86930590060283B7270020A1
:103B80009387C7B1328703A347002A86C847AE860A
:103B9000930590060283011122CC3724002093075D
:103BA000C4B106CE88C3CCC390C7130550073000FC
:103BB0008545D4C797000000E780E0FA03478100FD
:103BC000C5477D55631FF70C930700F81305B00632
:103BD000700085452306F1001304C4B1970000006E
:103BE000E78000FA1C441305400682978307810092
:103BF00063CD070A1C441305400609448297A54774
:103C0000700085451305B0062306F10097000000FB
:103C1000E78000F7700085456545230601009700A1
:103C20000000E780E0F570008545694523068100C6
:103C300097000000E780C0F4E147700085456D45BE
:103C40002306F10097000000E78080F3C147700071
:103C5000854571452306F10097000000E78040F29A
:103C60007000854575452306810097000000E780B8
:103C700020F1930720037000854513057003230688
:103C8000F10097000000E780A0EF8547130580034F
:103C9000700085452306F10097000000E78040EEA4
:103CA0000545F24062440561828030008545130578
:103CB000B00697000000E78000EB0DBF011122CC99
:103CC00030002A8499451305B00306CE9700000002
:103CD000E78060E983178100A303F100A183230338
:103CE000F1000315610097500000E780A0DD831705
:103CF000A10008C0A303F100A1832303F100031571
:103D0000610097500000E780E0DB8317C10048C0E6
:103D1000A303F100A1832303F10003156100975071
:103D20000000E78020DA08C4F240624405450561DE
:103D30008280011122CC4EC652C406CE26CA4AC881
:103D4000AA8997E0FFFFE78000B32A8A2E8497E0D4
:103D5000FFFFE78040B2AA842E896314AA00E3081B
:103D6000B4FE0564370A0020130404FA97E0FFFF4D
:103D7000E78060B083270A50330795403335E5006C
:103D8000B3D78702B3852541B38737036394A50072
:103D9000E36EF7FCF2406244D2444249B249224AFF
:103DA00005618280011122CC4EC652C406CE26CABD
:103DB0004AC8AA8997E0FFFFE780E0AB2A8A2E84F1
:103DC00097E0FFFFE78020ABAA842E896314AA0046
:103DD000E308B4FE37143D00370A002013040490B2
:103DE00097E0FFFFE78020A983270A50330795401B
:103DF0003335E500B3D78702B3852541B387370351
:103E00006394A500E36EF7FCF2406244D244424959
:103E1000B249224A05618280411106C6970000001E
:103E2000E78080117350003297D0FFFFE78020CCED
:103E3000094597D0FFFFE780E0CB97F0FFFFE780D1
:103E4000800497F0FFFFE780A01197F0FFFFE78065
:103E5000600BB240370600203705002013064604E9
:103E60008545130585064101170300006700633D82
:103E7000B70700209387870603C5670C75151335B0
:103E80001500828001114AC84EC606CE22CC26CA31
:103E900052C456C2AE89328997E0FFFFE780A09DE9
:103EA0009307002063F4270113090020E164938441
:103EB000046AAA94370A002033B5A400D28A3304D6
:103EC000B50083475A5199EB97E0FFFFE780A09A2E
:103ED000E3E985FE6314B400E36595FE3716002020
:103EE000A38A0A500144930706A3631B2403931675
:103EF000040137050020C182130606A393051008AC
:103F00001305850697000000E78020232285F240F4
:103F10006244D2444249B249224A924A05618280AF
:103F20003387890083460700338787000504230011
:103F3000D70065BFB71702409843B706FFE0B10648
:103F40001367170098C3D843758FD8C39843B70633
:103F5000F7FEFD16758F98C39843B706FCFFFD1654
:103F6000758F98C3D843B70601DFFD16758FD8C388
:103F700023A607029843B706F7EAFD16758F98C384
:103F80003707FF0098C794434167D98E94C39307BE
:103F9000F7FF3717024014431396E6006344060008
:103FA000FD17F5FBB717024098439316E70063C36C
:103FB000060001A0D843B706C4DFFD16D8C3D84316
:103FC000D8C3D84313670740D8C3D843758FD8C325
:103FD000D843B7061D20558FD8C3D857BD76758FE7
:103FE000D8D7D857B706000113671700D8D798431A
:103FF000558F98C3B7170240984393166700E3DDC7
:1040000006FED843719BD8C3D84313672700D8C393
:10401000371702405C43A18BF5DF17D3FFFF670022
:10402000C364411106C603C7550083C7450003C6D4
:10403000250022075D8F93178601E18763D207066B
:10404000F1479376F607B386F6029387860CAA9615
:1040500003C8860CAA97136808F82384060D83C644
:1040600007003D8A1377F70FC19A558E2380C7004A
:104070002392E70003C73500BE850D8B93162700FA
:10408000370700081307C73D36971843A380E7009A
:1040900097E0FFFFE7808004B24001454101828044
:1040A000F146B306D6029387C626AA9603C8C6264B
:1040B000AA971378F8072386062755B741119397D7
:1040C000850106C6E18763D2070293F5F507F1473C
:1040D000B385F5029385850CAA9597E0FFFFE780ED
:1040E000C009B240014541018280F147B385F50224
:1040F0009385C526D5B793F7F507F145B387B70282
:10410000411106C605479385C726AA9723AAC72645
:1041100023ACD72623AE072683464500AA95639491
:10412000E60023A2C72897E0FFFFE7800018B2400F
:1041300001454101828093F7F507F145B387B70246
:10414000411106C605479385870CAA9723A8C70C7B
:1041500023AAD70C23AC070C83464500AA95639489
:10416000E60023A0C70E97E0FFFFE7806005B2409E
:1041700001454101828041119397850106C6E1877F
:1041800063D5070293F5F507F147B385F5029385EB
:10419000850CAA9585472381F50097E0FFFFE7800E
:1041A0008019B240014541018280F147B385F50293
:1041B0009385C526F9BF41119397850106C6E1870E
:1041C00063D4070293F5F507F147B385F5029385AC
:1041D000850CAA952381050097E0FFFFE780401931
:1041E000B240014541018280F147B385F5029385D4
:1041F000C526C5B717E3FFFF670003EDF147B38599
:10420000F502AA9503D5C5278280411106C697E01D
:10421000FFFFE780C0EAB2400D45410117F3FFFF01
:104220006700A3D4411106C697E0FFFFE78060E86E
:10423000B2400D45410117F3FFFF670003D3411161
:1042400006C622C426C2930485002328C5422E86B2
:10425000A6852A8497E0FFFFE78060AA4C400840CB
:10426000268697E0FFFFE78000B8228597000000D0
:10427000E78080FB228597E0FFFFE780A0D22285C0
:1042800097000000E780A0F885472303F40CB240B4
:1042900022449244410182800545828003254541A4
:1042A000834705002310F60082800325854183475C
:1042B00025002310F6008280832705428A05AE97E9
:1042C0008843834705002310F6008280411122C4F1
:1042D00026C206C683C705002A84AE848D8B8DCF87
:1042E00005476385E70C0327C40D054561C783C7F0
:1042F000740083C66400A207D58FCDCF6371F70C1D
:104300008357C40C01456367F70A3375F70255E913
:104310008547A306F44279A883C7250083C53500E5
:104320000947A205DD8D93D7850093F5F50F638CC2
:10433000E704636BF7020547E397E7FA1306C50D39
:1043400097000000E780C0F52328A40C83C7740001
:1043500003C76400A207D98F13070004E395E7F8A9
:10436000A147232EF40C41B70D476387E7023D4771
:10437000E39BE7F68327C54103C727002328F50CF5
:10438000231EE50C8DB71306C50D97000000E780CE
:1043900000F22328A40C81BF9547E3E6B7F4130687
:1043A000C50D97000000E78060F1E5B7832705435E
:1043B000DC478297B2402244924441018280232EFE
:1043C000F40C0145C5BF41114AC006C622C426C22D
:1043D00083C72500370900201309C9612300F900AC
:1043E000854663EDF6000347650C89442A841377FC
:1043F000F70F630797000D466309C702854439A884
:10440000814489CF832705438545DC4382978347D1
:1044100009002302F40C8D472303F40CB24022441C
:104420002685024992444101828091EF832705430A
:1044300081459C478297834709002303940C81445C
:104440002302F40CE1BF8347450C8144E388D7FC89
:104450008327054385459C47829783450900832729
:10446000044322852302B40CDC43829745BF83C6F4
:10447000550003C7450003C60500A206D98E0D8A64
:104480008545AA8713F7F60F6303B60411C689455D
:104490006302B606054582800347650C894663883A
:1044A000E6000347650C8D4605456394E60483C624
:1044B000274103C7074189C6B336E00093E62600CB
:1044C00037070020130707622300D70029A8834677
:1044D000650C0D460545631ED600636CE500370785
:1044E00000201307076223A8E70C094723AEE70C57
:1044F000014582800346650C8D450545E39BC5FE5D
:10450000E206E18663DB0600F1461377F70733071F
:10451000D7023E978346A70C65B7F1463307D7020B
:104520003E978346E72669BF0347650C8946AA87FD
:104530001377F70F6307D7008D466301D702054550
:1045400082800347450C054565FF1387470C23A868
:10455000E70C054723AEE70C014582800347450C75
:1045600079DFE5B78347650C0D476311F70203C791
:104570004500854763EAE70003270543232EF50C32
:10458000814705072328E50C3E8582808547EDBFDE
:104590008347650C0D476310F70203C74500854745
:1045A00063E9E7008327054303C72500A380E700ED
:1045B00081473E8582808547EDBF03C7550083C68E
:1045C00045002207558F01CB054582800545B24045
:1045D00022444101828003C7750083C6650022071B
:1045E000558F7DF3411122C406C683C525000347BC
:1045F000650C8D4693F5F507A302B50C2A84E38775
:10460000E6FC97000000E78020BF8347540C91C769
:1046100089472303F40C01455DBF8547DDBF411188
:1046200006C622C483C705002A878D8B8DCF894695
:1046300005446391D7068347650C0D470544631B0A
:10464000F70483C7350003C725000144A207D98FAB
:10465000B1E383C5450093F7F5078DCF97000000C0
:10466000E780A0B105A88347650C89466388F600FA
:104670008347650C8D460544639EF60083C735006D
:1046800083C625000144A207D58F85466394D700D1
:104690002309F7402285B240224441018280411122
:1046A00026C206C622C44AC003C70500AA840D8BD1
:1046B00029C7894605496319D7060347650C8D4606
:1046C00005496393E60603C7350083C62500014903
:1046D0002207558F31EB03C745009376F707A9C62C
:1046E0002E84BA8597000000E78020AD83A704439D
:1046F000A2852685DC47829705A80347650C894675
:104700006388E6000347650C8D460549639EE60015
:1047100003C7350083C6250005492207558F631559
:104720002701238904400149B24022444A8592442A
:10473000024941018280014582800145828083C710
:10474000150013972700B70700089387C73EBA974D
:1047500003A3070002838346650C0D46854763105B
:10476000D60283C64500854763EBD7008327054300
:10477000411106C6DC478297B240410182803E85E6
:1047800082800145828041119305000806C622C43B
:104790002A8497000000E780409E2285814597008B
:1047A0000000E780809D22852244B240410117E34A
:1047B000FFFF670043C58356C50D0326050D411154
:1047C000814522C406C62A8497000000E780E0964F
:1047D0000357C40C8326C40D89476373D7008547EC
:1047E0002306F442B24022440145410182808356AF
:1047F0000528032645274111814522C406C62A847F
:1048000097000000E780608F035704278326042861
:1048100091476373D7008D472306F442B240224488
:10482000014541018280411106C622C495472306F5
:10483000F5428146014681452A8497000000E780C1
:10484000C08F228597E0FFFFE780E0BBB2402244A3
:10485000014541018280411106C622C499472306C1
:10486000F5428146014681452A8497000000E78091
:10487000C088228597E0FFFFE780E0B8B24022447D
:10488000014541018280832745420327854201116A
:1048900022CC3EC43AC606CE93F7070613070002A1
:1048A0002A84638AE70213070004638CE702B9EFE6
:1048B0002C0097000000E780C0E829E98357E10059
:1048C0009DE7228597000000E78020F6F2406244D1
:1048D0000145056182802C0097000000E780E0E739
:1048E000E9BF2C0097000000E780E0E9F9B78307F3
:1048F0008100228563D7070097000000E780E0EB86
:10490000F1B797000000E780C0EEC9B72C00228500
:1049100097000000E78060E755BF797106D622D482
:104920000018232EA4FCAE87A30DF4FC8347B4FD2E
:10493000C1EB8327C4FD9387C7262326F4FE832774
:10494000C4FD83C7C7420D476386E70011476386EE
:10495000E7024DA08327C4FEDC4B0327C4FE0357A8
:1049600047003387E7408327C4FED8CB0325C4FD27
:1049700097000000E780E0E7B5A88327C4FD83C760
:10498000670C13F7F70F8D476311F7028327C4FDF8
:1049900083A70743DC4B91CB8327C4FD83A7074341
:1049A000DC4B81450325C4FD82978327C4FE23AADF
:1049B00007000325C4FD97000000E78000E71DA85D
:1049C0008327C4FD83A70743DC4B8DC78327C4FD22
:1049D00083C7670C13F7F70F8D47631DF700832715
:1049E000C4FD83A70743D84B8347B4FDBE85032589
:1049F000C4FD029781473E85B250225445618280B2
:104A0000797106D622D40018232EA4FCAE87A30DFC
:104A1000F4FC8347B4FDDDEB8327C4FD9387870C4B
:104A20002326F4FE8327C4FD83C7C7420547638658
:104A3000E70009476386E702E1A08327C4FEDC4B59
:104A40000327C4FE035747003387E7408327C4FE8C
:104A5000D8CB0325C4FD97000000E78000D64DA009
:104A60008327C4FD83C7D74299CF8146014681453C
:104A70000325C4FD97F0FFFFE780206C8327C4FD6A
:104A8000A3860742B5A88327C4FD83C7670C13F725
:104A9000F70F8D476311F7028327C4FD83A70743F0
:104AA0009C4B91CB8327C4FD83A707439C4B814537
:104AB0000325C4FD82978327C4FE23AA070003258C
:104AC000C4FD97000000E78040D91DA88327C4FDDE
:104AD00083C7670C13F7F70F8D476313F70283271C
:104AE000C4FD83A707439C4B81CF8327C4FD83A7C5
:104AF0000743984B8347B4FDBE850325C4FD029749
:104B000081473E85B25022544561828000000000FA
:104B10000000000000000000000000000000000095
:104B20000000000000000000000000000000000085
:104B30000000000000000000000000000000000075
:104B40005D7106C012C216C41AC61EC82ACA2ECC6F
:104B500032CE36D03AD23ED442D646D872DA76DC5D
:104B60007ADEFEC0F322103496C0F322003096C2E3
:104B7000F322407C96C4732520348A8597D0FFFFAA
:104B8000E780E0E3864273901234964273900230DD
:104B9000A6427390427C82401242A2423243C243F8
:104BA0005245E245724682561257A2573258C258B1
:104BB000525EE25E725F864F6161730020300000DA
:104BC000000000005D7106C012C216C41AC61EC8DD
:104BD0002ACA2ECC32CE36D03AD23ED442D646D88D
:104BE00072DA76DC7ADEFEC073D0E87E7350F97E2E
:104BF00073D0B97EF390D07E73700430B642739058
:104C0000427CA642739012349642739022348240C2
:104C10001242A2423243C2435245E2457246825694
:104C20001257A2573258C258525EE25E725F864FE8
:104C3000616173002030AA85814601460145171342
:104C400000006700E38D411122C406C697170000DB
:104C50009387C7952A8491C7814597100000E78004
:104C6000E094974700009387A71788431C5591C38A
:104C70008297228597D0FFFFE780C0AB83D7C5001E
:104C8000011122CC26CA06CE4AC84EC613F78700A9
:104C9000AA842E847DE7D8416347E000B84163448D
:104CA000E0000145D9A058546DDF03A90400939694
:104CB000370123A0040063D1060868488357C40065
:104CC000918B99C75C401D8D5C5899C33C401D8DEC
:104CD0005C540C502A86814626858297FD570357DF
:104CE000C400631DF5009440F54763E7D708B70794
:104CF00040208507B3D7D700858BBDCF1C48232222
:104D000004001CC09317370163D80700FD576314D4
:104D1000F5009C4091E368C84C5823A02401D1D1F0
:104D2000930744046387F500268597000000E78019
:104D30002048232A0402B5B70C5085460146268533
:104D40000297FD57E31CF5F69C40ADDB7547638584
:104D5000E70059476395E70023A0240199B78357DB
:104D6000C40093E707042316F400F2406244D244DF
:104D70004249B24905618280136707042316E400A3
:104D8000EDB783A90501E38E09F003A905008D8B1A
:104D900023A0350133093941014791E3D84918C4AB
:104DA000E35120F11C540C50CA864E86268582970A
:104DB000634AA0008357C4007D5593E70704231678
:104DC000F40065B7AA993309A940D9BF9C49ADC77A
:104DD000011122CC06CE2A8409C91C4D99E72EC6A2
:104DE00097000000E780A015B24597B7FFFF9387B3
:104DF0006765639EF5004C408397C5008DCB228587
:104E00006244F240056117030000670063E797B74B
:104E1000FFFF938727656394F5000C44F1BF97B7B4
:104E2000FFFF93872760E399F5FC4C44F1B7F2400C
:104E3000624401450561828001458280AA8511EDA9
:104E4000974700009387C7F988439705000093852B
:104E500025F8170300006700E32597B7FF1793872E
:104E6000E76B884317030000670083F6411122C4F3
:104E700006C62A842316B5002317C5002320050083
:104E800023220500232405002322050623280500EC
:104E9000232A0500232C0500214681451305C5055D
:104EA00097000000E780C02F9707000093872754E2
:104EB0005CD0970700009387E7561CD49707000043
:104EC0009387E75B5CD4970700009387075F00D068
:104ED0001CD8B2402244410182809705000093858E
:104EE00025EF170300006700E31C411126C21306DB
:104EF00080069384F5FFB384C4024AC02E8922C47D
:104F000006C69385440797000000E780E0352A84B1
:104F100011CD2320050023222501310508C4138665
:104F20008406814597000000E78080272285B240F3
:104F3000224492440249410182801C4DC9E741113B
:104F400006C622C497070000938767F91CD59747C8
:104F500000009387E7E89C432324050423260504E7
:104F6000232805046314F50085471CCD2A84970087
:104F70000000E780A00548C0228597000000E78078
:104F8000E00408C4228597000000E780200448C49C
:104F900048400146914597000000E78060ED0844D5
:104FA0000546A54597000000E78080EC4844094687
:104FB000C94597000000E780A0EB85471CCCB240B4
:104FC00022444101828082804111974700009387EB
:104FD00027E126C284434AC006C69C4C22C42A89C3
:104FE00091E7268597000000E78060F593848404AC
:104FF0008044DC40FD1763D607009C40ADC384406D
:10500000C5BF0317C40029EBC17785072322040617
:105010002320040023220400232404005CC423284A
:105020000400232A0400232C040021468145130593
:10503000C40597000000E780A016232A0402232C51
:10504000040223240404232604042285B2402244BB
:1050500092440249410182801304840661BF914554
:105060004A8597000000E78080E888C02A8441F9DB
:10507000B1472320F900D1BF411197470000938722
:1050800067D622C4174400001304C4D51D8C26C261
:1050900006C60984BE8411E4B24022449244410110
:1050A00082807D1493172400A6979C438297E5B7CE
:1050B000797122D44AD052CC56CA5AC85EC606D696
:1050C00026D24ECE2A8AAE8A130485040149054BA6
:1050D000FD5B09ECB25022544A8592540259F249C0
:1050E000624AD24A424BB24B4561828004448329D2
:1050F0004400FD1963D409000040E1BF83D7C40018
:10510000637BFB008397E40063877701A685528564
:10511000829A3369A90093848406E1BF41119747BD
:105120000000938727CC22C417440000130484CBCB
:105130001D8C26C24AC006C6098481443E896396F6
:105140008402974700009387E7C9174400001304BF
:1051500064C91D8C098481443E89639F8400B240E8
:105160002244924402494101828093972400CA97C5
:105170009C4385048297E1B793972400CA979C4388
:1051800085048297D9BF2A8309CA83830500230037
:1051900073007D16050385056DFA82802A8311C68A
:1051A0002300B3007D16050365FE8280DDC983A759
:1051B000C5FF411122C406C626C21384C5FF63D3AE
:1051C00007003E94AA8497000000E780A05197B79B
:1051D000FF17938767459C4385E32322040097B715
:1051E000FF1723A387442244B240268592444101FD
:1051F000170300006700234F637EF4001440330759
:10520000D4006396E7009843DC43369718C05CC02F
:10521000F9B7BA87D84319C3E37DE4FE94433386D4
:10522000D700631F86001040B29694C33386D70020
:10523000E31BC7FA10435843B29694C3D8C365B76B
:105240006375C400B1479CC079BF1040B306C40069
:105250006316D70014435843B29614C058C0C0C355
:1052600059B78280011126CA93843500F19806CE81
:1052700022CC4AC84EC6A104B14763F3F406B14438
:1052800063E2B4062A8997000000E780A04597B73B
:10529000FF179387673998433A8439EC97B7FF171C
:1052A0009387C7389C4399EB81454A859700000056
:1052B000E780801097B7FF1723AAA736A6854A85EF
:1052C00097000000E780400FFD59631F3507B14785
:1052D0002320F9004A8597000000E780C04029A0FC
:1052E000E3D004FAB1471CC10145F2406244D24404
:1052F0004249B249056182801C40858F63C307041F
:10530000AD4663F6F6001CC03E9404C001A85C40A4
:105310006317870217B7FF172328F7304A859700CE
:105320000000E780403C1305B400930744006199F6
:105330003307F5405DDB3A94898F1CC07DB75CC3B1
:10534000F1BF2287404091BF130435007198E30EEE
:1053500085FAB305A4404A8597000000E780C005A0
:10536000E31535FBADB739713EDA2ED232D436D6DD
:105370003AD842DC46DE97B7FF179387271A22CC2C
:10538000804326CA06CEAA8401C81C4C91E7228518
:1053900097000000E780A0BA0C44541026862285AE
:1053A00036C697000000E780803BF2406244D2445A
:1053B00021618280411122C42A842E8597C7FF175C
:1053C00023A8077606C697C0FFFFE7802040FD5759
:1053D0006319F50097C7FF17938787759C4391C39F
:1053E0001CC0B240224441018280411122C42E845B
:1053F0008395E50006C697000000E7804062634998
:1054000005007C48AA977CC8B240224441018280B2
:105410008357C4007D777D17F98F2316F400EDB70D
:1054200083D7C500011122CC26CA4AC84EC606CE73
:1054300093F70710AA842E843289B68989CB839585
:10544000E5008946014697000000E7800026835763
:10545000C4007D777D17F98F2316F4008315E400CF
:105460006244F240CE864A86B24942492685D244F9
:1054700005611703000067000307411122C42E8451
:105480008395E50006C697000000E7800022FD57DF
:105490000357C400631BF500FD77FD17F98F231632
:1054A000F400B2402244410182808567D98F2316DF
:1054B000F40068C8FDB78395E50017030000670096
:1054C000631B17C3FFFF6700032E97B7FF17938770
:1054D000E704B2862E86AA8588431703000067007A
:1054E0008300411122C42A842E85B285368697C74F
:1054F000FF1723AF076206C697F0FFFFE780C0984B
:10550000FD576319F50097C7FF17938767629C43A0
:1055100091C31CC0B24022444101828097B7FF175B
:10552000938707119C432A8E8DE717B7FF17130740
:10553000677097B7FF1723ADE70E17B5FFF7130591
:1055400065ACBA8719C51C4117B5FF172328F57636
:10555000BA87D8437D487D556347E804630E0E0241
:1055600003A887086301080493182700C29823A0A2
:10557000C8000323081005463316E6003363C30052
:105580002320681023A0D80889466317DE008326ED
:105590004810558E2322C810930617000A07D4C35B
:1055A000BA978CC701458280797152CC56CA5AC8C5
:1055B0005EC606D622D426D24AD04ECE62C42A8BEC
:1055C0002E8A97BAFF17938AAA06854B03A40A006E
:1055D00011C84440832984081389F4FF8A04A294E3
:1055E000635E0900B250225492540259F249624A51
:1055F000D24A424BB24B224C45618280630E0A0074
:10560000639509007D19F114E1BF93172900CE9726
:1056100083A70708E39847FF5840DC407D176318CD
:10562000270323222401F9DF032C440063880900A7
:1056300083A6091033972B01F98E89EE8297584083
:1056400083A70A00E31487F9E30EF4FA41B723A213
:105650000400D1BF93162900CE968C4283A6491030
:10566000758F01E75A858297D9BF2E858297C1BF72
:10567000411122C42A842E8597C7FF1723AA074AFF
:1056800006C697C0FFFFE780A00FFD576319F5001E
:1056900097C7FF179387C7499C4391C31CC0B2406B
:1056A000224441018280411122C42A842E85B28580
:1056B000368697C7FF1723AD074606C697C0FFFF7C
:1056C000E780E00EFD576319F50097C7FF17938732
:1056D00027469C4391C31CC0B240224441018280B2
:1056E000828082801C46FD171CC663DC0700184EB2
:1056F00063C5E700A9476396F5001703000067003C
:10570000A3351C422E851387170018C22380B700CB
:105710008280011122CC26CA4AC84EC652C406CE87
:105720002A89AE893284B304D6007D5A631494006A
:10573000014521A8834504004E864A859700000054
:10574000E78080FA0504E31345FFF2406244D24447
:105750004249B249224A05618280357122CD26CB69
:105760004AC94EC706CF52C556C35AC1DEDEE2DC77
:10577000E6DAAA89AE843289368419C51C4D89E7D8
:1057800097F0FFFFE780A07B97B7FFFF938787CB5A
:105790006391F40E83A4490083D7C400A18BE5CFA5
:1057A0009C48F5CB93070002A304F1029307000382
:1057B00002D22305F10222C6930B500297BAFFFFD3
:1057C000938A4ACC054C294B4A848347040099C3E9
:1057D0006398770FB30C244163800C02E6864A86F7
:1057E000A6854E8597000000E780E0F2FD57630133
:1057F000F5209256E69636D283470400638A071E48
:10580000FD571309140002C802CE3ECA02CCA309F8
:10581000010482D48345090015465685970000008F
:10582000E780E05313041900C24749ED13F707015D
:1058300009C713070002A309E10413F7870009C78A
:105840001307B002A309E104834609001307A0026D
:105850006382E608F2474A848146254603470400EE
:1058600093051400130707FD637BE60AA5CE3ECE21
:1058700095A897B7FFFF9387E7BE6395F40083A4CD
:10588000890019BF97B7FFFF9387C7B9E396F4F074
:1058900083A4C90011B7A6854E8597000000E78054
:1058A000202909D17D55FA406A44DA444A49BA4967
:1058B0002A4A9A4A0A4BF65B665CD65C0D61828086
:1058C000050421B7330555413315AC00C98F3EC8D7
:1058D000228989B7324793064700184336C6634981
:1058E00007023ACE034704009307E002631FF70460
:1058F000034714009307A002631BF702B247090491
:10590000138747009C433AC663C107023ECA35A8C5
:105910003307E04093E727003ACE3EC8E1B7B387AC
:10592000670385462E84BA9715BFFD57C5B7050492
:1059300002CA8146814725460347040093051400A7
:10594000130707FD637CE606F1F2834504000D466C
:1059500017B5FFFF130585B397000000E7802040CF
:1059600011CD97B7FFFF938767B21D8D9307000492
:10597000B397A700424505045D8D2AC883450400FE
:10598000194617B5FFFF1305A5B01309140023042A
:10599000B10297000000E780803C3DC197A7FFF768
:1059A0009387476695E74247B2471377071009CFB9
:1059B00091073EC69257D2973ED239B5B387670357
:1059C00085462E84BA978DBF9D07E19BA107D5B769
:1059D000780097060000938606D426860C084E852C
:1059E00097000000E7000000FD572A8AE314F5FC49
:1059F00083D7C40093F70704E39607EA125565B509
:105A0000780097060000938606D126860C084E85FE
:105A100097000000E7800047C1BF411122C42A84DB
:105A20002E85B285368697C7FF1723A3071006C6B3
:105A300097C0FFFFE78040D9FD576319F50097C76E
:105A4000FF179387E70E9C4391C31CC0B2402244CA
:105A500041018280011122CC26CA4AC806CE4EC618
:105A6000AA842E89328419C51C4D89E797F0FFFF5F
:105A7000E780E04C97B7FFFF9387C79C631FF4064E
:105A8000C0401C4C1CC48357C400A18BD9C71C4800
:105A9000C9C71C4808409379F90F1379F90F1D8D78
:105AA0005C486349F500A285268597F0FFFFE780F3
:105AB00020323DE91C440505FD171CC41C4013871A
:105AC000170018C0238037015C486389A7008357FB
:105AD000C400858B99CBA9476319F900A285268557
:105AE00097F0FFFFE780C02E21E1F24062444A8533
:105AF000D2444249B2490561828097B7FFFF93873C
