:020000040800F2
:10000000B1AA010000000000000000000000000094
:100010000000000000000000000000004C0E00087E
:1000200000000000000000000000000000000000D0
:1000300000000000000000000000000000000000C0
:1000400000000000000000000000000000000000B0
:1000500000000000000000000000000000000000A0
:100060000000000000000000000000000000000090
:100070000000000000000000000000000000000080
:100080000000000000000000000000000000000070
:100090000000000000000000000000000000000060
:1000A0000000000000000000000000000000000050
:1000B0000000000000000000000000000000000040
:1000C0000000000000000000000000000000000030
:1000D0000000000000000000000000000000000020
:1000E000A00E00080000000000000000000000005A
:1000F0000000000000000000000000000000000000
:1001000000000000000000000000000000000000EF
:1001100000000000F60E00080000000000000000D3
:1001200000000000000000000000000000000000CF
:1001300000000000000000000000000000000000BF
:1001400000000000000000000000000000000000AF
:100150000000000000000000000000007370043088
:10016000170500001305C5FF8545F605637BB5003F
:1001700089816378B500170500001305C5002E9529
:1001800002859302002073A0027D970200009382F3
:1001900062E773907230972200009382E2D27390EC
:1001A000C27E73E0C07E972200009382A2C9739042
:1001B0005230970100189381E16A178100181301EA
:1001C00061E4175500001305E59097050018938525
:1001D00065E317060018130666F663FAC500832266
:1001E000050023A0550011059105E3EAC5FE17059A
:1001F00000181305A5F4970500189385A53F6377AC
:10020000B500232005001105E36DB5FE73F0023241
:10021000172500001305C5D697200000E780E0D120
:1002200097200000E78040D997100000E78060BF6A
:100230000145814597000000E780802A17230000D0
:100240006700A3D001A073E00232828073F0023213
:0402500082800000A8
:100280000000000000000000010203040607080946
:100290000A50726F6772616D2068617320657869BA
:1002A000746564207769746820636F64653A000040
:1002B000307800006E6D690A000000007472617091
:1002C0000A00000000000000000000000040AF40F5
:1002D0000000824200001243000020420000A042C1
:1002E000F8C1631ADCA54C404FBB610567ACDD3F2C
:1002F000182D4454FB21E93F9BF681D20B73EF3F4D
:10030000182D4454FB21F93FE2652F227F2B7A3CC4
:10031000075C143326A6813CBDCBF07A8807703C7D
:10032000075C143326A6913CCE2F00001E2F000040
:10033000242F00001E2F0000C02F00001E2F0000E1
:10034000242F0000CE2F0000CE2F0000C02F000071
:10035000242F0000042F0000042F0000042F0000B1
:10036000282F00007834000078340000903400001A
:1003700072340000723400001E350000903400001A
:10038000723400001E35000072340000903400000A
:100390007034000070340000703400001E3500001E
:1003A000EE410000184200004042000018420000E8
:1003B0008C4200001842000040420000EE41000064
:1003C000EE4100008C42000040420000004200006C
:1003D000004200000042000044420000000102020E
:1003E00003030303040404040404040405050505CD
:1003F00005050505050505050505050506060606A9
:10040000060606060606060606060606060606068C
:100410000606060606060606060606060707070778
:10042000070707070707070707070707070707075C
:10043000070707070707070707070707070707074C
:10044000070707070707070707070707070707073C
:100450000707070707070707070707070808080828
:10046000080808080808080808080808080808080C
:1004700008080808080808080808080808080808FC
:1004800008080808080808080808080808080808EC
:1004900008080808080808080808080808080808DC
:1004A00008080808080808080808080808080808CC
:1004B00008080808080808080808080808080808BC
:1004C00008080808080808080808080808080808AC
:1004D0000808080808080808080808081D71130516
:1004E000306086CEA2CCA6CA37140140CAC8CEC698
:1004F000D2C4D6C2DAC05EDE62DC66DA97000000E3
:10050000E780A04D85460D46C145130504C0970000
:100510000000E78080241305306097000000E7802A
:10052000C04B930600020D46C145130504C0970059
:100530000000E78080221305306097000000E7800C
:10054000C0491305507197000000E78000499306E9
:10055000000C0D46F145130504C097000000E7802C
:10056000C01F375500401305054097100000E78075
:1005700020D0054597100000E780A00697100000E6
:10058000E7808008014597100000E780204E481062
:1005900097200000E7802083B707000803AA072EF2
:1005A00083AA472EB7040008B7070008B709000858
:1005B0003709000883AC072D03AC442D83AB892D8C
:1005C000032BC92D280897100000E780C07F025533
:1005D0003714014097400000E78080262AC4724506
:1005E0002EC697400000E780A0252246B2469720FD
:1005F0000000E780C0BEB7070080AD8F5286D68668
:10060000BE8597300000E78040E597400000E78016
:10061000002DE68597400000E78040028545635D38
:10062000A010130504C097000000E780801D93050B
:100630000002130504C097000000E780801C0255EB
:10064000930500001304007E97400000E7808006B9
:1006500063550500416413040480FD46714693050B
:1006600080021305000597100000E7800051125525
:10067000E28597400000E78000D7DE8597400000C4
:10068000E78040A597400000E780400A83A5442DFD
:100690002AC4225597400000E780E0D4DA859740CD
:1006A0000000E78020A397400000E7802008A246D2
:1006B0002A86014793058002130500059710000064
:1006C000E780604183A5442D624597400000E780A4
:1006D00080D183A5892D97400000E780A09F974097
:1006E0000000E780A00483A5442D2AC472459740EA
:1006F0000000E78040CF8325C92D97400000E780A8
:10070000609D97400000E7806002A24622872A860B
:10071000930580021305000597100000E780A03BB9
:1007200031462C08481097200000E780808F9710F2
:100730000000E780E0D079B5130504C09700000001
:10074000E780E00B93050002130504C0970000004A
:10075000E780E00AEDB593F7050193F8F50099C33A
:10076000B3E8C8008147054EBD4E130F8002930FBA
:10077000800421433316FE00758E1DC21397270097
:10078000832205003398EE001348F8FF33785800B1
:100790003397E800336707016399E50550C918C12D
:1007A0008507E39967FC054EBD4E130F8002930F3A
:1007B000800441433316FE00758E05C6139727004B
:1007C0000117832245003398EE001348F8FF337871
:1007D00058003397E80033670701639CE50150C96F
:1007E00058C18507E39867FC8280E39AF5FB10C93E
:1007F0007DB7E397F5FF10C9E5B70CC982804CC9F6
:100800008280011122CC2A84094526CA32C606CE2E
:10081000AE8497000000E780C01DB7470F00B70601
:100820003803938707249386F6973357F5023246A9
:100830009307600363E3A600BA87544093F606FC6F
:10084000DD8E54C0E1669386066A63E196049307E1
:100850001700130750036376F700930760031CD05B
:1008600029A00947E36DF7FE18D086043355950299
:100870005C4C11476373E5001145520551815D8D54
:1008800048CCF2406244D24405618280372706009A
:10089000130707A8636C97041307C012B387E70216
:1008A0001307803EB3D7E70285071CD01DE68D47AE
:1008B000B384F4025C4C71777D17F98F3355950240
:1008C0005CCC9317450199E3136515005C4C2167D7
:1008D000D98F5CCC444C458D65B7E547B384F402B1
:1008E0005C4C1167D98F33559502D9BF1307800728
:1008F000B387E7021307803EB3D7E70285071CD012
:100900000DEA8D45B384B4025C4C71777D17F98F85
:10091000335595025CCC5C4C2167D98F5CCC444C40
:10092000458D48CC8327040993E717002328F40852
:1009300089BFE545B384B4025C4C1167D98F335548
:100940009502C9BF85476397F5001C4193E70740AF
:100950001CC182801C4193F7F7BFDDBF795793E735
:1009600015006314E60093F7E5FF1CC982801C4163
:1009700093E717001CC182801C4193E707101CC13C
:1009800082801C4193E707201CC182800CC98280B1
:1009900008491375F50F828093D7650093F7F73FE9
:1009A0003E9508413355B500058982809307105064
:1009B0006395F5005C491C4D828013D76500137761
:1009C000F73F3A9518418547B397B70093C7F7FFAC
:1009D000F98F1CC18280B7170240135765003E97FC
:1009E00014438547B397A700D58F1CC382807971C4
:1009F000B705000822D441462A84938505280808B3
:100A000006D697100000E780C061B70703049387FC
:100A1000172002C03EC202C43EC6371702405C43E4
:100A2000894689838D8B6397D70E5C439396F70035
:100A300063D606065C579396F70063DC06045C57A2
:100A4000585791832183BD8B3D8B938617000907EF
:100A5000C5476313F7005147B7177A0093870720FC
:100A6000B3D7D702B387E7023717024058573D8BF9
:100A7000050733D7E702B7160240DC42D442C983E8
:100A800013962600BD8B6350060293E70701850786
:100A90000DA0B7177A0093870720F9B7B7173D0065
:100AA00013870790C9BFBD46E383D7FE8907638DCF
:100AB000D704B387E702B7160240D842101011835B
:100AC0003D8B3297034507FFD84233D5A7002183DA
:100AD0001D8B3297034607FED84214102D831D8BC1
:100AE00036978546034787FE630CD40005CC8947BB
:100AF0006307F4028D473355E5006303F4000145B5
:100B0000B2502254456182809947B307F7020583AA
:100B1000BA9755B7B7177A009387072069BF33553F
:100B2000C500F9BF3E85E9BF23200500232205004B
:100B30002324050023260500232A0500232C050075
:100B400082801C410D6713070704D4417D8F9C41AF
:100B5000D58F9445D58FD445D58F9449D58FD44919
:100B6000D58F944DD58FD98F1CC15C4D7D771307E0
:100B7000F77FF98F5CCD82801C4193E707041CC18D
:100B800082804CC582801C410967D98F1CC10CC969
:100B9000828008456D8D3335A0008280B7170240F2
:100BA0009843B706FFE0B1061367170098C3D84310
:100BB000758FD8C39843B706F7FEFD16758F98C397
:100BC0009843B706FCFFFD16758F98C3D843B70648
:100BD00001DFFD16758FD8C323A607029843B70619
:100BE000F7EAFD16758F98C33707FF0098C794433F
:100BF0004167D98E94C39307F7FF37170240144318
:100C00001396E60063440600FD17F5FBB717024094
:100C100098439316E70063C3060001A0D843B706C4
:100C2000C4DFFD16D8C3D843D8C3D84313670740E1
:100C3000D8C3D843758FD8C3D843B7062920558F5A
:100C4000D8C3D857BD76758FD8D7D857C166938685
:100C500016F1558FD8D79843B7060004558F98C31F
:100C6000B7170240984393164700E3DD06FE98430A
:100C7000B7060010558F98C3B717024098439316D4
:100C80002700E3DD06FE9843B7060001558F98C3A1
:100C9000B7170240984393166700E3DD06FED8437A
:100CA000719BD8C3D84313672700D8C337170240B6
:100CB0005C43A18BF5DF82807971B705000822D4EF
:100CC0007D462A84938505290A8506D6971000005B
:100CD000E780203579468A85094597100000E7802E
:100CE000A035A285094597000000E780E001B7051F
:100CF000000805469385052C094597100000E780FC
:100D0000A03301A079714ECEAE89B705000809461F
:100D10009385052B22D426D24AD052CC56CA06D669
:100D20002A89714497100000E78000313D4AA54AA6
:100D3000F154B3178A00B3F73701B3D7870093F79D
:100D4000F70F63ECFA029387070393F7F70F054653
:100D50009305F1004A857114A307F1009710000074
:100D6000E780802DE31794FCB2502254925402592C
:100D7000F249624AD24A4561828093877703F1B78C
:100D8000B70700D1D8438843CC43E39DE5FE82807A
:100D9000B70700D223800700A38507001205B71705
:100DA00000D23E9563E3A700828023A00700C1071D
:100DB000D5BFF327503093F707FC93E737007390C4
:100DC00057308280B7050008411115469385452BA1
:100DD000054506C697100000E780002605459700E8
:100DE0000000E780A0ED41119347F5FF22C406C63D
:100DF000139747012A8409E797000000E780C0FCA9
:100E0000B705000815469385C52B054597100000CA
:100E1000E7808022228597000000E78020EA4111C8
:100E200006C697000000E780A0D71305700597005D
:100E30000000E78020F697000000E780C0F7B2408E
:100E4000410117F3FFFF67004340828039713ECCB8
:100E5000B707002083A7871306DE16DCDC4F1ADAFB
:100E60001ED82AD62ED432D236D03ACE42CA46C85E
:100E700072C676C47AC27EC08297F250E252525352
:100E8000C2533255A255125682567247E247524813
:100E9000C248324EA24E124F824F21617300203061
:100EA00039713ECCB707002083A7871306DE16DC16
:100EB00083A7070E1ADA1ED82AD62ED432D236D0FD
:100EC0003ACE42CA46C872C676C47AC27EC08297FB
:100ED000F250E2525253C2533255A2551256825624
:100EE0007247E2475248C248324EA24E124F824FDA
:100EF00021617300203039713ECCB707002083A7F1
:100F0000871306DE16DC83A747111ADA1ED82AD605
:100F10002ED432D236D03ACE42CA46C872C676C431
:100F20007AC27EC08297F250E2525253C253325577
:100F3000A255125682567247E2475248C248324E74
:100F4000A24E124F824F21617300203079714AD036
:100F50004ECE5AC806D622D426D252CC56CA5EC627
:100F600062C466C22A8B97000000E780A0E1AA89CC
:100F70002E8997000000E780E0E0AA842E84639425
:100F8000A900E308B9FEB707000803A9872C83A9C5
:100F9000C72CB70B002097000000E780A0DEAA87CF
:100FA000058DB3B7A700818D9D8D97300000E78038
:100FB00000FC2A8A03A50B06AE8A97300000E78062
:100FC000A0F54A86CE8697200000E78020E02A8C94
:100FD0005A85AE8C97300000E78000ED2A86AE86F9
:100FE0006285E68597200000E78020472A86AE8646
:100FF0005285D68597200000E780E03BE34D05F859
:10100000B250225492540259F249624AD24A424B97
:10101000B24B224C924C45618280011122CC00419E
:1010200026CA4AC822854EC652C406CEAE84328A2B
:101030003689BA8997000000E780409493050050F4
:10104000228597000000E78060956DD98604795667
:10105000A685228597000000E780809093051050B8
:10106000228597000000E78060936DD993051050AA
:10107000228597000000E780A09393057050228599
:1010800097000000E78080916DD9D2852285970076
:101090000000E780E08F93057050228597000000E4
:1010A000E780C08F6DD9228597000000E780008D12
:1010B00093050050228597000000E780208E6DD9AF
:1010C0000546A685228597000000E7806089930584
:1010D0001050228597000000E780408C6DD9930561
:1010E0001050228597000000E780808C854522857E
:1010F00097000000E78040858144130AF9FF63C32D
:101100002403228597000000E780E0871C4093F7C6
:101110000720EDFFF2406244D2444249B249224ADC
:101120000561828063189A0081452285970000003E
:10113000E780808193056050228597000000E7805A
:10114000E0856DD9228597000000E780A084B387F1
:1011500099002380A70085045DB7011122CC0041CE
:1011600026CA4AC84EC652C406CE2E8AB2843689D2
:10117000BA8993051060228597000000E7800082FD
:101180006DF9228597F0FFFFE780407F93050050BF
:10119000228597000000E78060806DD9795693150D
:1011A0001A00228597F0FFFFE780807B930510509F
:1011B000228597F0FFFFE780607E6DD99305105080
:1011C000228597F0FFFFE780A07E9305705022856F
:1011D00097F0FFFFE780807C6DD9A685228597F088
:1011E000FFFFE780E07A93057050228597F0FFFFBC
:1011F000E780C07A6DD9814463C32403228597F0C8
:10120000FFFFE78040781C4093F70720EDFFF24096
:101210006244D2444249B249224A05618280B3877E
:10122000990083C50700228597F0FFFFE78040768D
:1012300093057050228597F0FFFFE78020766DD9E7
:1012400085045DBFE165411101469385056A22C4AD
:1012500006C62A8497F0FFFFE780E05A22852244E1
:10126000B240410117F3FFFF6700A370411122C490
:101270003704002006C6232CA45C97000000E780FA
:10128000A0FC9306845D2244B24037160008B715CF
:101290000008371500081306C6F49385A515130535
:1012A000A5014101171300006700839F79714AD09F
:1012B0004ECE5AC806D622D426D252CC56CA5EC6C4
:1012C00062C466C22A8B97000000E780A0ABAA899F
:1012D0002E8997000000E780E0AAAA842E846394F8
:1012E000A900E308B9FEB707000803A9872C83A962
:1012F000C72CB70B002097000000E780A0A8AA87A2
:10130000058DB3B7A700818D9D8D97300000E780D4
:1013100000C62A8A03A50B06AE8A97300000E78034
:10132000A0BF4A86CE8697200000E78020AA2A8C9C
:101330005A85AE8C97300000E78000BE2A86AE86C4
:101340006285E68597200000E78020112A86AE8618
:101350005285D68597200000E780E005E34D05F82B
:10136000B250225492540259F249624AD24A424B34
:10137000B24B224C924C45618280411122C4B70786
:101380000020370400200327041483A7471406C64F
:1013900026C2630AF70837450040894513050580D2
:1013A00097F0FFFFE780207F2DC589653715014045
:1013B00097F0FFFFE780E044130404141440B707DC
:1013C00000201387C7148A06369714431307F00FBB
:1013D0009384C714A165371501406351D70497F072
:1013E000FFFFE780C0411C403745004013050580E2
:1013F000138717008A07A69783C5070018C097F0C0
:10140000FFFFE78040781C4013070010B3E7E702B6
:101410001CC0B240224492444101828097F0FFFFF9
:10142000E780203EC9B72244B2409244896537150F
:101430000140410117F3FFFF6700633C411122C4E3
:1014400026C206C6B70400203704002003A70414F0
:10145000832744146317F700B240224492444101A9
:10146000828097000000E78080F1CDB7011122CC87
:1014700026CA4AC806CE3709002093040010370454
:101480000020130649141C428326041413871700F6
:10149000336797026301D70293962700B7070020AE
:1014A000F24062449387C714B69788C318C2D244E7
:1014B0004249056182802AC697000000E78020EC3F
:1014C0003245C1B7411122C42A8421851305051074
:1014D00006C697000000E780A0F91375F40F2244B8
:1014E000B24013050510410117030000670043F8DF
:1014F000011122CC26CA37040020AA841305A002B9
:1015000006CE36C22EC61304C41332C497000000A0
:10151000E78000F603452400269597000000E78049
:10152000A0FA224603452400329597000000E78088
:10153000A0F91305B00297000000E78060F3B24500
:10154000034534002E9597000000E780E0F703453F
:1015500034009246369597000000E780E0F662443A
:10156000F240D2441305C002056117030000670072
:1015700023F0797189653715014006D622D497F09A
:10158000FFFFE780C027480097F0FFFFE780005A81
:10159000930740103EC28D47374400403ECC93072E
:1015A00000203EC84C00A147130504803ECE02C473
:1015B00002C602CA97F0FFFFE780E05813050480D7
:1015C0009D4597F0FFFFE780405C1305048097F08E
:1015D000FFFFE780A05AB25022544561828009E99A
:1015E000B707011A370700208507232EF7128280DC
:1015F0008547E31EF5FEB7070018370700209387DD
:101600001710E5B7B707002003C7C713411122C45D
:1016100006C61384C71311E7014597000000E78051
:1016200040FC1305306097F0FFFFE780003B130597
:10163000406097F0FFFFE780403A1305006097F0A5
:10164000FFFFE78080391305E07097F0FFFFE78028
:10165000C03837150140B9660D46E145130505C090
:1016600097F0FFFFE780600FA9660D46C14537156B
:10167000014097F0FFFFE780400E97000000E780F1
:1016800080EFA9653715014097F0FFFFE7806017ED
:1016900097000000E780C0DA1305400697000000BD
:1016A000E78000C1054597000000E78060DC9700F7
:1016B0000000E780E0D81305800797000000E7806E
:1016C00020BF454597000000E78080DA97000000C2
:1016D000E78000D71305400697000000E78040BD73
:1016E000834714001305200299E3130510029700A5
:1016F0000000E780E0D71305100B97000000E7809B
:1017000020D71305501097000000E78060D613051E
:10171000A01397000000E780A0D51305A013970041
:101720000000E780E0D41305200B97000000E7805D
:1017300020D41305501097000000E78060D31305F4
:10174000A01397000000E780A0D21305A013970014
:101750000000E780E0D11305300B97000000E78020
:1017600020D11305501097000000E78060D01305CA
:10177000A01397000000E780A0CF1305A0139700E7
:101780000000E780E0CE1305501097000000E780CE
:1017900020CE1305A01397000000E78060CD13054D
:1017A000A01397000000E780A0CC1305400B970022
:1017B0000000E780E0CB1305301097000000E780C1
:1017C00020CB1305000C97000000E78060CA1305CA
:1017D000201697000000E780A0C91305201097008D
:1017E0000000E780E0C81305401097000000E78084
:1017F00020C81305100C97000000E78060C7130590
:10180000001C97000000E780A0C61305200C97007D
:101810000000E780E0C51305D01097000000E780C6
:1018200020C51305001097000000E78060C4130571
:10183000300C97000000E780A0C31305D018970074
:101840000000E780E0C21305A01697000000E780C3
:1018500020C21305400C97000000E78060C113050B
:10186000D01897000000E780A0C01305E01E970085
:101870000000E780E0BF1305500C97000000E780F0
:1018800020BF1305E01097000000E78060BE13053D
:10189000000E97000000E780A0BD1305001197001F
:1018A0000000E780E0BC1305E01097000000E7802F
:1018B00020BC1305201097000000E78060BB1305D3
:1018C000301097000000E780A0BA1305E0109700E1
:1018D0000000E780E0B91305701097000000E78072
:1018E00020B91305201097000000E78060B81305A9
:1018F000701097000000E780A0B71305A0109700B4
:101900000000E780E0B61305201197000000E78093
:1019100020B61305701297000000E78060B513052C
:10192000701397000000E780A0B413050010970023
:101930000000E780E0B31305D01097000000E780B7
:1019400020B31305E01097000000E78060B2130594
:10195000001197000000E780A0B11305100E97005A
:101960000000E780E0B01305001197000000E78059
:1019700020B01305E01097000000E78060AF13056A
:10198000301097000000E780A0AE130530109700DC
:101990000000E780E0AD1305F01097000000E7803D
:1019A00020AD1305601097000000E78060AC1305C0
:1019B000201097000000E780A0AB1305801097006F
:1019C0000000E780E0AA1305A01097000000E78060
:1019D00020AA1305301197000000E78060A91305C5
:1019E000601297000000E780A0A81305601397001D
:1019F0000000E780E0A71305001097000000E780D3
:101A000020A71305D01097000000E78060A61305FB
:101A1000E01097000000E780A0A5130500119700D3
:101A20000000E780E0A41305A00397000000E78012
:101A300020A41305501097000000E78060A3130551
:101A4000600397000000E780A0A2130580179700AD
:101A50000000E780E0A12244B2401305900241015A
:101A6000170300006700C3A041114AC09306F004A9
:101A70002A891306F0098145014526C206C622C4FB
:101A80009304000A97000000E780C0A61304000535
:101A90004A857D1497000000E78000A375F8FD14C7
:101AA000F5F4B2402244924402494101828041113E
:101AB00022C4AE8632842A8606C697000000E780DC
:101AC00060A322852244B240410117030000670051
:101AD000A39F397122DC26DA4AD84ED662CC06DEC4
:101AE00052D456D25AD05ECE66CA6AC83304A640D3
:101AF000B384B6402A89AE89054C63478000014C07
:101B000001C4330480407D5C854C63479000814C68
:101B100081C4B3049040FD5C228A63539400268AFA
:101B2000014B814A814B130D1A003A86CE854A85B6
:101B30003AC6A29A97000000E780A0F7269B32479A
:101B400063555A01B38A4A41629963556A01330B5E
:101B50004B41E699850BE3EAABFDF2506254D25457
:101B60004259B259225A925A025BF24B624CD24C01
:101B7000424D216182803307C6025D71A2C4A6C2B4
:101B8000CAC05ED662D486C64EDE52DC56DA5AD859
:101B900066D26AD06ECEAA8B2E8C3689328481446E
:101BA000B3099C40B38A8B40CE854A8656853AC697
:101BB000330D740197000000E780A0EFCE854A86C0
:101BC0006A8597000000E780C0EE338A9B40330BA4
:101BD000840152854A86DA8597000000E78060ED2F
:101BE000B30C8C405285939D14004A86E68597007D
:101BF0000000E78000ECEE994A86CE856A85970062
:101C00000000E78000EB6E9A4A86E68552859700D1
:101C10000000E78000EA4A86DA85528597000000D6
:101C2000E78020E94A86CE85568597000000E78048
:101C300040E88504B38794023247B3068402B6971E
:101C40006353F7007D14E35D94F4B6402644964454
:101C50000649F259625AD25A425BB25B225C925CEC
:101C6000025DF24D61618280B70700209387C75DF6
:101C7000328703A307002A86C847AE8693059006DD
:101C80000283B70700209387C75D328703A347000D
:101C90002A86C847AE86930590060283011122CC9E
:101CA000370400209307C45D06CE88C3CCC390C719
:101CB0001305500730008545D4C797000000E78022
:101CC000E0FA03478100C5477D55631FF70C930772
:101CD00000F81305B006700085452306F1001304D3
:101CE000C45D97000000E78000FA1C44130540061D
:101CF00082978307810063CD070A1C4413054006C1
:101D000009448297A547700085451305B006230650
:101D1000F10097000000E78000F7700085456545F9
:101D20002306010097000000E780E0F5700085457C
:101D300069452306810097000000E780C0F4E14771
:101D4000700085456D452306F10097000000E7808F
:101D500080F3C1477000854571452306F100970067
:101D60000000E78040F2700085457545230681003C
:101D700097000000E78020F193072003700085455D
:101D8000130570032306F10097000000E780A0EF21
:101D9000854713058003700085452306F1009700F1
:101DA0000000E78040EE0545F24062440561828014
:101DB000300085451305B00697000000E78000EB72
:101DC0000DBF011122CC30002A8499451305B003C0
:101DD00006CE97000000E78060E983178100A30327
:101DE000F100A1832303F100031561009730000087
:101DF000E78000998317A10008C0A303F100A18325
:101E00002303F1000315610097300000E78040973D
:101E10008317C10048C0A303F100A1832303F1008D
:101E20000315610097300000E780809508C4F240F8
:101E3000624405450561828000000000000000004A
:101E40005D7106C012C216C41AC61EC82ACA2ECC9C
:101E500032CE36D03AD23ED442D646D872DA76DC8A
:101E60007ADEFEC0F322103496C0F322003096C210
:101E7000F322407C96C4732520348A8597F0FFFFB7
:101E8000E780A0F686427390123496427390023037
:101E9000A6427390427C82401242A2423243C24325
:101EA0005245E245724682561257A2573258C258DE
:101EB000525EE25E725F864F616173002030000007
:101EC000000000005D7106C012C216C41AC61EC80A
:101ED0002ACA2ECC32CE36D03AD23ED442D646D8BA
:101EE00072DA76DC7ADEFEC073D0E87E7350F97E5B
:101EF00073D0B97EF390D07E73700430B642739085
:101F0000427CA642739012349642739022348240EF
:101F10001242A2423243C2435245E24572468256C1
:101F20001257A2573258C258525EE25E725F864F15
:101F3000616173002030AA8581460146014517037F
:101F4000000067008314411122C406C697070000F1
:101F50009387671C2A8491C7814597000000E7801A
:101F6000801B973700009387A7B688431C5591C301
:101F70008297228597F0FFFFE78040D44111973781
:101F80000000938727B522C417340000130484B4DB
:101F90001D8C26C206C60984BE8411E4B2402244C8
:101FA0009244410182807D1493172400A6979C439C
:101FB0008297E5B74111973700009387A7B122C4F4
:101FC00017340000130404B11D8C26C24AC006C693
:101FD000098481443E896396840297370000938781
:101FE00067AF173400001304E4AE1D8C09848144EC
:101FF0003E89639F8400B2402244924402494101D9
:10200000828093972400CA979C4385048297E1B706
:1020100093972400CA979C4385048297D9BF2A834B
:1020200009CA83830500230073007D160503850517
:102030006DFA828097E7FF1793870703B2862E8693
:10204000AA8588431703000067008300411122C45A
:102050002A842E85B285368697E7FF1723AA07586C
:1020600006C697300000E780A0A2FD576319F5006F
:1020700097E7FF179387C7579C4391C31CC0B24093
:1020800022444101828097E7FF179387270C9C43E6
:102090002A8E8DE717E7FF171307874B97E7FF1780
:1020A00023A6E70A17E5FFF71305C5F5BA8719C593
:1020B0001C4117E5FF172321F552BA87D8437D4805
:1020C0007D556347E804630E0E0203A88708630189
:1020D000080493182700C29823A0C80003230810FF
:1020E00005463316E6003363C3002320681023A09F
:1020F000D80889466317DE0083264810558E2322B0
:10210000C810930617000A07D4C3BA978CC70145B5
:102110008280797152CC56CA5AC85EC606D622D47D
:1021200026D24AD04ECE62C42A8B2E8A97EAFF1757
:10213000938ACA01854B03A40A0011C8444083292D
:1021400084081389F4FF8A04A294635E0900B250E4
:10215000225492540259F249624AD24A424BB24B3B
:10216000224C45618280630E0A00639509007D1947
:10217000F114E1BF93172900CE9783A70708E398CE
:1021800047FF5840DC407D176318270323222401B2
:10219000F9DF032C44006388090083A609103397F4
:1021A0002B01F98E89EE8297584083A70A00E31429
:1021B00087F9E30EF4FA41B723A20400D1BF9316C6
:1021C0002900CE968C4283A64910758F01E75A8567
:1021D0008297D9BF2E858297C1BF17030000670081
:1021E0008300B307C040370700801347F7FFD18F44
:1021F0004111337ED700FD8306C622C4B3E7C70171
:102200003703F07FAA882E886367F304B307A040E2
:10221000C98F6D8FFD83D98F2E8F636EF302B70741
:1022200010C0B697D18FF5C313D4E641937524003F
:10223000B367A7001354F8014D8C95EB8947630DE4
:10224000F40C8D47631EF40A97E7FF17938707E3A3
:102250008843CC4309A83285B6854686C286970056
:102260000000E7800057B240224441018280B367FA
:10227000CE00B5CF63006E0C630B67063307C74112
:1022800051879307C00363C0E70A63D8060093072A
:1022900040FC014581456340F7024685C2859710A1
:1022A0000000E780A0B297000000E780205297006E
:1022B0000000E780C0138547630AF40C8947630078
:1022C000F40A55D097E7FF179387C7DE9043D443AE
:1022D00097100000E780205D97E7FF17938787D965
:1022E0009043D44397100000E780E05BADBF6341AB
:1022F0000F0697E7FF17938767D78843CC43A5B7A7
:10230000B2402244C285410182802244B240410150
:10231000170300006700A30D97E7FF17938787D582
:102320008843CC4389B797E7FF17938727D488431F
:10233000CC4351B78947630FC705E30FF4FC8D47C2
:10234000E304F4F085476306F4060145814521BFA7
:1023500097E7FF17938787D38843CC4329B797E73D
:10236000FF17938727D59043D44397100000E78049
:10237000805397E7FF179387E7CF2A86AE86884377
:10238000CC4397100000E7800052F1BDB7070080F2
:10239000BD8DD1BD6304F4048D47630AF402854703
:1023A0006300F40297E7FF179387C7CF8843CC43B6
:1023B0005DBD97E7FF179387E7CC8843CC4365B5AE
:1023C00097E7FF17938787CE8843CC4369BD97E78C
:1023D000FF179387A7CC8843CC4371B597E7FF17C6
:1023E000938747CB8843CC43BDBD79714AD01399BD
:1023F000150022D426D252CC06D64ECE56CA5AC882
:102400005EC613591900B70710442E84AA842E8A79
:102410006349F904B707F07F63CE2701630BF90026
:102420006354402797E7FF17938747C48443C0430B
:1024300021A87DD526862685A286A2859700000044
:10244000E7802039AA842E84A285B25022542685A2
:1024500002599254F249624AD24A424BB24B456108
:102460008280B707DC3F6351F924B707203E6346FB
:10247000F91EFD5A2686A2862685A28597100000A1
:10248000E780A0FD2A86AE862A8BAE8B97100000CF
:10249000E780A0FC97E7FF179387C7C49043D44316
:1024A0002A89AE8997100000E78020FB97E7FF1785
:1024B0009387C7C39043D44397000000E7806031FF
:1024C0004A86CE8697100000E78020F997E7FF172D
:1024D000938747C29043D44397000000E780602F62
:1024E0004A86CE8697100000E78020F797E7FF170F
:1024F0009387C7C09043D44397000000E780602DC6
:102500004A86CE8697100000E78020F597E7FF17F0
:10251000938747BF9043D44397000000E780602B28
:102520004A86CE8697100000E78020F397E7FF17D2
:102530009387C7BD9043D44397000000E78060298C
:102540005A86DE8697100000E78020F197E7FF1794
:10255000938747BC9043D4432A8BAE8B4A85CE8564
:1025600097100000E78060EF97E7FF17938707BB9E
:102570009043D44397100000E780E0324A86CE862D
:1025800097100000E78060ED97E7FF17938787B902
:102590009043D44397100000E780E0304A86CE860F
:1025A00097100000E78060EB97E7FF17938707B865
:1025B0009043D44397100000E780E02E4A86CE86F1
:1025C00097100000E78060E997E7FF17938787B6C9
:1025D0009043D44397100000E780E02C4A86CE86D3
:1025E00097100000E78060E72A86AE865A85DE8570
:1025F00097000000E780E01D2686A2869710000065
:10260000E780A0E5FD572A86AE866386FA0897E73D
:10261000FFFF9387A7CD8E0ABE9A03A60A0283A660
:102620004A0297100000E78000282686A2869710AD
:102630000000E78040272A86AE8603A50A0083A50E
:102640004A0097100000E7800026AA842E84E35DEC
:102650000ADE370400802D8CC5BB97E7FF179387F0
:10266000E7A59043D44397000000E780801697E7E2
:10267000FF17938727A59043D44397100000E78066
:1026800040C9E358A0DEC9B397E7FF17938707A0B7
:102690008443C04355BB2685A28597100000E78080
:1026A0008020AA842E844DB397000000E78000129A
:1026B000B707F33F2A84AE846350F906B707E63FB5
:1026C000635EF90C2A86AE8697000000E7806010F2
:1026D00097E7FF179387079F9043D443814A97104A
:1026E0000000E780401C97E7FF179387279E9043E1
:1026F000D4432A89AE892285A68597000000E78009
:10270000400D2A86AE864A85CE8597000000E78078
:10271000E06BAA842E84B9BBB78703406350F906E7
:1027200017E9FF171309099B0326090083264900AF
:10273000894A97100000E7800017032609008326C6
:1027400049002A8BAE8B2285A68597100000E78072
:10275000C0D097E7FF179387E7969043D44397003D
:102760000000E78000072A86AE865A85DE8597003E
:102770000000E780A065AA842E84EDB997E7FF17D3
:102780009387C7958843CC432286A686970000008E
:10279000E780C0638D4AAA842E84E9B917E9FF1740
:1027A000130949920326090083264900854A971098
:1027B0000000E780400F2A8BAE8B0326090083269A
:1027C00049002285A68561BF8605858182803708FC
:1027D00010007D18B378B8008E089357D501011109
:1027E00013D745013378D800B3E7170193D84601D2
:1027F0000E0826CA4AC89374F77F93F8F87F1357D8
:10280000D60106CE22CC4EC613D9F501FD82336720
:1028100007010E050E06338814416316D922635151
:10282000000F63980802B366C700638B06569305D2
:10283000F8FF89E92A963335A600BA97AA97328518
:102840008544B1A89306F07F631DD8009304F07F00
:1028500079AA9306F07F638CD418B7068000558F51
:10286000C2859306800363C9B608FD4663C0B606F9
:10287000130800023308B840B3160701B358B60076
:1028800033160601B3E616013336C000558E3357B2
:10289000B7002A963E97B337A600BA9732851397AA
:1028A00087006356071485041307F07F6389E448A3
:1028B000B70680FFFD16FD8E935515000589939789
:1028C000F6014D8D5D8D93D7160015A2938605FEFA
:1028D00093080002B356D700014863881501130816
:1028E0000004B305B8403318B7003366C800333668
:1028F000C000558E014771BF598E3336C000DDBF11
:10290000630B080AB38598408DE4B3E6A700638F94
:1029100006409386F5FF99E63295BA973336C5009F
:10292000B29739BF1308F07F639D0501BA873285DE
:1029300031BF9306F07FE38BD8FEB7068000D58FBA
:10294000AE869305800363C4D506FD4563CBD502EF
:10295000130800023308D8403353D500B39507015C
:1029600033150501B3E565003335A0004D8DB3D6B1
:10297000D7003295B387E6003336C500B297C684D8
:1029800039BF938506FE13030002B3D5B700014893
:102990006388660013080004B306D8403398D70054
:1029A0003365A8003335A0004D8D8146D9B75D8DC4
:1029B0003335A000DDBF9386140093F5E67FBDE1BB
:1029C000B3E6A700A9E463870636B366C70085C2ED
:1029D0002A96BA973335A600AA97139787003285AF
:1029E00063570700370780FF7D17F98F85441377FA
:1029F0007500630807341377F50091466303D734F5
:102A00009306450033B5A600AA9736851DAE99DE1C
:102A1000598EE30D06E20149B707400001459304D2
:102A2000F07F05A69305F07F6389B6302A963E971E
:102A3000B337A6003E971315F7010582518D9357C2
:102A40001700B6846DB76356000D63910808B3662E
:102A5000C700638706349305F8FF91E93306C54044
:102A60003335C500998F898F32858544B1A093068F
:102A7000F07FE30DD8DC9306800363C8B608FD46FB
:102A800063CFB604130800023308B840B316070139
:102A9000B358B60033160601B3E616013336C0004C
:102AA000558E3357B7003306C5403387E740B337F9
:102AB000C500B307F740328513978700E35907F243
:102AC000370480007D147D8CAA8975A29306F07F5F
:102AD000E38FD4F0B7068000558FC28569BF938617
:102AE00005FE93080002B356D7000148638815011C
:102AF00013080004B305B8403318B7003366C800A4
:102B00003336C000558E014779BF598E3336C00029
:102B1000DDBF6304080C3388984095E8B3E5A7004F
:102B2000638205289305F8FF91E93305A640B307B2
:102B3000F7403336A600918F368905BF1303F07F27
:102B4000631F6800BA8732859304F07F7DA09305E8
:102B5000F07FE389B8FEB7058000CD8FC2851308EA
:102B600080036348B8067D48634EB8021303000231
:102B70003303B340335EB500339867003315650007
:102B80003368C8013335A0003365A800B3D5B7005A
:102B90003305A640B307B7403336A600918FC684ED
:102BA000368919BF138805FE130E000233D80701BA
:102BB00001436388C50113030004B305B340339395
:102BC000B7003365A3003335A0003365A800814505
:102BD000C1B75D8D3335A000DDBF9385140093F53B
:102BE000E57FB5E533E8A700B365C700B1E4631836
:102BF0000800638D051ABA8732853689CDBBE38814
:102C000005DE3308C540B385E740B3380501B38519
:102C1000154113948500635A04003305A640B30799
:102C2000F7403336A600918FC9BF3365B800630300
:102C30000518AE87428565BB63180800638E0516CC
:102C4000BA873285368919B1E38205C0E9B3B30981
:102C5000C540B33535013384E7400D8C93158400AE
:102C600063D90506B309A640B307F74033363601EA
:102C70003384C740368925C4228597200000E78029
:102C800060DD130785FFFD4763C3E7069307000276
:102C9000998F3314E400B3D7F9005D8C3395E900C4
:102CA00063409708058F93071700FD4663C7F60436
:102CB000130700021D8F3356F500B316E4003315D9
:102CC000E500D18E3335A000558DB357F400814413
:102CD00039BB33E5890045F181478144D1A84E8550
:102CE00097200000E78000D71305050259BF1304A1
:102CF00085FD33948900014565B705171306000269
:102D00003357E40081466387C700930600049D8E15
:102D1000B316D400558D3335A000598D814745BF7A
:102D2000B70780FFFD17998CE18FD1B1BA87328543
:102D3000AE8475B9BA8732855DB99304F07F814757
:102D4000014513978700635B070085041307F07F35
:102D50006389E406370780FF7D17F98F1397D70142
:102D60000D81598D1307F07F8D836399E4005D8D8C
:102D7000814709C5B70708000145014913F7F47FEA
:102D8000B2075207F2406244B1839315F901D98F1B
:102D900033E7B700D2444249B249BA85056182801F
:102DA000C284B1B1BA873285C28481BD81470145F1
:102DB000014941BF8147EDBF01450149B7074000C7
:102DC000B9B98147014559BF797113D8450126D258
:102DD0004ECE52CC5AC85EC69394C50006D622D4B5
:102DE0004AD056CA1378F87F2A8BB28B368AB180C4
:102DF00093D9F501630408089307F07F630EF80C7C
:102E0000935AD5018E04B3E49A00B70A8000B3EA5E
:102E1000540113143500130918C0014B13554A010E
:102E20009314CA001378F57FB180135AFA0163082E
:102E3000080C9307F07F6301F8121395340093D7C1
:102E4000DB015D8DB7048000C98C139F3B00130527
:102E500018C0814713172B005D8F7D17B94633C605
:102E600049013308A94063EBE61097D6FFFF93862C
:102E7000E64B0A073697184336970287B3EAA40051
:102E800063860A068DCC268597200000E78080BCEB
:102E9000930755FF7147634BF702F54A130485FF0B
:102EA000B38AFA40B3948400B35A5B01B3EA9A0040
:102EB00033148B001308D0C03309A840B9BF972042
:102EC0000000E78020B913050502D9B7930485FDFA
:102ED000B31A9B000144F9BFB3EAA400638C0A0053
:102EE0002A84A68A1309F07F0D4B0DBF01440149C6
:102EF000054B2DB701441309F07F094B05B733EF9C
:102F0000740163040F069DC8268597200000E780A2
:102F100060B4930755FF7147634AF7027547130F73
:102F200085FF1D8FB394E40133D7EB00D98C339F19
:102F3000EB011306D0C03305A64021BF5E85972064
:102F40000000E78020B113050502E1B7930485FD79
:102F5000B3949B00014FF1BF33EF7401630B0F007B
:102F60005E8F1305F07F8D47F5B581440145854798
:102F7000D5B581441305F07F8947E9BD63E6540167
:102F800063939A2A6361E42B9396FA011357140012
:102F90009317F40193DA1A0033E4E60013958400E2
:102FA00093548F01458D135E0501B3D8CA031313E3
:102FB0000501135303011357040193158F00B3F454
:102FC000CA03C68FB3061303939A040133675701EC
:102FD000637CD7002A97938FF8FF6367A700637518
:102FE000D700938FE8FF2A97158FB35EC70342047B
:102FF00041803377C703F686B308D3034207418F76
:10300000637C17012A979386FEFF6367A7006375A9
:1030100017019386EEFF2A97C20FB3EFDF00C16658
:10302000330417419388F6FF13DF0F0133F71F01B5
:1030300093DE0501B3F81501B3031703B3041F03AF
:103040003387EE02B302DF03330F970013D7030178
:103050007A9763739700B692135F0701169FC16258
:10306000FD12B3765700C206B3F353009E96636712
:10307000E401FE84631EE40363FCD702AE9733B71A
:10308000B7002A973A949384FFFF63668500631123
:10309000850263EFB7006366E401631B8F0063F989
:1030A000D700AE9733B7B7002A979384EFFF3A94CF
:1030B000B386D7403304E441B3B7D7001D8C7D5F9E
:1030C0006305850E335FC40313D706013374C4034D
:1030D000B307E3034204598C7A87637CF4002A9493
:1030E0001307FFFF6367A4006375F4001307EFFF86
:1030F0002A941D8C335FC403C206C1823374C40397
:10310000FA873303E3034204558C637C64002A94FA
:103110009307FFFF6367A400637564009307EFFFE5
:103120002A9442075D8F93170701C18333046440DB
:1031300013530701338E1703B308130333836E024F
:10314000B38EFE0293570E01C69EF69763F41701E5
:10315000C166369393D807019A9841637D13B3F6FD
:103160006700C206337E6E00F29663661401631E2A
:1031700014193A8F9DCA2A94130FF7FF6361A402B2
:10318000636614016312141963FDD500939715004B
:10319000B3B5B7002E95130FE7FF2A94BE856314CD
:1031A00014016384B600136F1F001307F83F6357C1
:1031B000E00A93777F0081CF9377FF009146638881
:1031C000D70093064F0033BFE601FA94368F9397EA
:1031D000740063D80700B70700FFFD17FD8C1307C5
:1031E00008409307E07F63C8E710135F3F009397A1
:1031F000D401B3E7E70113D5340032051377F77F25
:103200005207B25022543181598D7E063367C50072
:1032100092540259F249624AD24A424BB24B3E851D
:10322000BA85456182807D1881478DBB4E86D684E4
:10323000228FDA8709476380E70C0D476386E70A28
:103240000547E394E7F60145814785A85286DDB737
:10325000B7040800014F01468D47E9BF0545198DA8
:1032600093078003E3C1A7FEFD4763CAA7041308C1
:10327000E841B39704013357AF0033180F01D98FDA
:1032800033380001B3E7070133D5A40013F7770003
:1032900001CF13F7F70091466308D7001387470063
:1032A000B337F7003E95BA8713178500634A0704C2
:1032B0001317D5018D83D98F0D8101473DBF8557E8
:1032C000998F93060002B3D7F40001476306D50037
:1032D0001308E84333970401336FE701333FE001FC
:1032E000B3E7E70101455DB73705080081471307DC
:1032F000F07F014619B7014581471307F07FF5BDFF
:10330000014581470547D5BD7A873A8F69BD13D8F6
:103310004501B7071000FD1713D746011378F87F52
:10332000930EF07FB3F8B7002A83F58FFD81328EBC
:103330001377F77FFD826318D801B3EEA800638589
:103340000E06F9550DA86316D701B3EEC700E39A30
:103350000EFE631D080433E5A8001335150019E3BC
:103360005D8E15CE11E5638AD50085C9FD5521A076
:10337000FD5591C2B6852E858280E34807FF6354D0
:10338000E800F5F9E5B7E3E217FF639CF800E36EA8
:103390006EFCE368C3FF8145F9BF8545E9BF65FD64
:1033A000E9B7E3E0F8FEC5BFE30107FB4DFF0145C8
:1033B00045BF13D84501B7071000FD1713D74601C5
:1033C0001378F87F930EF07FB3F8B7002A83F58F58
:1033D000FD81328E1377F77FFD826318D801B3EE3B
:1033E000A80063850E0689450DA86316D701B3EEC4
:1033F000C700E39A0EFE631D080433E5A8001335E9
:10340000150019E35D8E15CE11E5638AD50085C9D7
:10341000FD5521A0FD5591C2B6852E858280E348D9
:1034200007FF6354E800F5F9E5B7E3E217FF639C93
:10343000F800E36E6EFCE368C3FF8145F9BF854584
:10344000E9BF65FDE9B7E3E0F8FEC5BFE30107FBAF
:103450004DFF014545BF79714ECE93D9450122D428
:1034600026D252CC56CA5AC89394C50006D64AD022
:103470005EC693F9F97F2A84328BB68AB18013DA5B
:10348000F501638109089307F07F6389F90C93576D
:10349000D5018E04DD8CB7078000DD8C1319350053
:1034A000938919C0814B13D54A011394CA0013752F
:1034B000F57F318093DAFA0161C59307F07F630DE0
:1034C000F5109357DB010E045D8CB70780005D8C0F
:1034D000130515C093173B00014793962B00D98E17
:1034E0004E95FD16B94533465A011308150063E69B
:1034F000D51097D5FFFF938525E78A06AE969442AF
:10350000AE96828633E9A400630309069DC826852A
:1035100097100000E7800054130755FFF14763C977
:10352000E702F547130985FF998FB3942401B35738
:10353000F400DD8C331924019309D0C0B389A9406C
:1035400095B797100000E780E05013050502E9B732
:10355000930485FDB31494000149F9BF33E9A40035
:10356000630B09002A899309F07F8D4B2DBF81449D
:103570008149854B0DBF81449309F07F894B25B765
:10358000B3676401B5C31DC8228597100000E780AA
:10359000604C930655FFF14763CAD70275479307FE
:1035A00085FF158F3314F4003357EB00598CB31794
:1035B000FB001307D0C03305A74039BF5A859710C9
:1035C0000000E780204913050502E1B7130485FDDB
:1035D00033148B008147F1BFB367640191CBDA8765
:1035E0001305F07F0D47D5BD014401450547F5B5ED
:1035F00001441305F07F0947CDB5416F930EFFFFDE
:103600001357090193D807013379D901B3F7D701CB
:10361000B3852803B3862703B30FF7023383F5017D
:1036200093D506019A95330E170363F3F5017A9E3D
:1036300093D30501B3F5D501B3F6D601135F0401A9
:10364000B372D401C205B695B30E5702B3862203F6
:1036500033092F033303D90113D906011A9933070C
:10366000E7036374D90141631A97935E0901C16945
:10367000BA9E1387F9FF3379E900F98E13D4040158
:103680004209F98C369933879702CA933303F402BF
:10369000B3869802B3878802B38866009356070101
:1036A000C69663F36600CE9793D80601C169B38FBF
:1036B000F8009387F9FFFD8E7D8FB3889202C206D2
:1036C000BA96B3075402B3049F0233038F02BE9429
:1036D00013D40801A29463F3F4004E93C167FD175D
:1036E00033F7F400B3F8F80042071E9E46973339CB
:1036F0002E01769733042701369EB336DE00B308D9
:10370000F401338FD8003337D70133342401598C77
:10371000C180B3B8F801B336DF002694B3E6D80011
:1037200036941A9493577F0126045D8C93179E005C
:10373000CD8FB337F000135E7E0113179F00B3E700
:10374000C701D98F131774006358070A13D71700DE
:10375000858BD98F1317F401D98F05809306F83F15
:10376000635ED00813F7770001CF13F7F700914598
:103770006308B70013874700B337F7003E94BA8752
:103780001317740063580700370700FF7D17798C03
:10379000930608401307E07F634CD70E13D737001A
:1037A0009317D401D98F0D80320413F7F67F520797
:1037B0003180598C7E063367C400B2502254925433
:1037C0000259F249624AD24A424BB24B3E85BA850F
:1037D0004561828052862684CA875E87894663094E
:1037E000D70A8D46630FD7088546E319D7F60144FB
:1037F00081479DA05686DDB72A888DB78545958D72
:1038000013078003E345B7FE7D476349B7041308F8
:10381000E84133170401B3D6B700B3970701558FBA
:10382000B337F000D98F3354B40013F7770001CFCA
:1038300013F7F70091466308D70013874700B337A3
:10384000F7003E94BA8713178400634807041317E0
:10385000D4018D83D98F0D808146B9B70557158F57
:10386000130500023357E40081466386A500130860
:10387000E843B3160401D58FB337F000D98F014464
:103880006DB73704080081479306F07F014629BFD2
:10389000014481479306F07F01BF0144814785467B
:1038A00021B7370810007D18B378B8008E089357F9
:1038B000D501011113D745013378D800B3E71701BB
:1038C00093D8460126CA4AC89374F77F13D9F501E5
:1038D0001357D6010E0806CE22CC4EC693F8F87FB9
:1038E0009305F07F0E05FD82336707010E06639591
:1038F000B800B365C70099E193C616003388144138
:1039000063932623635C000F63950804B366C700C6
:103910008DC21388F4FF631A08002A963335A60077
:10392000BA97AA973285854495A89306F07F639944
:10393000D402137775006306074E1377F50091469E
:103940006301D74E9306450033B5A600AA97368586
:10395000C9A99306F07FE38ED4FCB7068000558F8B
:103960009306800363C80609FD4663C006079305F6
:103970000002B3850541B316B700B35806013316EC
:10398000B600B3E616013336C000558E3357070133
:103990002A963E97B337A600BA97328513978700C9
:1039A000E35907F885041307F07F638AE446B706F6
:1039B00080FFFD16FD8E9355150005899397F6013E
:1039C0004D8D5D8D93D71600ADB7930608FE930815
:1039D0000002B356D700814563081801930500041F
:1039E00033880541B31507014D8E3336C000558E1F
:1039F000014779BF598E3336C000DDBF630B080A1B
:103A0000B38598408DE4B3E6A700638106409386B2
:103A1000F5FF99E63295BA973336C500B29721B7CC
:103A20001308F07F639D0501BA873285E5AC9306E4
:103A3000F07FE38BD8FEB7068000D58FAE86930566
:103A4000800363C4D506FD4563CBD502130800028D
:103A50003308D8403353D500B3950701331505011A
:103A6000B3E565003335A0004D8DB3D6D700329550
:103A7000B387E6003336C500B297C68405B7938591
:103A800006FE13030002B3D5B70001486388660041
:103A900013080004B306D8403398D7003365A80054
:103AA0003335A0004D8D8146D9B75D8D3335A000EB
:103AB000DDBF9386140093F5E67FA9E5B3E6A70082
:103AC0009DE463890634B366C700E38406E62A965C
:103AD000BA973335A600AA97139787003285E35A21
:103AE00007E4370780FF7D17F98F854499B58DDE90
:103AF000598E630906220149B70740000145930426
:103B0000F07F05A69305F07F6389B6302A963E972D
:103B1000B337A6003E971315F7010582518D9357D1
:103B20001700B68439B56355000D63920808B36673
:103B3000C700E38006E01388F4FF631B0800330628
:103B4000C5403335C500998F898F32858544B1A032
:103B50009306F07FE38FD4DC9306800363C60609E7
:103B6000FD4663CE060593050002B3850541B316F5
:103B7000B700B35806013316B600B3E61601333664
:103B8000C000558E335707013306C5403387E740E1
:103B9000B337C500B307F740328513978700E35A60
:103BA00007D8370480007D147D8CAA896DA2930606
:103BB000F07FE380D4D8B7068000558F71BF93069D
:103BC00008FE93080002B356D70081456308180128
:103BD0009305000433880541B31507014D8E333634
:103BE000C000558E01474DB7598E3336C000DDBF3A
:103BF0006304080C3388984095E8B3E5A700638117
:103C000005289305F8FF91E93305A640B307F7406F
:103C10003336A600918F368915BF1303F07F631FDB
:103C20006800BA8732859304F07F7DA09305F07F0A
:103C3000E389B8FEB7058000CD8FC28513088003E5
:103C40006348B8067D48634EB8021303000233038D
:103C5000B340335EB50033986700331565003368B1
:103C6000C8013335A0003365A800B3D5B7003305CC
:103C7000A640B307B7403336A600918FC684368975
:103C800029BF138805FE130E000233D80701014334
:103C90006388C50113030004B305B3403393B70031
:103CA0003365A3003335A0003365A8008145C1B753
:103CB0005D8D3335A000DDBF9385140093F5E57F5E
:103CC000BDE533E8A700B365C700B1E46318080099
:103CD000638C051ABA8732853689A1B9E38B05C48E
:103CE0003308C540B385E740B3380501B3851541B6
:103CF00013948500635A04003305A640B307F740C8
:103D00003336A600918FC9BF3365B800630205182A
:103D1000AE87428539B9631A0800638D0516BA87E4
:103D2000328536899304F07F29B1EDDDE9B3B3091B
:103D3000C540B33535013384E7400D8C93158400BD
:103D400063D90506B309A640B307F74033363601F9
:103D50003384C740368925C4228597100000E78048
:103D600060CF130785FFFD4763C3E7069307000293
:103D7000998F3314E400B3D7F9005D8C3395E900D3
:103D800063409708058F93071700FD4663C7F60445
:103D9000130700021D8F3356F500B316E4003315E8
:103DA000E500D18E3335A000558DB357F400814422
:103DB00049B633E5890045F181478144C1A84E8564
:103DC00097100000E78000C91305050259BF1304CE
:103DD00085FD33948900014565B705171306000278
:103DE0003357E40081466387C700930600049D8E25
:103DF000B316D400558D3335A000598D814745BF8A
:103E0000B70780FFFD17998CE18F25B6BA873285F9
:103E1000AE8405B6BA87328529BE9304F07F814708
:103E2000014513978700635B070085041307F07F44
:103E30006387E406370780FF7D17F98F1397D70153
:103E40000D81598D1307F07F8D836399E4005D8D9B
:103E5000814709C5B70708000145014913F7F47FF9
:103E6000B2075207F2406244B1839315F901D98F2A
:103E700033E7B700D2444249B249BA85056182802E
:103E8000BA873285C28489BD81470145014951BF46
:103E90008147EDBF01450149B70740008DB181471A
:103EA000014569BF411106C622C426C22DC19357E0
:103EB000F54133C4A7001D8C9354F501228597105A
:103EC0000000E78020B91307E041A947098F63CAC2
:103ED000A702AD47898F5505B357F4003314A400EA
:103EE0002685B2071377F77F5207B1837E05D98FF6
:103EF00033E7A700B240228522449244BA854101AB
:103F000082805515B317A40026850144D9BF014707
:103F10008147E5BF411122C406C62A8421C59710F6
:103F20000000E78020B31307E041A947098F63C66B
:103F3000A702AD47898F5505B357F4003314A40089
:103F40002285B2402244B2071377F77F5207B1832C
:103F5000B3E6E700B685410182805515B317A4008A
:103F60000144F9BF81470147E1BF011106CE22CCD0
:103F700026CA4AC84EC652C4B367B5006386071442
:103F80002A842E89AE84BDC52E8597100000E78057
:103F900060ACAA89130AE043330A3A4193073043DD
:103FA00063C74707AD47228563D337039307A00252
:103FB00063C937059305B002938759FFB38535412F
:103FC000B355B400B314F900CD8C3315F4009395B8
:103FD000C400F2406244137AFA7F520AB181B3E717
:103FE00045012A87D2444249B249224A3A85BE85D0
:103FF0000561828097100000E780C0A59309050243
:1040000051BF938559FDB314B4000145C9B7930757
:10401000604363D94703138689032285CA859710B5
:104020000000E78080A0C98D2146B334B00022850E
:10403000CA853306364197100000E780609C33E460
:10404000A4002E89A147228563D437039307700209
:1040500063C6370793058002938789FFB38535418F
:104060003319F900B355B40033E925013315F400D1
:10407000B70780FFFD17B375F9009377750081CFFF
:104080009377F50011476388E7009307450033B540
:10409000A700AA953E859397850063DA0700B707C6
:1040A00080FFFD17130AF043FD8D330A3A410D815D
:1040B0009397D5015D8D93D4350011BF138989FD88
:1040C0003319240101456DB781440145014A01B707
:1040D0003707800041117D17B377A70026C24AC079
:1040E0009354F5011359750113D575016D8F13792B
:1040F000F90F1375F50F06C622C4FD818E070E0752
:10410000B306A9406392B412635AD00621E1630B4F
:104110000726FD168DE6BA974A851397570063590F
:10412000070C05051307F00F6304E5263707007E2B
:1041300093F617007D178583F98FD58F55A8130641
:10414000F00F631CC9001305F00F5DA01306F00FFC
:10415000E30BC9FE37060004518F6D466354D60049
:10416000054755BF13060002B355D700B306D64026
:104170003317D7003337E0004D8F71BFB9C6330610
:104180002541631D090089CB7D1619E2BA9771B7E5
:104190009306F00F631BD500BA8799A89306F00F1A
:1041A000E30CD5FEB7060004D58FED4663D4C600F8
:1041B0008547E9BF93060002918EB3D5C700B39738
:1041C000D700B337F000CD8FD1B79306190013F5A0
:1041D000E60F39E163190902E1D319CBBA971397B6
:1041E000570063570700370700FC7D17F98F054517
:1041F00013F77700630F071813F7F7009146630A68
:10420000D718910779A26381071815DF8144B70792
:1042100000021305F00FB5AA1306F00F6388C61647
:10422000BA9785833685E9B76355D0061DE94A8577
:1042300061D3FD1681EE998F13975700E35A07FA61
:10424000370400047D147D8C2A89C5A81306F00F5D
:104250001305F00FE30EC9F86D46635ED6000547FF
:1042600035A01306F00F1305F00FE303C9F8370666
:104270000004518FD5B713060002B355D700B3061B
:10428000D6403317D7003337E0004D8F998F4A85DA
:1042900065B7B9CA330625416310090299CB7D166B
:1042A00009E6B307F740AE8441BF9306F00F631CE5
:1042B000D500BA87AE842DBF9306F00FE30BD5FE71
:1042C000B7060004D58FED4663D4C6008547D1BF3D
:1042D00093060002918E33D8C700B397D700B33747
:1042E000F000B367F80075BF130519001375E50FEB
:1042F00005ED6314090289E74DFF8147814451A808
:10430000E30807EEB386E74013965600B307F7407D
:10431000E34206FAFDD2B687E1BDE39807EEE30774
:1043200007EEBA87AE8405B53384E7409316540090
:1043300063DF06023304F740AE8422859700000055
:10434000E78040716D153314A400634625033305DF
:104350002541050513070002B357A4003305A74004
:104360003314A40033348000C18F014551B571F47A
:104370008147014561B7B70700FCFD173305A94028
:10438000E18FBDB54A85ADB5BA8775BB1305F00F92
:10439000814713975700635B070005051307F00F6C
:1043A000630FE502370700FC7D17F98F1307F00F45
:1043B0008D836316E50081C7B707400081441375FC
:1043C000F50FB2402244A6071317750113D59700C5
:1043D000FE04598D458D02499244410182808147F6
:1043E000F1B7011126CA935475014AC84EC652C48A
:1043F0009319950006CE22CC56C293F4F40F2E8A60
:1044000093D999001359F501B5C49307F00F63824E
:10441000F4088E09B7070004B3E9F900938414F88F
:10442000814A13557A0113149A001375F50F2580EC
:10443000135AFA012DC99307F00F6305F5080E040E
:10444000B70700045D8C130515F8814793962A0081
:10445000DD8EFD163947334649013385A440636C30
:10446000D70697C5FFFF9385E5F38A06AE96984277
:104470002E970287638609024E8597000000E78029
:10448000605D9307B5FF9304A0F8B399F900898C98
:1044900041BF9304F00F894AE38509F88D4A51B76B
:1044A0008144854ABDBF0DC4228597000000E78086
:1044B000605A9307B5FF3314F4009307A0F83385CF
:1044C000A74061B71305F00F894749D08D47BDBF9D
:1044D00001458547A5BF1318540063FE890A7D1561
:1044E00081461354080133D38902C167FD17B3779E
:1044F000F800C18233F789029A85B38867024207C0
:10450000558F637C170142979305F3FF636707019B
:10451000637517019305E3FF429733071741B358BB
:10452000870233778702B3861703931707014687FD
:1045300063FCD700C2971387F8FF63E7070163F5B1
:10454000D7001387E8FFC29713940501958F598C04
:10455000B337F0005D8C1307F507635AE0089377D3
:10456000740099C79377F40091466383D7001104D0
:104570009317440063D80700B70700F8FD177D8C38
:10458000130705089307E00F0D8063D9E702014484
:104590001307F00F25A09396F90193D9190091B74D
:1045A0004A864E84D6870947E383E7FE0D47638F2B
:1045B000E7060547E391E7FA01440147260413772C
:1045C000F70F5E072580598C1315F601418DF240D7
:1045D0006244D2444249B249224A924A05618280E9
:1045E0005286D1B73704400001468D476DBF8547DD
:1045F000998F6D47E342F7FC1305E509B357F400C3
:104600003314A400333480005D8C9377740099C711
:104610009377F40011476383E70011049317540064
:104620000D80E3DC07F80144054749BF370440002B
:104630001307F00F014659B793567501B70780006D
:10464000FD1713D7750193F6F60F1308F00F33F625
:10465000A7001377F70FED8F7D81FD81639506012C
:1046600039C27955828063130701E5FF9DEE11E39E
:104670008DCB01CA6314B5006359D7000DC17D55B8
:1046800082807D5591C52E85828063D4E60065D9F0
:104690008280E3E5C7FEE36CF6FE014582800545B6
:1046A000828065DEE1BFE302D7FC69F7E1DBD9B7C1
:1046B00093567501B7078000FD1713D7750193F660
:1046C000F60F1308F00F33F6A7001377F70FED8FEF
:1046D0007D81FD816395060139C20945828063139E
:1046E0000701E5FF9DEE11E38DCB01CA6314B50010
:1046F0006359D7000DC17D5582807D5591C52E85AA
:10470000828063D4E60065D98280E3E5C7FEE36C6E
:10471000F6FE014582800545828065DEE1BFE30249
:10472000D7FC69F7E1DBD9B79357750137068000ED
:104730009306F6FF93F7F70F9305E007E98E1357FB
:10474000F501014563FBF50211E71307E0097D550B
:104750006373F70082801307500933E5C60063577F
:10476000F7009387A7F63315F500828013076009D9
:10477000B307F7403355F50082808280411106C6A9
:1047800022C426C2AA8745C91357F5413344A7005E
:10479000198C9354F501228597000000E780802B47
:1047A0009307E009898F130760096346F7022147E1
:1047B0006355A70061153314A400260493F7F70F7F
:1047C000DE0725801395F4015D8C418DB2402244B3
:1047D00092444101828013079009635DF7001547F9
:1047E000098F9306B5013357E4003314D4003334F2
:1047F0008000598C15476356A7001307B5FF331483
:10480000E400370700FC7D1793767400618F91C632
:104810003D8891466303D40011079316570063D96E
:104820000600B70700FCFD177D8F9307F009898FFD
:104830001354370059B78144014441B79357750168
:10484000411193F7F70F22C426C213149500935415
:10485000F5011385170006C61375E50F258015C5EC
:1048600013850738935734007604B2071375F57F24
:104870005205B183C98FB24022852244FE0433E73A
:104880009700BA859244410182808DEF79DC2285C0
:1048900097000000E780001CA94763CFA700AD4741
:1048A000898F13075501B357F4003314E40013073D
:1048B00090383305A74055BF930755FFB317F40051
:1048C0000144F5B7814719C49357340037070800EE
:1048D0007604D98F1305F07F49BF1396C500318246
:1048E00013D84501931736001378F87F1356D50176
:1048F0005D8E9307180093F7E77FFD81131735004E
:10490000D1C3930608C89307E00F63CBD70863426F
:10491000D006A55763C9F60CB707800079455D8EB0
:10492000158DFD4763C3A702130828C8B3170701F5
:10493000B337F000331606013355A700D18FC98F66
:10494000814613F7770025C34DA0F957B386D740AA
:1049500093070002B356D60081486306F50013089A
:1049600028CAB3180601B3E7E800B337F000D58FC3
:10497000C1BF1A053335A0000E069357D701498EE3
:10498000D18FC1B7B367E60063150800B337F000F5
:1049900045BF9306F00F81CB0E06B7070002CDB7D7
:1049A00081479306F00F13975700635B0700850656
:1049B0001307F00F6382E604370700FC7D17F98FB9
:1049C0001307F00F8D836396E60081C7B707400099
:1049D0008145A60793F6F60FDE06A583FE05D58F63
:1049E00033E5B70082808547814613F7F70011460B
:1049F000E30BC7FA910745BF8147D9B701CE9307AB
:104A00000002918F6349F000130506FE014733D57C
:104A1000A500BA85828033D7C5003355C500B3954C
:104A2000F5004D8DFDB701CE93070002918F6349CC
:104A3000F000930506FE0147B315B5003A85828064
:104A40003317C500B395C5003355F500C98DFDB7C3
:104A5000C1676376F5029307F00FB3B7A7008E071F
:104A6000130700021D8FB357F50017C5FFFF13058D
:104A70002597AA9703C507003305A740828037070B
:104A80000001C147E36EE5FCE147D9BF411106C60D
:104A900022C4814601478147930800047300000047
:104AA0002A84635A05003304804097000000E780A1
:104AB000600100C17D542285B240224441018280C0
:0C4AC00097B7FF179387475A88438280FE
:044ACC0000000020C6
:104AD00000000000000000000000000000000000D6
:104AE00000000000000000000000000000000000C6
:104AF00000000000000000000000000000000000B6
:104B000000000000000000000000000000000000A5
:104B10000000000000000000000000000000000095
:104B20000000000000000000000000000000000085
:104B300000F36F0600000020182D4454FB21F93FBC
:104B4000182D4454FB210940182D4454FB2109C061
:104B50000000000000000080182D4454FB21F9BF24
:104B6000D221337F7CD90240D221337F7CD902C04D
:104B7000182D4454FB21E93F182D4454FB21E9BF73
:104B8000075C143326A6A13C9C7500883CE4377E64
:104B9000000000000000F03F0000000000000040A6
:104BA000000000000000F83F000000000000F0BF1F
:104BB00011DA22E33AAD903FEB0D76244B7BA93F0F
:104BC000513DD0A0660DB13F6E204CC5CD45B73FDD
:104BD000FF8300922449C23F0D5555555555D53F89
:104BE0002F6C6A2C44B4A2BF9AFDDE522DDEAD3F7D
:104BF0006D9A74AFF2B0B33F711623FEC671BC3F1D
:084C0000C4EB98999999C93F92
:040000050800015C92
:00000001FF
