:020000040800F2
:10000000B1AA010000000000000000000000000094
:1000100000000000000000000000000000000000E0
:1000200000000000000000000000000000000000D0
:1000300000000000000000000000000000000000C0
:1000400000000000000000000000000000000000B0
:1000500000000000000000000000000000000000A0
:100060000000000000000000000000000000000090
:100070000000000000000000000000000000000080
:100080000000000000000000000000000000000070
:100090000000000000000000000000000000000060
:1000A0000000000000000000000000000000000050
:1000B000000000000000000000000000EE2F00081B
:1000C0000000000000000000000000000000000030
:1000D0000000000000000000000000000000000020
:1000E0000000000000000000000000000000000010
:1000F0000000000000000000000000000000000000
:1001000000000000000000000000000000000000EF
:1001100000000000000000000000000000000000DF
:1001200000000000000000000000000000000000CF
:1001300000000000000000000000000000000000BF
:1001400000000000000000000000000000000000AF
:100150000000000000000000000000007370043088
:10016000170500001305C5FF8545F605637BB5003F
:1001700089816378B500170500001305C5002E9529
:1001800002859302002073A0027D970200009382F3
:1001900062E773907230974200009382E2B67390E8
:1001A000C27E73E0C07E974200009382A2AD73903E
:1001B0005230970100189381E16A178100181301EA
:1001C00061E4177500001305E5F99705001893859C
:1001D00065E317060018130666F763FAC500832265
:1001E000050023A0550011059105E3EAC5FE17059A
:1001F00000181305A5F5971500189385252A637730
:10020000B500232005001105E36DB5FE73F0023241
:10021000174500001305C5BA97400000E780E0B518
:1002200097400000E78040BD97100000E7806026FF
:100230000145814597000000E780402F17430000EB
:100240006700A3B401A073E00232828073F002322F
:0402500082800000A8
:100280000000000000000000010203040607080946
:100290000A50726F6772616D2068617320657869BA
:1002A000746564207769746820636F64653A000040
:1002B000307800006E6D690A000000007472617091
:1002C0000A00000000000000000000000040AF40F5
:1002D000464154004641543332000000222A2B2C60
:1002E0003A3B3C3D3E3F5B5D7C7F00000000C841E7
:1002F0000000A04100000000F8C1631ADCA54C40DA
:100300004C4F47472E4353560000000054696D6D13
:10031000652C4D696E75742C417676696B656C73CE
:10032000650A0000256C752C256C752C25640A0067
:10033000232D302B20000000686C4C00656667455B
:100340004647000030313233343536373839414290
:1003500043444546000000003031323334353637EF
:1003600038396162636465660000000000000000C7
:100370004FBB610567ACDD3F182D4454FB21E93FBD
:100380009BF681D20B73EF3F182D4454FB21F93FAC
:10039000E2652F227F2B7A3C075C143326A6813C32
:1003A000BDCBF07A8807703C075C143326A6913CDD
:1003B00010580000605700006657000060570000AA
:1003C00002580000605700006657000010580000F7
:1003D0001058000002580000665700004657000001
:1003E00046570000465700006A570000BA5C0000FC
:1003F000BA5C0000D25C0000B45C0000B45C000099
:10040000605D0000D25C0000B45C0000605D000034
:10041000B45C0000D25C0000B25C0000B25C000082
:10042000B25C0000605D00000001020203030303F0
:100430000404040404040404050505050505050574
:100440000505050505050505060606060606060654
:10045000060606060606060606060606060606063C
:100460000606060606060606070707070707070724
:10047000070707070707070707070707070707070C
:1004800007070707070707070707070707070707FC
:1004900007070707070707070707070707070707EC
:1004A00007070707070707070808080808080808D4
:1004B00008080808080808080808080808080808BC
:1004C00008080808080808080808080808080808AC
:1004D000080808080808080808080808080808089C
:1004E000080808080808080808080808080808088C
:1004F000080808080808080808080808080808087C
:10050000080808080808080808080808080808086B
:10051000080808080808080808080808080808085B
:10052000080808080808080859711305206086D6CD
:10053000A2D4A6D237140140CECED2CCD6CADAC8C5
:10054000DEC6E2C4E6C26EDECAD0EAC09700000092
:10055000E7804051930600020D4691451305048043
:1005600097000000E78060271305306097000000C7
:10057000E780404F85460D46C145130504C09700EE
:100580000000E7808025930600020D46C145130553
:1005900004C097000000E7804024130550719700C5
:1005A0000000E780204C9306000C0D46F145130532
:1005B00004C097000000E780402237550040130533
:1005C000054097200000E780407697200000E780F4
:1005D000807F481097300000E78020BB9700000024
:1005E000E780001C97300000E7806092B7070008A2
:1005F00003AA872F83AAC72FB707000803ACC72E0B
:10060000B707000883AC072FB7040020814D814B4A
:1006100093090000370B0020938404672808973063
:100620000000E78080B60255130D4B15977000004F
:10063000E780008A2AC462452EC697700000E780D2
:1006400020892246B24697400000E780E045B70780
:100650000080AD8F5286D686BE8597500000E78019
:10066000606C97700000E780809093074B1503A99A
:100670000700B7170140930500022A8413850780FD
:1006800097000000E7802020B717014085453DED29
:10069000138507C097000000E780601E1305200344
:1006A00097100000E780C0E1A289CE85228597607F
:1006B0000000E780C03DE285AA8B370400209760E8
:1006C0000000E780C02D1304C4156355A00A371538
:1006D000014093050002130505C097000000E78064
:1006E000001A638E0D02854D03290D001840956791
:1006F0009387F7E13307E940854BE3F1E7F2972071
:100700000000E78060712320240109BF138507C022
:1007100097000000E780E016E3820BF079B7370618
:100720000020832606159307B0121306061563D71B
:10073000D700232006002320240175B7B7F7360021
:10074000938707E8B355F9023147B377F902338746
:10075000E602850614C226970CC3BD65938505A6DF
:10076000B3D7B702232477015CC39307C012E39C7D
:10077000F6F6C1B7E6855E8597600000E780A029A0
:10078000E35405F63715014093050002130505C033
:1007900097000000E780E00E814DB9B7F3670430A1
:1007A0008280011106CE22CC32C42A842EC6971034
:1007B0000000E780A0BAB245228597100000E780CC
:1007C000E0BB224622856244F240B28505611713E0
:1007D0000000670023C093F7050193F8F50099C363
:1007E000B3E8C8008147054EBD4E130F8002930F3A
:1007F000800421433316FE00758E1DC21397270017
:10080000832205003398EE001348F8FF3378580030
:100810003397E800336707016399E50550C918C1AC
:100820008507E39967FC054EBD4E130F8002930FB9
:10083000800441433316FE00758E05C613972700CA
:100840000117832245003398EE001348F8FF3378F0
:1008500058003397E80033670701639CE50150C9EE
:1008600058C18507E39867FC8280E39AF5FB10C9BD
:100870007DB7E397F5FF10C9E5B70CC982804CC975
:10088000828008456D8D3335A0008280011122CC15
:100890002A84094526CA32C606CEAE8497000000D7
:1008A000E7800021B7470F00B70638039387072476
:1008B0009386F6973357F50232469307600363E356
:1008C000A600BA87544093F606FCDD8E54C0E1665C
:1008D0009386066A63E19604930717001307500393
:1008E0006376F700930760031CD029A00947E36DE6
:1008F000F7FE18D08604335595025C4C114763739C
:10090000E5001145520551815D8D48CCF2406244AD
:10091000D2440561828037270600130707A8636C5D
:1009200097041307C012B387E7021307803EB3D7BB
:10093000E70285071CD01DE68D47B384F4025C4CAA
:1009400071777D17F98F335595025CCC931745016C
:1009500099E3136515005C4C2167D98F5CCC444C3E
:10096000458D65B7E547B384F4025C4C1167D98FB8
:1009700033559502D9BF13078007B387E7021307E2
:10098000803EB3D7E70285071CD00DEA8D45B384BE
:10099000B4025C4C71777D17F98F335595025CCCAE
:1009A0005C4C2167D98F5CCC444C458D48CC832767
:1009B000040993E717002328F40889BFE545B384A9
:1009C000B4025C4C1167D98F33559502C9BF854776
:1009D0006397F5001C4193E707401CC182801C41CE
:1009E00093F7F7BFDDBF795793E715006314E6006F
:1009F00093F7E5FF1CC982801C4193E717001CC1D7
:100A000082801C4193E707101CC182801C4193E740
:100A100007201CC182800CC9828008491375F50F1C
:100A2000828093D7650093F7F73F3E950841335591
:100A3000B50005898280930710506395F5005C49E5
:100A40001C4D828013D765001377F73F3A95184104
:100A50008547B397B70093C7F7FFF98F1CC1828012
:100A6000B7170240135765003E9714438547B39765
:100A7000A700D58F1CC38280B717024013576500AB
:100A80003E9714438547B397A700D58F1CC3828038
:100A9000B7170240135765003E9714438547B39735
:100AA000A70093C7F7FFF58F1CC382807971B70544
:100AB000000822D441462A8493850528080806D6D2
:100AC00097300000E780E039B707030493871720C9
:100AD00002C03EC202C43EC6371702405C4389468C
:100AE00089838D8B6397D70E5C439396F70063D60B
:100AF00006065C579396F70063DC06045C5758576C
:100B000091832183BD8B3D8B938617000907C547D1
:100B10006313F7005147B7177A0093870720B3D7BD
:100B2000D702B387E7023717024058573D8B0507B6
:100B300033D7E702B7160240DC42D442C98313968A
:100B40002600BD8B6350060293E7070185070DA0C1
:100B5000B7177A0093870720F9B7B7173D001387B7
:100B60000790C9BFBD46E383D7FE8907638DD704CD
:100B7000B387E702B7160240D842101011833D8BAD
:100B80003297034507FFD84233D5A70021831D8B39
:100B90003297034607FED84214102D831D8B3697DB
:100BA0008546034787FE630CD40005CC894763075D
:100BB000F4028D473355E5006303F4000145B2505C
:100BC0002254456182809947B307F7020583BA979B
:100BD00055B7B7177A009387072069BF3355C5000B
:100BE000F9BF3E85E9BF1C410D6713070704D441D7
:100BF0007D8F9C41D58F9445D58FD445D58F944911
:100C0000D58FD449D58F944DD58FD98F1CC15C4DCC
:100C10007D771307F77FF98F5CCD82801C4193E7C6
:100C200007041CC182804CC5828048454205418131
:100C300082801C410967D98F1CC10CC9828008457C
:100C40006D8D3335A00082804111B717004006C674
:100C5000138707C0630EE5086367A70237070040E4
:100C6000930607406304D506938707806309F5065A
:100C70006312E50A1305004097000000E78000E0DA
:100C80001305004035A813870740630CE506373786
:100C90000140130707C0630DE500631DF50613054A
:100CA000404097000000E78060DD1305404009A840
:100CB0001305B03097000000E78040DC1305B0302A
:100CC000B2404101170300006700C3DC1305104068
:100CD00097000000E78080DA13051040D5B71305B0
:100CE000204097000000E78060D913052040C9BF6D
:100CF0001305304097000000E78040D813053040CE
:100D0000C1B71305504097000000E78020D71305B6
:100D100050407DB7B24041018280C167FD1723205A
:100D20000500231205001CC5231605002307050036
:100D3000828083D7050003D745009376F5BF1CD585
:100D4000B7370140938707C0418B630AF500FD77F1
:100D50009387F73FE98F370600406390C7061C4131
:100D600093F7F7F81CC183D72500104193F70706C6
:100D7000D18F1CC11C415D8F18C19C455CD5B71734
:100D800000406387F6021C4193F7F7CF1CC183D75D
:100D9000C500184193F70730D98F1CC1B737014000
:100DA000138707C06316E50003C7E50023A8E7C261
:100DB0005C4993E717005CC982801C41BD9B55BF0D
:100DC0001C4193E717001CC18280231005002311EA
:100DD0000500231205002313050023140500231525
:100DE000050082808547638EF50881C9894763893C
:100DF000F5128D476387F51C82801C51F99B1CD12D
:100E0000185183570600D98F1CD11C51F59B1CD15A
:100E1000185183574600D98F1CD1B737014013872B
:100E200007C0631CE50418516D9B18D1145103577A
:100E30002600558F18D118515D9B18D114510357B6
:100E40006600558F18D103A747C01377F7EF23A289
:100E5000E7C083A647C003578600558F23A2E7C08B
:100E600003A747C01377F7DF23A2E7C083A647C0D5
:100E70000357A600558F23A2E7C01C4DF19B1CCD44
:100E800082801C51BD9B1CD18357060018519207CC
:100E9000D98F1CD11C5193F7F7FD1CD18357460005
:100EA00018519207D98F1CD1B7370140138707C05B
:100EB0006314E50618511377F7FB18D10357260082
:100EC00014511207558F18D118511377F7F718D10D
:100ED0000357660014511207558F18D103A747C056
:100EE0001377F7BF23A2E7C00357860083A647C046
:100EF0000A07558F23A2E7C003A747C0FD76938654
:100F0000F67F758F23A2E7C00357A60083A647C0CC
:100F10000A07558F23A2E7C01C4D93F7F7CF85B77B
:100F20001C5193F7F7EF1CD1835706001851A20705
:100F3000D98F1CD11C5193F7F7DF1CD18357460082
:100F40001851A207D98F1CD1B7370140138707C0AA
:100F50006315E50618511377F7BF18D1035726001C
:100F600014512207558F18D11851FD769385F67FBD
:100F70006D8F18D1035766000C51FD1622074D8F57
:100F800018D103A747C0F98E23A2D7C00357860004
:100F900083A647C01207558F23A2E7C003A747C007
:100FA000F976FD16758F23A2E7C00357A60083A626
:100FB00047C01207558F23A2E7C05C4DF19B5CCD63
:100FC00082801C517D777D17F98F1CD183570600D5
:100FD0001851B207D98F1CD11C5179777D17F98F21
:100FE0001CD1835746001851B207D98F1CD1B7378F
:100FF0000140138707C06311E50203A747C0F176DC
:10100000FD16758F23A2E7C00357860083A647C04D
:101010001A07558F23A2E7C05C4D93F7F7CF45B76A
:1010200085476382F50281C989476386F5028D474A
:10103000638BF50282801C4D93F7F7F81CCD1C4D95
:101040005D8E10CD82801C4D65777D17F98F1CCD8C
:101050001C4D2206F5B75C4D93F7F7F85CCD5C4D5F
:101060005D8E50CD82805C4D65777D17F98F5CCDAC
:101070005C4D2206F5B78547638CF50081C9894729
:10108000638AF5008D476389F500828050D982809C
:1010900010DD828050DD828030C18280854763818F
:1010A000F50281C989476386F5028D47638AF50297
:1010B00082801C4DDD9B1CCD1C4D5D8E10CD828031
:1010C0001C4D7D771307F77FF98F1CCD1C4D220631
:1010D000EDB75C4DDD9B5CCD5C4D5D8E50CD82806F
:1010E0005C4D7D771307F77FF98F5CCD5C4D220651
:1010F000EDB75C45DD8D4CC582805C4508496D8D42
:1011000009C533F5B7003335A000828093C5F5FFDC
:101110000CC98280B71702409843B706FFE0B106BA
:101120001367170098C3D843758FD8C39843B70681
:10113000F7FEFD16758F98C39843B706FCFFFD16A2
:10114000758F98C3D843B70601DFFD16758FD8C3D6
:1011500023A607029843B706F7EAFD16758F98C3D2
:101160003707FF0098C794434167D98E94C393070C
:10117000F7FF3717024014431396E6006344060056
:10118000FD17F5FBB717024098439316E70063C3BA
:10119000060001A0D843B706C4DFFD16D8C3D84364
:1011A000D8C3D84313670740D8C3D843758FD8C373
:1011B000D843B7062920558FD8C3D857BD76758F29
:1011C000D8D7D857C166938616F1558FD8D798438C
:1011D000B7060004558F98C3B7170240984393167B
:1011E0004700E3DD06FE9843B7060010558F98C30D
:1011F000B7170240984393162700E3DD06FE984395
:10120000B7060001558F98C3B7170240984393164D
:101210006700E3DD06FED843719BD8C3D84313674C
:101220002700D8C3371702405C43A18BF5DF8280CB
:101230007971B705000822D47D462A849385052953
:101240000A8506D697300000E780A0C179468A85D6
:10125000094597300000E780C0C9A285094597007D
:101260000000E780C004B705000805469385052CFB
:10127000094597300000E780C0C701A0370700206C
:10128000130747061C43B7160020938686493E95F0
:10129000636BD500B77600209386060063E5A60051
:1012A00008C33E858280FD57EDBF79714ECEAE8971
:1012B000B705000809469385052B22D426D24AD0CB
:1012C00052CC56CA06D62A89714497300000E7806E
:1012D00040C23D4AA54AF154B3178A00B3F737011B
:1012E000B3D7870093F7F70F63ECFA0293870703EE
:1012F00093F7F70F05469305F1004A857114A3078C
:10130000F10097300000E780C0BEE31794FCB250B4
:10131000225492540259F249624AD24A456182806B
:1013200093877703F1B7B70700D1D8438843CC43FD
:10133000E39DE5FE8280B70700D223800700A385E6
:1013400007001205B71700D23E9563E3A70082801D
:1013500023A00700C107D5BFB71700D285070A052C
:101360003E9585472300F5008280B70700D203C56C
:10137000070005813D898280411122C426C206C62C
:101380002A84AE8497000000E78060FE91471147F1
:1013900063E3A7002A87371500D20A040D052295BA
:1013A000834705009376F70FA145B397E70093F7BE
:1013B000F70F958DB394B400B3D7E740C58F93F77B
:1013C000F70F2300F500B24022449244410182808D
:1013D000011122CC2EC606CE2A8497000000E78099
:1013E00000F98D47814563E9A702371700D20A0447
:1013F0000D07229783470700B245A1463385A640D3
:101400009205B3D7A74093F5F50FB397A700CD8FFB
:1014100093F7F70F2300F700F24062442E85056131
:101420008280F327503093F707FC93E737007390DF
:1014300057308280B7050008411115469385452B2A
:10144000054506C697300000E780A0AA054597002D
:101450000000E78020DE41119347F5FF22C406C655
:10146000139747012A8409E797000000E780C0FC32
:10147000B705000815469385C52B05459730000034
:10148000E78020A7228597000000E780A0DA4111BD
:1014900006C697000000E78020C813057005970076
:1014A0000000E78080E997000000E780C0F7B240C5
:1014B000410117F3FFFF670043D9828079714AD059
:1014C0004ECE5AC806D622D426D252CC56CA5EC6B2
:1014D00062C466C22A8B97000000E78000E5AA89F3
:1014E0002E8997000000E78040E4AA842E8463944C
:1014F000A900E308B9FEB707000803A9872C83A950
:10150000C72CB70B002097000000E78000E2AA87F5
:10151000058DB3B7A700818D9D8D97500000E780A2
:10152000A0312A8A03A50B06AE8A97500000E780F7
:10153000402B4A86CE8697400000E780C0152A8C53
:101540005A85AE8C97500000E780A0292A86AE8687
:101550006285E68597400000E780C07C2A86AE86DB
:101560005285D68597400000E7808071E34D05F8ED
:10157000B250225492540259F249624AD24A424B22
:10158000B24B224C924C4561828083473500034721
:101590002500A207D98F03471500A20703450500C0
:1015A000D98FA2075D8D828093D785002300B50077
:1015B000A300F50093D70501E1812301F500A30104
:1015C000B5008280AA872A968507850503C5F7FF9F
:1015D00003C7F5FF198D6383C7007DD58280584905
:1015E000F915791763F9E5008357A5000855B38706
:1015F000B7023E958280014582801C418DC33E87A3
:10160000930500021306A00305078346F7FF63F264
:10161000D502E39BC6FE938627006304D700FD57DF
:1016200011A803C6070093060003FD576314D600F4
:1016300018C181473E85828001ED814725459CC1C7
:10164000828025458147F24062449CC105618280C9
:101650001C41011122CC06CE2A84E5D703C707001E
:101660006DD38356450003D76700E39CE6FC03C5B2
:1016700017002EC697200000E780A0170589B24505
:1016800069F11C40C9B781473387F50083460700DD
:101690003307F50085072300D700E317F6FE8280A5
:1016A00083C7B50103C7A501A207D98F0D47631AE8
:1016B000E50003C7550183C645012207558F420740
:1016C000D98F3E858280411122C426C24AC006C6F7
:1016D0001309050350552A84034515008546CA851C
:1016E00097200000E780401C85440DE950541C50B1
:1016F000184CA3010400B307F640AA8463F0E70284
:10170000834624008947639BF60003451400854601
:101710003A96CA8597200000E7800019B24022441B
:10172000268502499244410182805C556384B70456
:10173000411122C426C206C6834735002A84AE84DE
:1017400085E3034514008546268693050403972008
:101750000000E780400B19C10545FD5444D431A079
:1017600097000000E78060F669DDB24022449244B1
:101770004101828001458280411122C406C6FD5785
:101780005CD5A30105002A8497000000E78020FAB9
:1017900091473DE50347F4228347E422ED76220793
:1017A0005D8F42074187938656A58D47631AD704FC
:1017B000834704031307B00E6389E700E10713F7BB
:1017C000F70F8546894763EDE602B70500080D4629
:1017D0009385052D1305640697000000E780C0DEA1
:1017E000814719CDB705000815469385452D13058A
:1017F000240897000000E78020DDB337A0008607AB
:10180000B24022443E854101828039714AD806DEC9
:1018100022DC26DA4ED652D456D25AD023A0050066
:1018200032892EC697000000E78060DDAD47634235
:101830000504370700209317250013078714BA976C
:101840008043AA84B14715C4B2451379E90F80C11A
:101850008347040095CB0345140097200000E780E0
:1018600040F9937715008DE363050900118911C1D3
:10187000A947F2506254D2544259B259225A925A4C
:10188000025B3E852161828013F5F40F2300040082
:10189000A300A40097200000E780E0CD1377150097
:1018A0008D4761FB63040900118979F18145228527
:1018B00097000000E78080EC8947631FF504040867
:1018C0001309641F130A6423A6898347C9FF0145CE
:1018D00091C74A8597000000E78060CB23A0A9004C
:1018E00041099109E3132AFF13890401854903AAD9
:1018F00004000D45630A0A00D28522859700000086
:10190000E780C0E763F3A9029104E31299FE11474F
:101910008547631AE500B1BF11478547E30BE5F43E
:10192000014A63F4A700B547A9B78347C403034737
:10193000B403A207D98FC207C18713070020E3941D
:10194000E7FE8349740483476404A209B3E9F900FC
:10195000639909001305440597000000E78020C340
:10196000AA8983440404232C340105479387F4FF98
:101970002301940093F7F70FE367F7FA0349D403C1
:1019800093170901C1832315F400D1DF9307F9FFF1
:10199000B3F72701C9FB83472404834A1404A20731
:1019A000B3E75701939A070193DA0A41139B0A019F
:1019B000135B0B01231464019377FB00ADF7034520
:1019C00044048347340422055D8D19E5130504059D
:1019D00097000000E780A0BB8347F4030347E403BC
:1019E000A207D98FA9D3B386340313574B003E9770
:1019F0003697E36AE5F2198DB3542503E36525F3C1
:101A0000370600105516E36096F241665516637965
:101A100096120D4952978904D29718D444C8232EA0
:101A200044011CD00D47631EE90E8347B4050347EC
:101A3000A405A207D98FB3E7FA00C207C187E394D0
:101A400007EE1305C40597000000E78040B448D0B6
:101A50008A049384F41FA580E3E799ECFD571CC822
:101A60005CC4930700F82302F4008D47631AF90859
:101A70008347140603470406A207D98FC207C1870C
:101A80000547639FE70693051A002285970000002B
:101A9000E780E0C935E58347F4220347E4222302C7
:101AA0000400A207D98FC2076D77C187130757A516
:101AB0006398E7041305040397000000E78020AD56
:101AC000B757614193872725631CF502130544210D
:101AD00097000000E780A0ABB77741619387272785
:101AE0006310F5021305842197000000E78020AA07
:101AF00008C81305C42197000000E78040A948C426
:101B0000370700201307C714835707002300240159
:101B10008507C207C1832310F7002313F400814710
:101B200089BBE3020BE0B6975CD089476314F900E8
:101B3000860405B73387E40285880583BA9411BF0C
:101B400005695519333999000509E9B501114EC6E2
:101B500052C406CE22CC26CA4AC856C25AC0054A2A
:101B600089496374BA0A5C492A89894963FFF5087F
:101B7000834705000947B2842E84638AE70A0D472C
:101B80006380E70E6393470913DA15001C512E9A00
:101B900093559A00BE9597000000E78040B9AA8946
:101BA0002DE5930A0903130B1A000588137AFA1F0F
:101BB000569A93F7F40F09CC83470A008566C1163D
:101BC00013F7F70093974400F58FD98F93F7F70F2A
:101BD0002300FA008547A301F900832709029355E2
:101BE0009B004A85BE9597000000E78040B4AA8913
:101BF00009ED137BFB1FDA9A05C4918093F4F40F6F
:101C000023809A008547A301F900F24062444E8583
:101C1000D2444249B249224A924A024B056182802B
:101C200083C70A00A180BD88C19BDD8CD1BF1C5138
:101C3000A181BE9597000000E78060AFAA8971F589
:101C40000604930709031374E41F3E9423009400D1
:101C5000C204C180A180A3009400A301490175B70B
:101C60001C519D81BE9597000000E78040ACAA8979
:101C700049FD0A04930709031374C41F3E94228587
:101C800097000000E780A0909204B70500F09180D3
:101C9000E98DC58D228597000000E780209175BFF2
:101CA000854763F7B70E5849011122CC06CE26CAE4
:101CB0004AC84EC62A8463FAE502034705008946EE
:101CC000AE84630CD7068D46630ED708631FF700FA
:101CD00013D915001C512E9993559900BE95970064
:101CE0000000E780C0A411C9FD57F2406244D2440D
:101CF0004249B2493E85056182801C509309190012
:101D000093D599001379F91F2299BE95228503492D
:101D1000090397000000E78080A179F593F9F91F86
:101D20004E94834704038588A207B3E7270199C02F
:101D3000918365BFD207D1834DBF1C51A181BE9550
:101D400097000000E780A09E45F186041304040379
:101D500093F4E41F26948347140003470400A2076A
:101D6000D98F61B71C519D81BE9597000000E78017
:101D7000009C3DF913952400130404031375C51F3B
:101D8000229597000000E7808080931745004DB7AB
:101D900085473E858280011126CA4EC652C406CEB2
:101DA00022CC4AC856C25AC02A8AAE89044191E957
:101DB00003A9C40063050900DC486360F904054910
:101DC0002DA8268597000000E780C0ED85472A846E
:101DD00063EEA70005442285F2406244D2444249A2
:101DE000B249224A924A024B05618280FD57630341
:101DF000F50CDC484E89E360F5FE9C4899E301440C
:101E0000D9BF631D3903DC48130419006363F40070
:101E1000094403250A00A28597000000E78080E8B6
:101E20000547E309E5FAFD576306F50829C1DC44D7
:101E30006376F700D84863F3E7003E894A84854A11
:101E40007D5BDC4805046365F400E3FA2AFB094482
:101E500003250A00A28597000000E780A0E409C9D5
:101E6000E30A55F763086505E31D24FD49BF79D4EE
:101E70007D56A285268597000000E78060CD05E9A4
:101E8000639F0900D8489C48C0C479176376F7025D
:101E900083C7440093E717002382F4002DBF2286F6
:101EA000CE85268597000000E78080CA61DD8547E2
:101EB000E312F5F27D5405B7FD179CC8D1BF7971C7
:101EC00052CC032A050122D406D626D24AD04ECEC1
:101ED00056CA5AC85EC6130A0A02B7072000004154
:101EE0006364FA00232C0500184D914705C7137B46
:101EF000FA1FAE8AAA84631D0B0C4C49050718CD46
:101F000095E50357840093575A0063E3E70C23AC2D
:101F100004009147B250225492540259F249624A45
:101F2000D24A424BB24B3E85456182808359A40020
:101F300093579A00FD19B3F9F900639B09082285AC
:101F400097000000E78000D6854B2A8963E4AB0048
:101F50008947C9B7FD576314F500854765BF5C48DD
:101F6000636FF504E3850AFACC48268597000000E4
:101F7000E780A0E22A899D4751DDE30B75FDFD57FF
:101F8000E30DF5FC83473400A1EFCA85228597F065
:101F9000FFFFE7800065930A0403AA8B48D4130768
:101FA0000423D6878507A38F07FEE39DE7FE8357AB
:101FB000A40063EEF9028357A400E390F9FA23AA80
:101FC0002401CA85228597F0FFFFE780806188CCD5
:101FD000130404035A9423A84401C0CC81471DBFB5
:101FE000228597F0FFFFE780406E25F979BF034512
:101FF0001400854633863B01D68597200000E78094
:10200000A08A55F9850965B701114AC803298500D9
:1020100022CC26CA06CE4EC652C423280500AA8466
:1020200000416311090403470400894763F4E70092
:102030005C5085EB8357840091EB0945F240624484
:10204000D2444249B249224A056182805C509CCC0C
:102050009C4C23AA2401F5D313040403C0CC0145EE
:10206000F1BF3E898357A400FD59054A85E38840A6
:10207000CA8597000000E780E0C22A896300350323
:10208000E37DAAFA5C48E364F5FE45BFCA85228574
:1020900097F0FFFFE780E05488CC5DBF054579BF2E
:1020A00079712AC6680806D62EC432C22ECE97F0A1
:1020B000FFFFE780C05463410504B7070020138782
:1020C00087140A052A97184393878714124619C361
:1020D00023000700324719C323000700AA9798C3BB
:1020E000014501CA01466C00280097F0FFFFE78018
:1020F0000072B250456182802D45E5BF1971D2D47E
:1021000086DEA2DCA6DACAD8CED6D6D2DAD0DECE29
:10211000E2CCE6CAEAC8EEC62EC6254A630A054ADC
:102120009379F6033289AA844E860C08680097F0EA
:10213000FFFFE780C06D2A8A2A84631B0530C24AEC
:10214000324D9306F00256CA1307C00583470D00AF
:10215000638DD70E638BE70E02CE03470D00FD475C
:1021600063F7E70E130CF101130B0002930BF0025F
:10217000B70C00085C08238067038507E31DFCFE9D
:1021800001470146A1451305C0051308E002AD480B
:102190001303D007654E930EF003130FE007B30748
:1021A000CD0083C70700930616006370FB026384AB
:1021B00077016397A71A9305C0053306DD00034630
:1021C0000600630D7619630BB618369D630E07186B
:1021D000834641031307500E6395E6001547230A13
:1021E000E10211476373FB0001474808A30FE102B6
:1021F000D24D97000000E78060E12A846316051E37
:10220000B2556E8597F0FFFFE78060522A84631D08
:10221000051C4255834705006387071C8347B500AB
:1022200013F7F703230DE100A18B89EB2D464C1822
:1022300097F0FFFFE78040396308051A8145480899
:1022400097000000E780E0C74DBF050D01B7930779
:1022500000F84808A30FF10297000000E78000DBB8
:102260002A846302051C9377C901638507286305E7
:10227000041E9147631EF41C480852499700000051
:10228000E780C0D82A846311051C930A500EB2550A
:102290004A8597F0FFFFE78080492A846316051A74
:1022A000C25783C7070063965719B2554A8597F0FE
:1022B000FFFFE780C0472A84631C0518C2571387B5
:1022C00007028507A38F07FEE31DF7FE42552D4643
:1022D0004C1897F0FFFFE780403B8547A301F900CA
:1022E00093E98900C247425403C50700A28597F0CD
:1022F000FFFFE780203B2A8997100000E78000A9B4
:10230000AA851305E40097F0FFFFE780202AC25753
:10231000130700028D46A385E700C2574247238D6D
:102320000700A38D0700034607006316D600238A23
:102330000700A38A0700C257238E0700A38E070059
:10234000238F0700A38F07008547A301F7006300D1
:10235000091CD24A63EF27110944DDA88506B1BDE7
:10236000638C072B6364B7001944F5BD938FF7079F
:1023700093FFFF0F6367F305EA9683CF0600090614
:10238000E3F4FEFF93F6FF07E360DFFE9386F5FFBD
:10239000E37CD7FC800093061700B302E400238A95
:1023A000F2FEB687A2970907238AF7FFB286368620
:1023B000FDB30506834F060063880F00E39BF7FF1C
:1023C00065B71386CC2DFDB71386F7F91376F60F94
:1023D0006365CE00811793F7F70F90003A96230AB2
:1023E000F6FE0507E9B711448347F10309C8114711
:1023F000E31BE4E6918BE39807E61544ADB5918BBA
:102400009DE38347A101C18BEDDB925703C50A0011
:1024100093850A0393F7F71FBE9597F0FFFFE780B8
:1024200060282ACE81BB8307F1030144E3DD07E284
:1024300025BFE38C07E68545480897000000E78044
:1024400040A82A84E30505E491476313F4001D4482
:1024500023A00400228AADAA8347A101C58BE5FB16
:10246000937749006396071A137989006301090A73
:1024700095BD83A74A01E371F9EE832BC7024A8415
:10248000054CFD5C5245A28597000000E7808081E5
:102490002A8B21C5E30285ED6314950105444DBFE8
:1024A000A2850146568597F0FFFFE780606A2A847F
:1024B00045F103A74A0183A70A019306E7FF63FBDF
:1024C000D700850723A8FA0083C74A0093E71700BF
:1024D0002382FA005A84E367EBFA4245DE857D19D0
:1024E00097F0FFFFE780A024C2472A8423A6270194
:1024F00019CDB9BF31FC8347A10113F70701631B55
:1025000007101379290063040900858BA9F393F759
:10251000890099C393E9090442444259938A840289
:102520005C5423A22403CA859CD00345040097F081
:10253000FFFFE780201788C41305C90197F0FFFF4C
:10254000E780E00483576400C8C480C02392F4008D
:1025500023883401A388040023AE040023AA0400C6
:1025600013878422D6878507A38F07FEE39DE7FEA6
:1025700093F90902638E090403A9C400630A0904DC
:102580000354A4008C4423AA2401260485497D5BBE
:102590006360240701448CCCE31C04EA9377F91FA1
:1025A00085CB4244228597F0FFFFE7808003E30557
:1025B00005DA135999003306A900D0CC034514005D
:1025C0008546D68597100000E780E023E31805ECE8
:1025D000F65066545285D6544659B659265A965ADC
:1025E000065BF64B664CD64C464DB64D0961828073
:1025F00088403309894097F0FFFFE780A06AAA85E9
:1026000063F6A900E31665F9054471B7094461B79B
:1026100021443DBD11442DBDE38815D52147AD456D
:1026200079B31D71A2CCCAC8CEC6D2C4DAC086CED8
:10263000A6CAD6C25EDE62DC66DA6AD86ED62E8A9A
:1026400023A006006C082A843289368B97F0FFFF9E
:10265000E780C0FEAA8939E583491401639409041F
:1026600083470401898B6380071C5C4833872701FB
:102670006374F70013C9F7FF930B0020930A8402D9
:10268000130CF01FFD5C39A20C4C228597F0FFFF64
:10269000E780A070631605128347040193E70704DF
:1026A0002308F400F64066444E85D6444649B649B0
:1026B000264A964A064BF25B625CD25C425DB25D92
:1026C00025618280631795018547A308F400854939
:1026D000D1BF1C4408CC91E308C48307040163D331
:1026E0000702F247504C854603C51700D685971060
:1026F0000000E780601B69F98347040193F7F7073F
:102700002308F400F2470C4C3E853EC697F0FFFFCD
:10271000E78020ED4DC9338DAD00B247637A2C0BB5
:1027200003D7A70093549900B3869D006374D70024
:10273000B304B74103C51700A6866A86D2859710F1
:102740000000E780601649F14C4C338DA54163725F
:102750009D02260D13060020B305AA01568597F0A9
:10276000FFFFE78080F28347040193F7F707230810
:10277000F400A60483270B0033099940269AA697F4
:102780002320FB005C48BE945C4444C863F397007C
:10279000A6875CC4E30209F05C4813F7F71F29EF32
:1027A0007247835DA70013D79700FD1DB3FDED00B1
:1027B000E3950DF2E39A07EC08448145E30705EC45
:1027C0008547E311F5F08947A308F4008949D9BD8D
:1027D000584C6301A70354445848637DD70003C590
:1027E000170085466A86D68597100000E780A0010D
:1027F000E31C05EC232EA4014848CA841375F51F79
:10280000B387AB4063F32701BE842686D2855695F5
:1028100097F0FFFFE78060E78347040193E707F83D
:102820002308F40081BF9D49B5BD01116C0026CA83
:1028300006CE22CC4AC8AA8497F0FFFFE78000E0CA
:10284000AA876315051803C7040193760704638FED
:1028500006166207618763560702B247D04C854669
:1028600003C517009385840297100000E780C0031A
:102870008547631D051483C7040193F7F707238871
:10288000F40097000000E78060502A898C503245A0
:1028900097F0FFFFE780A0E9AA8763190512C050EF
:1028A0008347B40093E70702A305F4009C449440D7
:1028B0001397070141832183A30DE400230DF40046
:1028C00083C606000D476398E600C183230AF4001F
:1028D000A183A30AF400CC441305C40197F0FFFFC1
:1028E000E780C0CCCA851305640197F0FFFFE7803D
:1028F000E0CB23090400A309040032440549A301E5
:102900002401228597F0FFFFE78020DCAA874DE9AC
:10291000034704008D47631BF70883474400639710
:1029200027091309040313070423CA878507A38F04
:1029300007FEE39DE7FE930750052307F422930764
:10294000A0FAA307F4220C489307200513071004EC
:10295000930620072308F402A308F4029307100645
:102960002309F402A309E402230AD420A30AD420F1
:10297000230BE420A30BF4201305842197F0FFFF21
:10298000E780C0C24C441305C42197F0FFFFE780E5
:10299000E0C1504C034514008546050650D4CA8555
:1029A00097100000E78040F0230204000345140064
:1029B0000146814597100000E78080FFB337A000F3
:1029C00003C704011377F7FB2388E400F240624455
:1029D000D24442493E8505618280011122CC06CE57
:1029E0002A8497000000E78080E411E96C002285CA
:1029F00097F0FFFFE78080C419E123200400F24034
:102A000062440561828079714AD04ECE5AC806D69A
:102A100022D426D252CC56CA5EC662C466C22A8B63
:102A200097F0FFFFE7806090AA892E8997F0FFFF5B
:102A3000E780A08FAA842E846394A900E308B9FEDE
:102A4000B707000803A9872C83A9C72CB70B002060
:102A500097F0FFFFE780608DAA87058DB3B7A700C9
:102A6000818D9D8D97400000E78000DD2A8A03A5B7
:102A70000B06AE8A97400000E780A0D64A86CE8635
:102A800097300000E78020C12A8C5A85AE8C974091
:102A90000000E78000CE2A86AE866285E685973004
:102AA0000000E78020282A86AE865285D68597309A
:102AB0000000E780E01CE34D05F8B2502254925428
:102AC0000259F249624AD24A424BB24B224C924CD2
:102AD00045618280011122CC004126CA4AC8228564
:102AE0004EC652C406CEAE84328A3689BA8997E081
:102AF000FFFFE78040F193050050228597E0FFFF3C
:102B0000E78060F26DD986047956A685228597E024
:102B1000FFFFE78080ED93051050228597E0FFFFCF
:102B2000E78060F06DD993051050228597E0FFFF94
:102B3000E780A0F093057050228597E0FFFFE780C3
:102B400080EE6DD9D285228597E0FFFFE780E0EC2B
:102B500093057050228597E0FFFFE780C0EC6DD9A8
:102B6000228597E0FFFFE78000EA93050050228569
:102B700097E0FFFFE78020EB6DD90546A68522850B
:102B800097E0FFFFE78060E693051050228597E00D
:102B9000FFFFE78040E96DD993051050228597E04B
:102BA000FFFFE78080E98545228597E0FFFFE7800A
:102BB00040E28144130AF9FF63C32403228597E0AE
:102BC000FFFFE780E0E41C4093F70720EDFFF240B1
:102BD0006244D2444249B249224A05618280631864
:102BE0009A008145228597E0FFFFE78080DE93050C
:102BF0006050228597E0FFFFE780E0E26DD92285F3
:102C000097E0FFFFE780A0E1B38799002380A7004A
:102C100085045DB7011122CC004126CA4AC84EC6C0
:102C200052C406CE2E8AB2843689BA8993051060C2
:102C3000228597E0FFFFE78000DF6DF9228597E0AE
:102C4000FFFFE78040DC93050050228597E0FFFFFF
:102C5000E78060DD6DD9795693151A00228597E0DB
:102C6000FFFFE78080D893051050228597E0FFFF93
:102C7000E78060DB6DD993051050228597E0FFFF58
:102C8000E780A0DB93057050228597E0FFFFE78087
:102C900080D96DD9A685228597E0FFFFE780E0D730
:102CA00093057050228597E0FFFFE780C0D76DD96C
:102CB000814463C32403228597E0FFFFE78040D56A
:102CC0001C4093F70720EDFFF2406244D244424992
:102CD000B249224A05618280B387990083C5070003
:102CE000228597E0FFFFE78040D39305705022854F
:102CF00097E0FFFFE78020D36DD985045DBFE165D4
:102D0000411101469385056A22C406C62A8497E0CC
:102D1000FFFFE780E0B722852244B240410117E37C
:102D2000FFFF6700A3CD411122C43704002006C66F
:102D30002328A42097000000E780A0FC930604212C
:102D40002244B24037360008B7350008373500084E
:102D5000130666A0938545C1130545AD41011703D0
:102D6000000067002330370800201308880623106E
:102D7000A8002301B800A301C8002302D800A302C1
:102D8000E8002303F8008280370700201307870636
:102D90008347270003453700D6074205C98F0345FF
:102DA0006700C98F034547002E05C98F03455700AB
:102DB0001605C98F034507001305450466055D8D9B
:102DC00082804111054685458147014781461305AB
:102DD000C07B06C697000000E78020F91305400677
:102DE00097E0FFFFE780C06DB705000837050020BA
:102DF00005469385852B1305452197F0FFFFE78056
:102E0000602A11E5B7070020054723ACE714B2405C
:102E100041018280B707002083A78715F5C71D7180
:102E2000CAC8370900208327091586CEA2CCA6CAB6
:102E3000CEC6D2C4D6C213090915B5CFB70500084E
:102E400037040020130620039385053013058444BE
:102E500097F0FFFFE780C02A39ED93078444DC47F1
:102E600085E3B7060020B705000893864644594617
:102E70009385C5301305844497F0FFFFE780A07A5F
:102E8000B7040020938404678149370A0008B70A11
:102E900000208327090063C9F902130584449700C1
:102EA0000000E780C0981305844497000000E78085
:102EB00000B323200900F6406644D6444649B6498B
:102EC000264A964A2561828088448509B104974044
:102ED0000000E780E0ED03A784FF83A644FFAA87F4
:102EE00013064A32930500040A8597100000E78014
:102EF000A0F82A8693864A448A851305844497F06D
:102F0000FFFFE780407271B7828079710146854585
:102F10001305F00206D622D497E0FFFFE780A088D1
:102F20001305007097E0FFFFE780C0B3370500404E
:102F300097E0FFFFE78080D1080897E0FFFFE78078
:102F400000DEB5679387072F0C080544370500405E
:102F50003ECC22C8231A0100231E010097E0FFFF88
:102F6000E78060DD480097E0FFFFE78040E6500023
:102F700081453705004023128100231401002316E8
:102F8000010097E0FFFFE78020E61D6613068697A5
:102F900081453705004097E0FFFFE780000E0146BE
:102FA00081453705004097E0FFFFE780A007014615
:102FB00081453705004097E0FFFFE780600E8945B7
:102FC0003705004097E0FFFFE780E01289453705AD
:102FD000004097E0FFFFE780A0133705004097E02F
:102FE000FFFFE78020DEB25022544561828041110C
:102FF00089453705004006C697E0FFFFE7802010AF
:1030000085476312F502B707002093874715984359
:10301000B2408945050798C337050040410117E3D1
:10302000FFFF6700E30EB24041018280B717002026
:1030300093870748328703A307002A86C847AE86CE
:10304000930590060283B7170020938707483287BD
:1030500003A347002A86C847AE86930590060283DD
:10306000011122CC371400209307044806CE88C3F0
:10307000CCC390C71305500730008545D4C79700CF
:103080000000E780E0FA03478100C5477D55631FD4
:10309000F70C930700F81305B0067000854523066A
:1030A000F1001304044897000000E78000FA1C4474
:1030B0001305400682978307810063CD070A1C44ED
:1030C0001305400609448297A547700085451305FE
:1030D000B0062306F10097000000E78000F77000BB
:1030E000854565452306010097000000E780E0F56F
:1030F0007000854569452306810097000000E78040
:10310000C0F4E147700085456D452306F100970046
:103110000000E78080F3C1477000854571452306B4
:10312000F10097000000E78040F27000854575458A
:103130002306810097000000E78020F19307200319
:1031400070008545130570032306F1009700000009
:10315000E780A0EF854713058003700085452306AF
:10316000F10097000000E78040EE0545F240624420
:1031700005618280300085451305B0069700000088
:10318000E78000EB0DBF011122CC30002A84994565
:103190001305B00306CE97000000E78060E98317AF
:1031A0008100A303F100A1832303F1000315610053
:1031B00097400000E780C0C58317A10008C0A303A3
:1031C000F100A1832303F100031561009740000083
:1031D000E78000C48317C10048C0A303F100A183A6
:1031E0002303F1000315610097400000E78040C20F
:1031F00008C4F2406244054505618280411122C441
:103200003744004026C24AC006C6AA841309048077
:1032100089454A8597E0FFFFE780A0A275D9A6857A
:10322000130504803744004097E0FFFFE780E09FEC
:10323000930404808545268597E0FFFFE78060A022
:1032400075D91305048097E0FFFFE780409EB240E8
:103250002244924402491375F50F410182804111C5
:1032600037150140916506C697D0FFFFE7802061C2
:10327000B2401305F00F410117030000670043F847
:10328000397126DA5AD05ECE62CC66CA6AC806DECA
:1032900022DC4AD84ED652D456D2AA8497E0FFFFF9
:1032A000E780A008B707000803AB872C83ABC72CC7
:1032B000AA8C2E8D370C002097E0FFFFE780E006F8
:1032C0003309954133352501B385A541898D130512
:1032D000F00F2EC697000000E78080F29307F00FF2
:1032E0002A84630FF504B2454A8597300000E780D1
:1032F000A0542A8903250C06AE8997300000E78088
:10330000404E5A86DE8697200000E780C0382A8A21
:103310002685AE8A97300000E780A04C2A86AE86CC
:103320005285D68597300000E780C09F2A86AE86FA
:103330004A85CE8597300000E7808094E34E05F6FD
:10334000130514F0F2506254D2544259B259225A21
:10335000925A025BF24B624CD24C424D133515002F
:1033600021618280011191653715014006CE97D009
:10337000FFFFE78000511305F00F97000000E78082
:1033800020E81305401F97000000E780A0EF2AC641
:1033900009E997000000E780C0EC3245F240056182
:1033A00082800545E5BF41119317850122C426C2DD
:1033B00006C6E1872A84AE8463DF070081451305D2
:1033C000700397000000E78040FE0547AA87636C02
:1033D000A70A1374F407B147631CF40813650404C7
:1033E00097000000E780C0E113D58401970000003A
:1033F000E78000E113D504011375F50F9700000075
:10340000E78000E013D584001375F50F97000000E6
:10341000E78000DF13F5F40F97000000E78040DE3F
:103420001305500919C4A14705456314F400130599
:10343000700897000000E780A0DCB1476318F40033
:103440001305F00F97000000E78080DB2944130587
:10345000F00F97000000E780A0DA1317850161875D
:10346000AA87635207027D141374F40F6DF021A82C
:1034700097000000E780E0DE97000000E780C0EEE4
:103480009307F00F21FDB240224492443E85410152
:103490008280411122C42A841305800C26C206C6EC
:1034A000AE8497000000E78080721305F00F97004C
:1034B0000000E780E0D49307F00F631DF50097004C
:1034C0000000E780607675F10145B24022449244E5
:1034D000410182809307E00FE318F5FE8504A29472
:1034E0001305F00F97000000E78080D12300A400AF
:1034F0000504E39784FE1305F00F97000000E780B2
:1035000020D01305F00F97000000E78060CF05453D
:103510006DBF411122C426C24AC006C62A89014491
:1035200093040020B307890003C507000504970032
:103530000000E780E0CCE31794FE1305F00F97003E
:103540000000E780E0CB1305F00F97000000E78054
:1035500020CB1305F00F97000000E78060CAB2404F
:1035600022447D896D1592440249133515004101AD
:103570008280631C052679711305306006D622D43B
:1035800026D24AD097D0FFFFE780C04D1305406098
:1035900097D0FFFFE780004D1305E07097D0FFFF45
:1035A000E780404C37140140130504C0A9660D465E
:1035B000E14597D0FFFFE7804022130504C09166E4
:1035C0000D46914597D0FFFFE780202191660D467B
:1035D000C1453715014097D0FFFFE7800020916576
:1035E0003715014097D0FFFFE7806029930740100F
:1035F0003EC28D47B74400403ECC930700203EC8F2
:103600004C0093070002138504803ECE02C402C61C
:1036100002CA97D0FFFFE780405D9D451385048077
:1036200097D0FFFFE78020611385048097D0FFFFCC
:10363000E780005F294597E0FFFFE78060E83704F7
:103640000020130704078347070013040407898B2E
:1036500099CB03450700B250225492540259137576
:10366000F50F4561828083A704809165371501407D
:1036700093F777FC93E7870223A0F48097D0FFFFAE
:10368000E7802020A944FD141305F00F93F4F40FF4
:1036900097000000E780C0B6FDF481450145970022
:1036A0000000E78080D085472A89631EF512130544
:1036B000803E97000000E78080519305A01A2145C5
:1036C00097000000E78060CE6319250D11491305AE
:1036D000F00F97000000E780A0B25C00A69723805F
:1036E000A7008504E39524FF034761008547631C19
:1036F000F70E034771009307A00A6316F70E9700B1
:103700000000E780605211C9B70500401305900A18
:1037100097000000E78060C97DF197000000E78016
:10372000A05071C181451305A00397000000E780F8
:10373000C0C755E9814411491305F00F97000000F7
:10374000E78000AC5C00A6972380A7008504E39582
:1037500024FF83474100B14493F7070491E3914468
:10376000B70700202380971697000000E78060AF1E
:10377000854799CC374700408327078093F777FC2C
:1037800093E707012320F7808347040093F7E70FAF
:103790002300F400034504007DBD81451305900A14
:1037A00097000000E78060C085446365A9008944F4
:1037B0001309900A97000000E780004701C981457E
:1037C0004A8597000000E78040BE6DF59700000035
:1037D000E780804509C99305002041459700000016
:1037E000E780A0BC35DD8144A5BF0545828001E9A5
:1037F000B707002003C507071375F50F828005453D
:10380000828059ED411122C406C626C23684114574
:10381000B1CAB707002083C707070D45858BB9E3F9
:10382000B707002083C70716AE84B285A18B99E342
:10383000931596008547631CF402454597000000E8
:10384000E780A0B611E993050020268597000000C7
:10385000E78060C41334150097000000E78060A083
:1038600033358000B2402244924441018280494570
:1038700097000000E78060B365F19305002026857E
:1038800097000000E78020C109C57D1493840420BF
:103890006DF48145314597000000E78000B16DBFB0
:1038A0001145828063120510011122CC06CE26CA72
:1038B00036841145A9CAB70700209387070703C7B5
:1038C00007000D45058B21E383C707000945918B50
:1038D0009DEBB707002083C70716AE8413F7870058
:1038E00011E326060547631AE404B2856145970093
:1038F0000000E78080AB09CD054497000000E78019
:10390000409633358000F2406244D24405618280A3
:103910001305401F97000000E780C09671DD130576
:10392000E00F97000000E780A08D2685970000003B
:10393000E78060BE13341500C9B7998B91CBA2857F
:103940001305700932C697000000E78000A63246D2
:10395000B285654597000000E78020A559FD130555
:10396000401F97000000E780E0910DC11305C00FD4
:1039700097000000E780C088268597000000E78058
:1039800080B909C57D149384042071F81305401F84
:1039900097000000E780008F25D11305D00F970016
:1039A0000000E780E08591BF11458280011126CAA1
:1039B00006CE22CC91440DE9B707002083C7070744
:1039C0008D44858B95E385473284AE84638BF50205
:1039D00095C18D476388F50A91476383F516914435
:1039E00097000000E780E087F24062442685D244D9
:1039F0000561828097000000E780009793341500EE
:103A0000C5B78145254597000000E780009A19C198
:103A10008544F9B7C1450A8597000000E780A0A753
:103A200065D90346010083478100834691001982CE
:103A300003477100631E9600A207B6974207B706B8
:103A40003F00758F0507BA97AA071CC0814449BF7C
:103A50000A079983BA97034761000566130606C0F3
:103A60002A07718FBA970346A100034751008606C3
:103A70001D823D8B3297998A369785076517B397D4
:103A8000E700E1B7B70400209384041683C704005D
:103A90008145918BB1CB1305D00897000000E780DA
:103AA000C0903DF51305F00F97F0FFFFE7804075DC
:103AB000C1450A8597000000E780E09D31D9930455
:103AC0000003FD141305F00F93F4F40F97F0FFFFBC
:103AD000E7800073FDF48347A10013D74700C14777
:103AE000B397E7001CC0EDBD254597000000E780B7
:103AF000C08B19FDC1450A8597000000E780A09999
:103B000001D903C704008347A1008346B100098B94
:103B100001CF0347D100860793F7E7079D82B69749
:103B2000198385077D17A1BF13973600618B958296
:103B300089873697FD8B05078507B307F70231B7ED
:103B4000B70400209384041683C70400998BE38193
:103B500007EC0A86AD4597000000E78060E5E319B1
:103B600005EA834701000347A100998313770704FF
:103B7000D98FE38F07E883C704000C404040A18B36
:103B800099E3A60526041305000297000000E780CC
:103B9000C081E31F05E6A28513051002970000000F
:103BA000E780A080E31605E681451305600297F0E3
:103BB000FFFFE780807FE31D05E41D6513050553C6
:103BC00097F0FFFFE780006C15BD411122C406C6C7
:103BD0002A8497D0FFFFE7804075B70700209387BE
:103BE000871688C3CCC303A8070083A84700B7077C
:103BF000002003A507068567938707FA3355F5026A
:103C0000B7060020B2403305850222443306050181
:103C10003335A60023A8C616B307150123AAF61646
:103C200041018280411106C697D0FFFFE780E06F17
:103C3000B70700209387871688C3CCC3B706002038
:103C40009843DC4303A6061783A6461763E7F600EE
:103C500005456395D7006373E6000145B240410115
:103C60008280000000000000000000000000000052
:103C70000000000000000000000000000000000044
:103C80005D7106C012C216C41AC61EC82ACA2ECC3E
:103C900032CE36D03AD23ED442D646D872DA76DC2C
:103CA0007ADEFEC0F322103496C0F322003096C2B2
:103CB000F322407C96C4732520348A8597D0FFFF79
:103CC000E780A07986427390123496427390023056
:103CD000A6427390427C82401242A2423243C243C7
:103CE0005245E245724682561257A2573258C25880
:103CF000525EE25E725F864F6161730020300000A9
:103D0000000000005D7106C012C216C41AC61EC8AB
:103D10002ACA2ECC32CE36D03AD23ED442D646D85B
:103D200072DA76DC7ADEFEC073D0E87E7350F97EFC
:103D300073D0B97EF390D07E73700430B642739026
:103D4000427CA64273901234964273902234824091
:103D50001242A2423243C2435245E2457246825663
:103D60001257A2573258C258525EE25E725F864FB7
:103D7000616173002030AA85814601460145170321
:103D800000006700231C411122C406C697070000EB
:103D9000938707242A8491C7814597000000E78014
:103DA0002023973700009387A73B88431C5591C376
:103DB0008297228597D0FFFFE780C0474111973750
:103DC00000009387273A22C4173400001304843973
:103DD0001D8C26C206C60984BE8411E4B24022446A
:103DE0009244410182807D1493172400A6979C433E
:103DF0008297E5B74111973700009387A73622C411
:103E000017340000130404361D8C26C24AC006C6AF
:103E1000098481443E896396840297370000938722
:103E20006734173400001304E4331D8C0984814483
:103E30003E89639F8400B24022449244024941017A
:103E4000828093972400CA979C4385048297E1B7A8
:103E500093972400CA979C4385048297D9BF2A83ED
:103E600009CA83830500230073007D1605038505B9
:103E70006DFA828035713ECBA6DA36C73AC942CD9B
:103E800046CF97C7FF179387271F86DEA2DCCAD8C5
:103E9000844363DC05009307B0089CC07D55F65051
:103EA0006654D65446590D61828093078020231AA8
:103EB000F1002AC42ACC814799C19387F5FF7D5927
:103EC0002E8474012C0026853EC83ECE231B210182
:103ED00036C297000000E780402C63552501930708
:103EE000B0089CC04DDCA247238007004DBF97C798
:103EF000FF1793876718B2862E86AA858843170313
:103F0000000067008300411122C42A842E85B285F7
:103F1000368697D7FF1723AF075606C6973000009F
:103F2000E7800020FD576319F50097D7FF179387A7
:103F300067569C4391C31CC0B24022444101828019
:103F400097C7FF17938787239C432A8E8DE717C750
:103F5000FF171307672397C7FF1723A1E72217C58A
:103F6000FFF71305250ABA8719C51C4117C5FF17A6
:103F70002320F52ABA87D8437D487D556347E80456
:103F8000630E0E0203A88708630108049318270034
:103F9000C29823A0C8000323081005463316E60084
:103FA0003363C3002320681023A0D8088946631711
:103FB000DE0083264810558E2322C8109306170072
:103FC0000A07D4C3BA978CC701458280797152CC55
:103FD00056CA5AC85EC606D622D426D24AD04ECE7B
:103FE00062C42A8B2E8A97CAFF17938A2A19854B97
:103FF00003A40A0011C84440832984081389F4FFEC
:104000008A04A294635E0900B25022549254025969
:10401000F249624AD24A424BB24B224C45618280FD
:10402000630E0A00639509007D19F114E1BF93172F
:104030002900CE9783A70708E39847FF5840DC4044
:104040007D176318270323222401F9DF032C440082
:104050006388090083A6091033972B01F98E89EE36
:104060008297584083A70A00E31487F9E30EF4FA15
:1040700041B723A20400D1BF93162900CE968C42EB
:1040800083A64910758F01E75A858297D9BF2E857F
:104090008297C1BF01114AC803A9850022CC52C42E
:1040A0005AC006CE26CA4EC656C22E84328B368AD7
:1040B00063E2260B83D7C50013F7074851CB0440B2
:1040C0008C495848AA8AB389B4408D44B384E40229
:1040D0000947B3C4E402138716004E9763F3E40064
:1040E000BA8493F70740C9CBA68556859700000090
:1040F000E780607F2A890DE5B14723A0FA00835746
:10410000C4007D5593E707042316F400F24062448F
:10411000D2444249B249224A924A024B0561828006
:104120000C484E8697000000E780A0D38357C40058
:1041300093F7F7B793E707082316F4002328240121
:1041400044C84E99B38434412320240104C45289C5
:1041500063732A01528908404A86DA859700000075
:10416000E780806A1C440145B38727411CC41C407A
:104170003E992320240159BF2686568597100000BA
:10418000E78080862A895DF90C48568597000000F3
:10419000E780E06995B783D7C500717126D34AD10E
:1041A0004ECF06D722D552CD56CB5AC95EC762C56F
:1041B00066C393F70708AA892E89B284A9C79C49C8
:1041C000B9E39305000436C697000000E780A071AC
:1041D0002320A9002328A900B24615E1B14723A056
:1041E000F9007D55BA502A549A540A59FA496A4A34
:1041F000DA4A4A4BBA4B2A4C9A4C4D61828093075B
:104200000004232AF90093070002A30CF10293078C
:10421000000302DA230DF10236CE930B500297CA47
:10422000FFFF938A2A11054C294B268483470400FB
:1042300099C36391770BB30C944063800C02E686BC
:104240002686CA854E8597000000E780E0E4FD578A
:10425000630AF51AD256E69636DA8347040063837A
:10426000071AFD579304140002D002D63ED202D49E
:10427000A301010682DC83C504001546568597001C
:104280000000E780C05613841400825731E513F70D
:10429000070109C713070002A301E10613F787000E
:1042A00009C71307B002A301E10683C60400130780
:1042B000A002638BE602B257268481462546034757
:1042C000040093051400130707FD6374E6068DC60A
:1042D0003ED61DA0050499BF330555413315AC00EA
:1042E000C98F3ED0A28441BF72479306470018434E
:1042F00036CE634907023AD6034704009307E0022B
:10430000631FF704034714009307A002631BF7021F
:10431000F2470904138747009C433ACE63C1070262
:104320003ED235A83307E04093E727003AD63ED087
:10433000E1B7B387670385462E84BA9749B7FD571F
:10434000C5B7050402D281468147254603470400CC
:1043500093051400130707FD637CE606F1F283451D
:1043600004000D4617C5FFFF130545FD970000002B
:10437000E780E04711CD97C7FFFF938727FC1D8D8E
:1043800093070004B397A700025505045D8D2AD05A
:1043900083450400194617C5FFFF130565FA93040A
:1043A0001400230CB10297000000E780404425C5AB
:1043B00097C7FFF7938707C595E70257F24713772B
:1043C000071009CF91073ECED257D2973EDAB1BD42
:1043D000B387670385462E84BA978DBF9D07E19BFF
:1043E000A107D5B77808970600009386E6CA4A86E3
:1043F0000C104E8597000000E7000000FD572A8A48
:10440000E314F5FC8357C9007D5593F70704E39B3C
:1044100007DC5255C1BB7808970600009386C6C7D3
:104420004A860C104E8597000000E7806011F9B7AE
:10443000797156CA9C49BA8A984522D426D24ECE62
:1044400052CC06D64AD05AC85EC6AA892E84B284F7
:10445000368A63D3E700BA879CC00347340419C384
:1044600085079CC01C4093F7070281C79C408907C1
:104470009CC00329040013796900631A0900130B17
:104480009401FD5B5C449840998F634CF9041C4097
:104490008346340493F70702B336D000A5EB130626
:1044A0003404D2854E85829AFD576303F5041C407F
:1044B00011469840998B544481446397C700B38454
:1044C000E64063D3040081441C4418486354F70059
:1044D000998FBE94014969047D5B63982405014569
:1044E00009A885465A86D2854E85829A631E750133
:1044F0007D55B250225492540259F249624AD24A2E
:10450000424BB24B456182800509ADBF3307D400F1
:1045100013060003A301C70403475404938716003E
:10452000A2978906A381E7049DBF85462286D2858E
:104530004E85829AE30E65FB050945B7797122D451
:1045400026D24AD04ECE06D652CC56CA5AC8B689C2
:1045500083C685019307E0063289AA842E841386D8
:1045600035046383F61E63E2D70693073006638241
:10457000F60A63EDD700638D061E930780056389F5
:10458000F616930A24042301D40469A8930740066D
:104590006386F60093079006E395F6FE1C400843F9
:1045A00093F6070893054500C1C21C410CC363D8AC
:1045B00007001307D002B307F040A301E40497C635
:1045C000FFFF938666D8294765A093073007638568
:1045D000F61A63EFD7009307F006638FF60493078C
:1045E0000007E390F6FA9C4193E707029CC109A8F3
:1045F000930750076382F60493078007E393F6F866
:1046000093078007A302F40497C6FFFF938606D59D
:10461000F5A01C43938A2504938647009C4314C34A
:104620002381F50485479DAA93F607041C410CC31A
:10463000BDDEC207C187A5BF0C401C4313F80508A7
:10464000138547006305080008C39C4339A093F510
:10465000050408C3FDD983D707001307F006638D4F
:10466000E60C97C6FFFF938626CE2947A3010404D4
:104670004C400CC463C5050008406D9908C099E31F
:10468000B28A91CDB28AB3F5E702FD1AB69583C519
:1046900005002380BA00B3D5E70263F5E70AA14716
:1046A000631EF7001C40858B91CB58401C4863C7A4
:1046B000E70093070003A38FFAFEFD1A3306564165
:1046C00010C84E87CA867000A28526859700000014
:1046D000E78040D67D5A6317450D7D55B250225470
:1046E00092540259F249624AD24A424B4561828051
:1046F000A382D50497C6FFFF938606C50C400843E6
:1047000013F805081C4111056300080208C313F7DC
:10471000150001C793E505020CC04147A1FB0C4001
:1047200093F5F5FD0CC099B713F8050408C3E30031
:1047300008FEC207C183E1BF97C6FFFF9386C6C0CC
:1047400021472DB7AE8781B794411C43CC4913F85C
:104750000608138547006306080008C39C438CC302
:1047600001A808C393F606049C43F5DA2390B7002A
:1047700023280400B28AB1B71C43D04181459386F7
:10478000470014C383AA0700568597000000E780FE
:10479000000601C53305554148C05C401CC8A30153
:1047A000040405B714485686CA8526858299E3060F
:1047B00045F31C40898B8DE7B2474844E350F5F23E
:1047C0003E8529BF85465686CA8526858299E30699
:1047D00065F1050A5C443247998FE345FAFEE9BF6B
:1047E000014A930A94017D5BF5B793F5F50F2A967C
:1047F0006314C5000145828083470500E38DB7FE41
:104800000505FDB715C22A8385466367B500FD56C9
:104810001307F6FF3A93BA958383050023007300CC
:104820007D163693B6956DFA8280DDC983A7C5FFE4
:10483000411122C406C626C21384C5FF63D30700F4
:104840003E94AA8497000000E780802497C7FF1752
:10485000938707939C4385E32322040097C7FF17A0
:1048600023A087922244B240268592444101170337
:10487000000067000322637EF40014403307D40075
:104880006396E7009843DC43369718C05CC0F9B7DD
:10489000BA87D84319C3E37DE4FE94433386D70037
:1048A000631F86001040B29694C33386D700E31B83
:1048B000C7FA10435843B29694C3D8C365B763751B
:1048C000C400B1479CC079BF1040B306C400631652
:1048D000D70014435843B29614C058C0C0C359B748
:1048E0008280011126CA93843500F19806CE22CC2D
:1048F0004AC84EC6A104B14763F3F406B14463E26B
:10490000B4062A8997000000E780801897C7FF1730
:104910009387078798433A8439EC97C7FF179387A3
:1049200067869C4399EB81454A8597000000E780A4
:10493000C01297C7FF1723A7A784A6854A859700AB
:104940000000E7808011FD59631F3507B147232020
:10495000F9004A8597000000E780A01329A0E3D062
:1049600004FAB1471CC10145F2406244D2444249B5
:10497000B249056182801C40858F63C30704AD4640
:1049800063F6F6001CC03E9404C001A85C406317A7
:10499000870217B7FF172325F77E4A859700000087
:1049A000E780200F1305B400930744006199330793
:1049B000F5405DDB3A94898F1CC07DB75CC3F1BFC5
:1049C0002287404091BF130435007198E30E85FAA9
:1049D000B305A4404A8597000000E7800008E3156E
:1049E00035FBADB791E5B285170300006700A3EF73
:1049F000011122CC06CE26CA4AC84EC6328411EE18
:104A000097000000E780A0E20149F24062444A8535
:104A1000D2444249B24905618280AE84AA89970096
:104A20000000E78020072689E37185FEA2854E8578
:104A300097000000E78020EB2A8961D9A6852286AD
:104A400097F0FFFFE780E041A6854E8597000000C4
:104A5000E780E0DD5DBF411122C42A842E8597D70F
:104A6000FF1723A907A206C697D0FFFFE780408162
:104A7000FD576319F50097D7FF179387A7A19C43AC
:104A800091C31CC0B2402244410182808280828056
:104A900083A7C5FF1385C7FF63D50700AA959C416F
:104AA0003E9582801703000067008300B307C04073
:104AB000370700801347F7FFD18F4111337ED700AE
:104AC000FD8306C622C4B3E7C7013703F07FAA8877
:104AD0002E886367F304B307A040C98F6D8FFD83F1
:104AE000D98F2E8F636EF302B70710C0B697D18FA0
:104AF000F5C313D4E64193752400B367A70013549C
:104B0000F8014D8C95EB8947630DF40C8D47631EBE
:104B1000F40A97B7FF17938767578843CC4309A8D0
:104B20003285B6854686C28697000000E78000572A
:104B3000B240224441018280B367CE00B5CF63000A
:104B40006E0C630B67063307C74151879307C00399
:104B500063C0E70A63D80600930740FC014581451E
:104B60006340F7024685C28597100000E780A0B237
:104B700097000000E780205297000000E780C013F4
:104B80008547630AF40C89476300F40A55D097B748
:104B9000FF17938727539043D44397100000E78073
:104BA000205D97B7FF179387E74D9043D443971045
:104BB0000000E780E05BADBF63410F0697B7FF17CA
:104BC0009387C74B8843CC43A5B7B2402244C285E4
:104BD000410182802244B240410117030000670076
:104BE000A30D97B7FF179387E7498843CC4389B74D
:104BF00097B7FF17938787488843CC4351B78947B6
:104C0000630FC705E30FF4FC8D47E304F4F0854719
:104C10006306F4060145814521BF97B7FF179387C7
:104C2000E7478843CC4329B797B7FF17938787494E
:104C30009043D44397100000E780805397B7FF1745
:104C4000938747442A86AE868843CC43971000005A
:104C5000E7800052F1BDB7070080BD8DD1BD630470
:104C6000F4048D47630AF40285476300F40297B7A2
:104C7000FF17938727448843CC435DBD97B7FF1741
:104C8000938747418843CC4365B597B7FF17938710
:104C9000E7428843CC4369BD97B7FF179387074125
:104CA0008843CC4371B597B7FF179387A73F8843D5
:104CB000CC43BDBD79714AD01399150022D426D2B8
:104CC00052CC06D64ECE56CA5AC85EC613591900E3
:104CD000B70710442E84AA842E8A6349F904B707C3
:104CE000F07F63CE2701630BF9006354402797B729
:104CF000FF179387A7388443C04321A87DD5268614
:104D00002685A286A28597000000E7802039AA8424
:104D10002E84A285B2502254268502599254F2491B
:104D2000624AD24A424BB24B45618280B707DC3FB0
:104D30006351F924B707203E6346F91EFD5A2686C3
:104D4000A2862685A28597100000E780A0FD2A860E
:104D5000AE862A8BAE8B97100000E780A0FC97B739
:104D6000FF17938727399043D4432A89AE89971038
:104D70000000E78020FB97B7FF1793872738904301
:104D8000D44397000000E78060314A86CE869710B2
:104D90000000E78020F997B7FF179387A736904365
:104DA000D44397000000E780602F4A86CE86971094
:104DB0000000E78020F797B7FF17938727359043C8
:104DC000D44397000000E780602D4A86CE86971076
:104DD0000000E78020F597B7FF179387A73390432C
:104DE000D44397000000E780602B4A86CE86971058
:104DF0000000E78020F397B7FF179387273290438F
:104E0000D44397000000E78060295A86DE86971019
:104E10000000E78020F197B7FF179387A7309043F2
:104E2000D4432A8BAE8B4A85CE8597100000E7804D
:104E300060EF97B7FF179387672F9043D44397107E
:104E40000000E780E0324A86CE8697100000E780B7
:104E500060ED97B7FF179387E72D9043D4439710E2
:104E60000000E780E0304A86CE8697100000E78099
:104E700060EB97B7FF179387672C9043D443971045
:104E80000000E780E02E4A86CE8697100000E7807B
:104E900060E997B7FF179387E72A9043D4439710A9
:104EA0000000E780E02C4A86CE8697100000E7805D
:104EB00060E72A86AE865A85DE8597000000E78087
:104EC000E01D2686A28697100000E780A0E5FD572A
:104ED0002A86AE866386FA0897B7FFFF93878749CD
:104EE0008E0ABE9A03A60A0283A64A029710000001
:104EF000E78000282686A28697100000E7804027DA
:104F00002A86AE8603A50A0083A54A0097100000F2
:104F1000E7800026AA842E84E35D0ADE3704008041
:104F20002D8CC5BB97B7FF179387471A9043D4437F
:104F300097000000E780801697B7FF1793878719BF
:104F40009043D44397100000E78040C9E358A0DEA7
:104F5000C9B397B7FF17938767148443C04355BB02
:104F60002685A28597100000E7808020AA842E84E1
:104F70004DB397000000E7800012B707F33F2A8483
:104F8000AE846350F906B707E63F635EF90C2A86E4
:104F9000AE8697000000E780601097B7FF179387F1
:104FA00067139043D443814A97100000E780401C68
:104FB00097B7FF17938787129043D4432A89AE8906
:104FC0002285A68597000000E780400D2A86AE86E0
:104FD0004A85CE8597000000E780E06BAA842E8486
:104FE000B9BBB78703406350F90617B9FF17130918
:104FF000690F0326090083264900894A971000009B
:10500000E780001703260900832649002A8BAE8B10
:105010002285A68597100000E780C0D097B7FF17BC
:105020009387470B9043D44397000000E780000725
:105030002A86AE865A85DE8597000000E780A06547
:10504000AA842E84EDB997B7FF179387270A884360
:10505000CC432286A68697000000E780C0638D4A75
:10506000AA842E84E9B917B9FF171309A9060326E4
:10507000090083264900854A97100000E780400F09
:105080002A8BAE8B03260900832649002285A6853C
:1050900061BF860585818280370810007D18B3784E
:1050A000B8008E089357D501011113D74501337805
:1050B000D800B3E7170193D846010E0826CA4AC89C
:1050C0009374F77F93F8F87F1357D60106CE22CC5E
:1050D0004EC613D9F501FD82336707010E050E0692
:1050E000338814416316D9226351000F6398080274
:1050F000B366C700638B06569305F8FF89E92A96C5
:105100003335A600BA97AA9732858544B1A893068D
:10511000F07F631DD8009304F07F79AA9306F07F97
:10512000638CD418B7068000558FC2859306800320
:1051300063C9B608FD4663C0B6061308000233080B
:10514000B840B3160701B358B60033160601B3E6EC
:1051500016013336C000558E3357B7002A963E9756
:10516000B337A600BA9732851397870063560714A2
:1051700085041307F07F6389E448B70680FFFD16B6
:10518000FD8E9355150005899397F6014D8D5D8D24
:1051900093D7160015A2938605FE93080002B35616
:1051A000D70001486388150113080004B305B8400F
:1051B0003318B7003366C8003336C000558E014738
:1051C00071BF598E3336C000DDBF630B080AB3854B
:1051D00098408DE4B3E6A700638F06409386F5FF01
:1051E00099E63295BA973336C500B29739BF13089E
:1051F000F07F639D0501BA87328531BF9306F07F4A
:10520000E38BD8FEB7068000D58FAE86930580036A
:1052100063C4D506FD4563CBD502130800023308ED
:10522000D8403353D500B395070133150501B3E5D5
:1052300065003335A0004D8DB3D6D7003295B387C6
:10524000E6003336C500B297C68439BF938506FEA3
:1052500013030002B3D5B700014863886600130842
:105260000004B306D8403398D7003365A80033351F
:10527000A0004D8D8146D9B75D8D3335A000DDBFCF
:105280009386140093F5E67FBDE1B3E6A700A9E499
:1052900063870636B366C70085C22A96BA97333548
:1052A000A600AA9713978700328563570700370730
:1052B00080FF7D17F98F85441377750063080734E5
:1052C0001377F50091466303D7349306450033B551
:1052D000A600AA9736851DAE99DE598EE30D06E22B
:1052E0000149B707400001459304F07F05A69305E7
:1052F000F07F6389B6302A963E97B337A6003E9773
:105300001315F7010582518D93571700B6846DB7B9
:105310006356000D63910808B366C70063870634BF
:105320009305F8FF91E93306C5403335C500998FE1
:10533000898F32858544B1A09306F07FE30DD8DCD8
:105340009306800363C8B608FD4663CFB60413080E
:1053500000023308B840B3160701B358B60033163D
:105360000601B3E616013336C000558E3357B70039
:105370003306C5403387E740B337C500B307F7406E
:10538000328513978700E35907F2370480007D14B4
:105390007D8CAA8975A29306F07FE38FD4F0B706BF
:1053A0008000558FC28569BF938605FE9308000271
:1053B000B356D70001486388150113080004B305EC
:1053C000B8403318B7003366C8003336C000558E76
:1053D000014779BF598E3336C000DDBF6304080C26
:1053E0003388984095E8B3E5A700638205289305C4
:1053F000F8FF91E93305A640B307F7403336A6001E
:10540000918F368905BF1303F07F631F6800BA8749
:1054100032859304F07F7DA09305F07FE389B8FE89
:10542000B7058000CD8FC285130880036348B80696
:105430007D48634EB802130300023303B340335E6A
:10544000B50033986700331565003368C8013335FC
:10545000A0003365A800B3D5B7003305A640B30755
:10546000B7403336A600918FC684368919BF13889A
:1054700005FE130E000233D8070101436388C501FE
:1054800013030004B305B3403393B7003365A3009F
:105490003335A0003365A8008145C1B75D8D333534
:1054A000A000DDBF9385140093F5E57FB5E533E8F3
:1054B000A700B365C700B1E463180800638D051A3F
:1054C000BA8732853689CDBBE38805DE3308C5400F
:1054D000B385E740B3380501B385154113948500C2
:1054E000635A04003305A640B307F7403336A600DD
:1054F000918FC9BF3365B80063030518AE87428535
:1055000065BB63180800638E0516BA873285368935
:1055100019B1E38205C0E9B3B309C540B33535011C
:105520003384E7400D8C9315840063D90506B309D5
:10553000A640B307F740333636013384C740368977
:1055400025C4228597200000E780C0B9130785FF96
:10555000FD4763C3E70693070002998F3314E40005
:10556000B3D7F9005D8C3395E90063409708058F48
:1055700093071700FD4663C7F604130700021D8F4B
:105580003356F500B316E4003315E500D18E3335FC
:10559000A000558DB357F400814439BB33E5890031
:1055A00045F181478144D1A84E8597200000E780CE
:1055B00060B31305050259BF130485FD33948900B8
:1055C000014565B70517130600023357E40081460D
:1055D0006387C700930600049D8EB316D400558DD3
:1055E0003335A000598D814745BFB70780FFFD17B0
:1055F000998CE18FD1B1BA873285AE8475B9BA87FB
:1056000032855DB99304F07F814701451397870088
:10561000635B070085041307F07F6389E40637079F
:1056200080FF7D17F98F1397D7010D81598D1307CF
:10563000F07F8D836399E4005D8D814709C5B707CD
:1056400008000145014913F7F47FB2075207F24001
:105650006244B1839315F901D98F33E7B700D2447F
:105660004249B249BA8505618280C284B1B1BA8724
:105670003285C28481BD81470145014941BF8147CF
:10568000EDBF01450149B7074000B9B98147014560
:1056900059BF797113D8450126D24ECE52CC5AC883
:1056A0005EC69394C50006D622D44AD056CA137853
:1056B000F87F2A8BB28B368AB18093D9F5016304C7
:1056C00008089307F07F630EF80C935AD5018E04F7
:1056D000B3E49A00B70A8000B3EA5401131435000A
:1056E000130918C0014B13554A019314CA001378CB
:1056F000F57FB180135AFA016308080C9307F07F15
:105700006301F8121395340093D7DB015D8DB70464
:105710008000C98C139F3B00130518C081471317E5
:105720002B005D8F7D17B94633C649013308A94068
:1057300063EBE61097B6FFFF9386C6C70A07369756
:10574000184336970287B3EAA40063860A068DCC15
:10575000268597200000E780E098930755FF714762
:10576000634BF702F54A130485FFB38AFA40B394FA
:105770008400B35A5B01B3EA9A0033148B00130818
:10578000D0C03309A840B9BF97200000E7808095BA
:1057900013050502D9B7930485FDB31A9B00014494
:1057A000F9BFB3EAA400638C0A002A84A68A13090D
:1057B000F07F0D4B0DBF01440149054B2DB701444E
:1057C0001309F07F094B05B733EF740163040F062B
:1057D0009DC8268597200000E780C090930755FF5D
:1057E0007147634AF7027547130F85FF1D8FB39406
:1057F000E40133D7EB00D98C339FEB011306D0C003
:105800003305A64021BF5E8597200000E780808D8C
:1058100013050502E1B7930485FDB3949B00014F86
:10582000F1BF33EF7401630B0F005E8F1305F07F40
:105830008D47F5B5814401458547D5B581441305AC
:10584000F07F8947E9BD63E6540163939A2A636157
:10585000E42B9396FA01135714009317F40193DA8B
:105860001A0033E4E6001395840093548F01458DAC
:10587000135E0501B3D8CA031313050113530301C3
:105880001357040193158F00B3F4CA03C68FB306F0
:105890001303939A040133675701637CD7002A9757
:1058A000938FF8FF6367A7006375D700938FE8FFB6
:1058B0002A97158FB35EC703420441803377C7032D
:1058C000F686B308D3034207418F637C17012A97FA
:1058D0009386FEFF6367A700637517019386EEFF4B
:1058E0002A97C20FB3EFDF00C166330417419388D4
:1058F000F6FF13DF0F0133F71F0193DE0501B3F845
:105900001501B3031703B3041F033387EE02B30279
:10591000DF03330F970013D703017A976373970060
:10592000B692135F0701169FC162FD12B37657004E
:10593000C206B3F353009E966367E401FE84631EC0
:10594000E40363FCD702AE9733B7B7002A973A94C3
:105950009384FFFF636685006311850263EFB700E0
:105960006366E401631B8F0063F9D700AE9733B71A
:10597000B7002A979384EFFF3A94B386D740330455
:10598000E441B3B7D7001D8C7D5F6305850E335F9F
:10599000C40313D706013374C403B307E3034204FB
:1059A000598C7A87637CF4002A941307FFFF63679E
:1059B000A4006375F4001307EFFF2A941D8C335F76
:1059C000C403C206C1823374C403FA873303E303FA
:1059D0004204558C637C64002A949307FFFF63673D
:1059E000A400637564009307EFFF2A9442075D8F5C
:1059F00093170701C1833304644013530701338EA7
:105A00001703B308130333836E02B38EFE0293575A
:105A10000E01C69EF69763F41701C166369393D8BC
:105A200007019A9841637D13B3F66700C206337E7F
:105A30006E00F29663661401631E14193A8F9DCAB4
:105A40002A94130FF7FF6361A402636614016312C3
:105A5000141963FDD50093971500B3B5B7002E95C3
:105A6000130FE7FF2A94BE85631414016384B60004
:105A7000136F1F001307F83F6357E00A93777F0007
:105A800081CF9377FF0091466388D70093064F003C
:105A900033BFE601FA94368F9397740063D80700FA
:105AA000B70700FFFD17FD8C130708409307E07F41
:105AB00063C8E710135F3F009397D401B3E7E70192
:105AC00013D5340032051377F77F5207B2502254B2
:105AD0003181598D7E063367C50092540259F249CF
:105AE000624AD24A424BB24B3E85BA8545618280BA
:105AF0007D1881478DBB4E86D684228FDA87094771
